{
	"DEX2.sol": {
		"Dex": {
			"abi": [
				{
					"inputs": [
						{
							"internalType": "address",
							"name": "_feeAccount",
							"type": "address"
						},
						{
							"internalType": "address",
							"name": "_router",
							"type": "address"
						},
						{
							"internalType": "address",
							"name": "_weth",
							"type": "address"
						}
					],
					"stateMutability": "nonpayable",
					"type": "constructor"
				},
				{
					"anonymous": false,
					"inputs": [
						{
							"indexed": true,
							"internalType": "address",
							"name": "previousOwner",
							"type": "address"
						},
						{
							"indexed": true,
							"internalType": "address",
							"name": "newOwner",
							"type": "address"
						}
					],
					"name": "OwnershipTransferred",
					"type": "event"
				},
				{
					"inputs": [
						{
							"internalType": "address[]",
							"name": "_tokens",
							"type": "address[]"
						}
					],
					"name": "addWhitelistedTokens",
					"outputs": [],
					"stateMutability": "nonpayable",
					"type": "function"
				},
				{
					"inputs": [
						{
							"internalType": "address[]",
							"name": "_tokens",
							"type": "address[]"
						},
						{
							"internalType": "uint256[]",
							"name": "_amounts",
							"type": "uint256[]"
						}
					],
					"name": "approveTokens",
					"outputs": [],
					"stateMutability": "nonpayable",
					"type": "function"
				},
				{
					"inputs": [
						{
							"internalType": "address",
							"name": "_tokenA",
							"type": "address"
						},
						{
							"internalType": "address",
							"name": "_tokenB",
							"type": "address"
						},
						{
							"internalType": "uint256",
							"name": "_amountIn",
							"type": "uint256"
						},
						{
							"internalType": "address[]",
							"name": "path",
							"type": "address[]"
						}
					],
					"name": "customSwapTokens",
					"outputs": [],
					"stateMutability": "payable",
					"type": "function"
				},
				{
					"inputs": [
						{
							"internalType": "address",
							"name": "_token",
							"type": "address"
						},
						{
							"internalType": "uint256",
							"name": "_amount",
							"type": "uint256"
						}
					],
					"name": "emergencyWithdraw",
					"outputs": [],
					"stateMutability": "nonpayable",
					"type": "function"
				},
				{
					"inputs": [
						{
							"internalType": "uint256",
							"name": "_amount",
							"type": "uint256"
						}
					],
					"name": "emergencyWithdrawETH",
					"outputs": [],
					"stateMutability": "nonpayable",
					"type": "function"
				},
				{
					"inputs": [],
					"name": "feeAccount",
					"outputs": [
						{
							"internalType": "address",
							"name": "",
							"type": "address"
						}
					],
					"stateMutability": "view",
					"type": "function"
				},
				{
					"inputs": [],
					"name": "feePercent",
					"outputs": [
						{
							"internalType": "uint256",
							"name": "",
							"type": "uint256"
						}
					],
					"stateMutability": "view",
					"type": "function"
				},
				{
					"inputs": [
						{
							"internalType": "uint256",
							"name": "inputAmount",
							"type": "uint256"
						},
						{
							"internalType": "address[]",
							"name": "path",
							"type": "address[]"
						}
					],
					"name": "getOutputTokenAmount",
					"outputs": [
						{
							"internalType": "uint256",
							"name": "outputAmount",
							"type": "uint256"
						}
					],
					"stateMutability": "view",
					"type": "function"
				},
				{
					"inputs": [],
					"name": "owner",
					"outputs": [
						{
							"internalType": "address",
							"name": "",
							"type": "address"
						}
					],
					"stateMutability": "view",
					"type": "function"
				},
				{
					"inputs": [
						{
							"internalType": "address[]",
							"name": "_tokens",
							"type": "address[]"
						}
					],
					"name": "removeWhitelistedTokens",
					"outputs": [],
					"stateMutability": "nonpayable",
					"type": "function"
				},
				{
					"inputs": [],
					"name": "renounceOwnership",
					"outputs": [],
					"stateMutability": "nonpayable",
					"type": "function"
				},
				{
					"inputs": [],
					"name": "router",
					"outputs": [
						{
							"internalType": "address",
							"name": "",
							"type": "address"
						}
					],
					"stateMutability": "view",
					"type": "function"
				},
				{
					"inputs": [
						{
							"internalType": "address",
							"name": "_feeAccount",
							"type": "address"
						}
					],
					"name": "setFeeAccount",
					"outputs": [],
					"stateMutability": "nonpayable",
					"type": "function"
				},
				{
					"inputs": [
						{
							"internalType": "uint256",
							"name": "_feePercent",
							"type": "uint256"
						}
					],
					"name": "setFeePercent",
					"outputs": [],
					"stateMutability": "nonpayable",
					"type": "function"
				},
				{
					"inputs": [
						{
							"internalType": "address",
							"name": "_router",
							"type": "address"
						},
						{
							"internalType": "address",
							"name": "_weth",
							"type": "address"
						}
					],
					"name": "setRouterweth",
					"outputs": [],
					"stateMutability": "nonpayable",
					"type": "function"
				},
				{
					"inputs": [
						{
							"internalType": "address",
							"name": "_tokenA",
							"type": "address"
						},
						{
							"internalType": "address",
							"name": "_tokenB",
							"type": "address"
						},
						{
							"internalType": "uint256",
							"name": "_amountIn",
							"type": "uint256"
						}
					],
					"name": "swapTokens",
					"outputs": [],
					"stateMutability": "payable",
					"type": "function"
				},
				{
					"inputs": [
						{
							"internalType": "address",
							"name": "newOwner",
							"type": "address"
						}
					],
					"name": "transferOwnership",
					"outputs": [],
					"stateMutability": "nonpayable",
					"type": "function"
				},
				{
					"inputs": [],
					"name": "weth",
					"outputs": [
						{
							"internalType": "address",
							"name": "",
							"type": "address"
						}
					],
					"stateMutability": "view",
					"type": "function"
				},
				{
					"inputs": [
						{
							"internalType": "address",
							"name": "",
							"type": "address"
						}
					],
					"name": "whitelistedTokens",
					"outputs": [
						{
							"internalType": "bool",
							"name": "",
							"type": "bool"
						}
					],
					"stateMutability": "view",
					"type": "function"
				}
			],
			"devdoc": {
				"kind": "dev",
				"methods": {
					"owner()": {
						"details": "Returns the address of the current owner."
					},
					"renounceOwnership()": {
						"details": "Leaves the contract without owner. It will not be possible to call `onlyOwner` functions anymore. Can only be called by the current owner. NOTE: Renouncing ownership will leave the contract without an owner, thereby removing any functionality that is only available to the owner."
					},
					"transferOwnership(address)": {
						"details": "Transfers ownership of the contract to a new account (`newOwner`). Can only be called by the current owner."
					}
				},
				"version": 1
			},
			"evm": {
				"assembly": "    /* \"DEX2.sol\":991:6125  contract Dex is Ownable {... */\n  mstore(0x40, 0x80)\n    /* \"DEX2.sol\":1111:1113  25 */\n  0x19\n    /* \"DEX2.sol\":1086:1113  uint public feePercent = 25 */\n  0x01\n  sstore\n    /* \"DEX2.sol\":1269:1423  constructor(address _feeAccount, address _router, address _weth) {... */\n  callvalue\n  dup1\n  iszero\n  tag_1\n  jumpi\n  0x00\n  dup1\n  revert\ntag_1:\n  pop\n  mload(0x40)\n  sub(codesize, bytecodeSize)\n  dup1\n  bytecodeSize\n  dup4\n  codecopy\n  dup2\n  dup2\n  add\n  0x40\n  mstore\n  dup2\n  add\n  swap1\n  tag_2\n  swap2\n  swap1\n  tag_3\n  jump\t// in\ntag_2:\n    /* \"SafeMath.sol\":879:911  _transferOwnership(_msgSender()) */\n  tag_7\n    /* \"SafeMath.sol\":898:910  _msgSender() */\n  tag_8\n    /* \"SafeMath.sol\":898:908  _msgSender */\n  shl(0x20, tag_9)\n    /* \"SafeMath.sol\":898:910  _msgSender() */\n  0x20\n  shr\n  jump\t// in\ntag_8:\n    /* \"SafeMath.sol\":879:897  _transferOwnership */\n  shl(0x20, tag_10)\n    /* \"SafeMath.sol\":879:911  _transferOwnership(_msgSender()) */\n  0x20\n  shr\n  jump\t// in\ntag_7:\n    /* \"DEX2.sol\":1357:1368  _feeAccount */\n  dup3\n    /* \"DEX2.sol\":1344:1354  feeAccount */\n  0x02\n  0x00\n    /* \"DEX2.sol\":1344:1368  feeAccount = _feeAccount */\n  0x0100\n  exp\n  dup2\n  sload\n  dup2\n  0xffffffffffffffffffffffffffffffffffffffff\n  mul\n  not\n  and\n  swap1\n  dup4\n  0xffffffffffffffffffffffffffffffffffffffff\n  and\n  mul\n  or\n  swap1\n  sstore\n  pop\n    /* \"DEX2.sol\":1387:1394  _router */\n  dup2\n    /* \"DEX2.sol\":1378:1384  router */\n  0x03\n  0x00\n    /* \"DEX2.sol\":1378:1394  router = _router */\n  0x0100\n  exp\n  dup2\n  sload\n  dup2\n  0xffffffffffffffffffffffffffffffffffffffff\n  mul\n  not\n  and\n  swap1\n  dup4\n  0xffffffffffffffffffffffffffffffffffffffff\n  and\n  mul\n  or\n  swap1\n  sstore\n  pop\n    /* \"DEX2.sol\":1411:1416  _weth */\n  dup1\n    /* \"DEX2.sol\":1404:1408  weth */\n  0x04\n  0x00\n    /* \"DEX2.sol\":1404:1416  weth = _weth */\n  0x0100\n  exp\n  dup2\n  sload\n  dup2\n  0xffffffffffffffffffffffffffffffffffffffff\n  mul\n  not\n  and\n  swap1\n  dup4\n  0xffffffffffffffffffffffffffffffffffffffff\n  and\n  mul\n  or\n  swap1\n  sstore\n  pop\n    /* \"DEX2.sol\":1269:1423  constructor(address _feeAccount, address _router, address _weth) {... */\n  pop\n  pop\n  pop\n    /* \"DEX2.sol\":991:6125  contract Dex is Ownable {... */\n  jump(tag_12)\n    /* \"Ownable.sol\":587:683  function _msgSender() internal view virtual returns (address) {... */\ntag_9:\n    /* \"Ownable.sol\":640:647  address */\n  0x00\n    /* \"Ownable.sol\":666:676  msg.sender */\n  caller\n    /* \"Ownable.sol\":659:676  return msg.sender */\n  swap1\n  pop\n    /* \"Ownable.sol\":587:683  function _msgSender() internal view virtual returns (address) {... */\n  swap1\n  jump\t// out\n    /* \"SafeMath.sol\":2228:2415  function _transferOwnership(address newOwner) internal virtual {... */\ntag_10:\n    /* \"SafeMath.sol\":2301:2317  address oldOwner */\n  0x00\n    /* \"SafeMath.sol\":2320:2326  _owner */\n  dup1\n  0x00\n  swap1\n  sload\n  swap1\n  0x0100\n  exp\n  swap1\n  div\n  0xffffffffffffffffffffffffffffffffffffffff\n  and\n    /* \"SafeMath.sol\":2301:2326  address oldOwner = _owner */\n  swap1\n  pop\n    /* \"SafeMath.sol\":2345:2353  newOwner */\n  dup2\n    /* \"SafeMath.sol\":2336:2342  _owner */\n  0x00\n  dup1\n    /* \"SafeMath.sol\":2336:2353  _owner = newOwner */\n  0x0100\n  exp\n  dup2\n  sload\n  dup2\n  0xffffffffffffffffffffffffffffffffffffffff\n  mul\n  not\n  and\n  swap1\n  dup4\n  0xffffffffffffffffffffffffffffffffffffffff\n  and\n  mul\n  or\n  swap1\n  sstore\n  pop\n    /* \"SafeMath.sol\":2399:2407  newOwner */\n  dup2\n    /* \"SafeMath.sol\":2368:2408  OwnershipTransferred(oldOwner, newOwner) */\n  0xffffffffffffffffffffffffffffffffffffffff\n  and\n    /* \"SafeMath.sol\":2389:2397  oldOwner */\n  dup2\n    /* \"SafeMath.sol\":2368:2408  OwnershipTransferred(oldOwner, newOwner) */\n  0xffffffffffffffffffffffffffffffffffffffff\n  and\n  0x8be0079c531659141344cd1fd0a4f28419497f9722a3daafe3b4186f6b6457e0\n  mload(0x40)\n  mload(0x40)\n  dup1\n  swap2\n  sub\n  swap1\n  log3\n    /* \"SafeMath.sol\":2291:2415  {... */\n  pop\n    /* \"SafeMath.sol\":2228:2415  function _transferOwnership(address newOwner) internal virtual {... */\n  pop\n  jump\t// out\n    /* \"#utility.yul\":88:205   */\ntag_16:\n    /* \"#utility.yul\":197:198   */\n  0x00\n    /* \"#utility.yul\":194:195   */\n  dup1\n    /* \"#utility.yul\":187:199   */\n  revert\n    /* \"#utility.yul\":334:460   */\ntag_18:\n    /* \"#utility.yul\":371:378   */\n  0x00\n    /* \"#utility.yul\":411:453   */\n  0xffffffffffffffffffffffffffffffffffffffff\n    /* \"#utility.yul\":404:409   */\n  dup3\n    /* \"#utility.yul\":400:454   */\n  and\n    /* \"#utility.yul\":389:454   */\n  swap1\n  pop\n    /* \"#utility.yul\":334:460   */\n  swap2\n  swap1\n  pop\n  jump\t// out\n    /* \"#utility.yul\":466:562   */\ntag_19:\n    /* \"#utility.yul\":503:510   */\n  0x00\n    /* \"#utility.yul\":532:556   */\n  tag_28\n    /* \"#utility.yul\":550:555   */\n  dup3\n    /* \"#utility.yul\":532:556   */\n  tag_18\n  jump\t// in\ntag_28:\n    /* \"#utility.yul\":521:556   */\n  swap1\n  pop\n    /* \"#utility.yul\":466:562   */\n  swap2\n  swap1\n  pop\n  jump\t// out\n    /* \"#utility.yul\":568:690   */\ntag_20:\n    /* \"#utility.yul\":641:665   */\n  tag_30\n    /* \"#utility.yul\":659:664   */\n  dup2\n    /* \"#utility.yul\":641:665   */\n  tag_19\n  jump\t// in\ntag_30:\n    /* \"#utility.yul\":634:639   */\n  dup2\n    /* \"#utility.yul\":631:666   */\n  eq\n    /* \"#utility.yul\":621:684   */\n  tag_31\n  jumpi\n    /* \"#utility.yul\":680:681   */\n  0x00\n    /* \"#utility.yul\":677:678   */\n  dup1\n    /* \"#utility.yul\":670:682   */\n  revert\n    /* \"#utility.yul\":621:684   */\ntag_31:\n    /* \"#utility.yul\":568:690   */\n  pop\n  jump\t// out\n    /* \"#utility.yul\":696:839   */\ntag_21:\n    /* \"#utility.yul\":753:758   */\n  0x00\n    /* \"#utility.yul\":784:790   */\n  dup2\n    /* \"#utility.yul\":778:791   */\n  mload\n    /* \"#utility.yul\":769:791   */\n  swap1\n  pop\n    /* \"#utility.yul\":800:833   */\n  tag_33\n    /* \"#utility.yul\":827:832   */\n  dup2\n    /* \"#utility.yul\":800:833   */\n  tag_20\n  jump\t// in\ntag_33:\n    /* \"#utility.yul\":696:839   */\n  swap3\n  swap2\n  pop\n  pop\n  jump\t// out\n    /* \"#utility.yul\":845:1508   */\ntag_3:\n    /* \"#utility.yul\":933:939   */\n  0x00\n    /* \"#utility.yul\":941:947   */\n  dup1\n    /* \"#utility.yul\":949:955   */\n  0x00\n    /* \"#utility.yul\":998:1000   */\n  0x60\n    /* \"#utility.yul\":986:995   */\n  dup5\n    /* \"#utility.yul\":977:984   */\n  dup7\n    /* \"#utility.yul\":973:996   */\n  sub\n    /* \"#utility.yul\":969:1001   */\n  slt\n    /* \"#utility.yul\":966:1085   */\n  iszero\n  tag_35\n  jumpi\n    /* \"#utility.yul\":1004:1083   */\n  tag_36\n  tag_16\n  jump\t// in\ntag_36:\n    /* \"#utility.yul\":966:1085   */\ntag_35:\n    /* \"#utility.yul\":1124:1125   */\n  0x00\n    /* \"#utility.yul\":1149:1213   */\n  tag_37\n    /* \"#utility.yul\":1205:1212   */\n  dup7\n    /* \"#utility.yul\":1196:1202   */\n  dup3\n    /* \"#utility.yul\":1185:1194   */\n  dup8\n    /* \"#utility.yul\":1181:1203   */\n  add\n    /* \"#utility.yul\":1149:1213   */\n  tag_21\n  jump\t// in\ntag_37:\n    /* \"#utility.yul\":1139:1213   */\n  swap4\n  pop\n    /* \"#utility.yul\":1095:1223   */\n  pop\n    /* \"#utility.yul\":1262:1264   */\n  0x20\n    /* \"#utility.yul\":1288:1352   */\n  tag_38\n    /* \"#utility.yul\":1344:1351   */\n  dup7\n    /* \"#utility.yul\":1335:1341   */\n  dup3\n    /* \"#utility.yul\":1324:1333   */\n  dup8\n    /* \"#utility.yul\":1320:1342   */\n  add\n    /* \"#utility.yul\":1288:1352   */\n  tag_21\n  jump\t// in\ntag_38:\n    /* \"#utility.yul\":1278:1352   */\n  swap3\n  pop\n    /* \"#utility.yul\":1233:1362   */\n  pop\n    /* \"#utility.yul\":1401:1403   */\n  0x40\n    /* \"#utility.yul\":1427:1491   */\n  tag_39\n    /* \"#utility.yul\":1483:1490   */\n  dup7\n    /* \"#utility.yul\":1474:1480   */\n  dup3\n    /* \"#utility.yul\":1463:1472   */\n  dup8\n    /* \"#utility.yul\":1459:1481   */\n  add\n    /* \"#utility.yul\":1427:1491   */\n  tag_21\n  jump\t// in\ntag_39:\n    /* \"#utility.yul\":1417:1491   */\n  swap2\n  pop\n    /* \"#utility.yul\":1372:1501   */\n  pop\n    /* \"#utility.yul\":845:1508   */\n  swap3\n  pop\n  swap3\n  pop\n  swap3\n  jump\t// out\n    /* \"DEX2.sol\":991:6125  contract Dex is Ownable {... */\ntag_12:\n  dataSize(sub_0)\n  dup1\n  dataOffset(sub_0)\n  0x00\n  codecopy\n  0x00\n  return\nstop\n\nsub_0: assembly {\n        /* \"DEX2.sol\":991:6125  contract Dex is Ownable {... */\n      mstore(0x40, 0x80)\n      jumpi(tag_1, lt(calldatasize, 0x04))\n      shr(0xe0, calldataload(0x00))\n      dup1\n      0x9c833fa7\n      gt\n      tag_21\n      jumpi\n      dup1\n      0xdaf9c210\n      gt\n      tag_22\n      jumpi\n      dup1\n      0xdaf9c210\n      eq\n      tag_16\n      jumpi\n      dup1\n      0xebcf9053\n      eq\n      tag_17\n      jumpi\n      dup1\n      0xec6cc0cc\n      eq\n      tag_18\n      jumpi\n      dup1\n      0xf2fde38b\n      eq\n      tag_19\n      jumpi\n      dup1\n      0xf887ea40\n      eq\n      tag_20\n      jumpi\n      jump(tag_1)\n    tag_22:\n      dup1\n      0x9c833fa7\n      eq\n      tag_11\n      jumpi\n      dup1\n      0x9de2827b\n      eq\n      tag_12\n      jumpi\n      dup1\n      0xbcec454f\n      eq\n      tag_13\n      jumpi\n      dup1\n      0xcd698e69\n      eq\n      tag_14\n      jumpi\n      dup1\n      0xd654e9a4\n      eq\n      tag_15\n      jumpi\n      jump(tag_1)\n    tag_21:\n      dup1\n      0x715018a6\n      gt\n      tag_23\n      jumpi\n      dup1\n      0x715018a6\n      eq\n      tag_6\n      jumpi\n      dup1\n      0x7ce3489b\n      eq\n      tag_7\n      jumpi\n      dup1\n      0x7fd6f15c\n      eq\n      tag_8\n      jumpi\n      dup1\n      0x8da5cb5b\n      eq\n      tag_9\n      jumpi\n      dup1\n      0x95ccea67\n      eq\n      tag_10\n      jumpi\n      jump(tag_1)\n    tag_23:\n      dup1\n      0x3fc8cef3\n      eq\n      tag_2\n      jumpi\n      dup1\n      0x4b023cf8\n      eq\n      tag_3\n      jumpi\n      dup1\n      0x65e17c9d\n      eq\n      tag_4\n      jumpi\n      dup1\n      0x6b792c4b\n      eq\n      tag_5\n      jumpi\n    tag_1:\n      0x00\n      dup1\n      revert\n        /* \"DEX2.sol\":1187:1206  address public weth */\n    tag_2:\n      callvalue\n      dup1\n      iszero\n      tag_24\n      jumpi\n      0x00\n      dup1\n      revert\n    tag_24:\n      pop\n      tag_25\n      tag_26\n      jump\t// in\n    tag_25:\n      mload(0x40)\n      tag_27\n      swap2\n      swap1\n      tag_28\n      jump\t// in\n    tag_27:\n      mload(0x40)\n      dup1\n      swap2\n      sub\n      swap1\n      return\n        /* \"DEX2.sol\":4887:4991  function setFeeAccount(address _feeAccount) external onlyOwner {... */\n    tag_3:\n      callvalue\n      dup1\n      iszero\n      tag_29\n      jumpi\n      0x00\n      dup1\n      revert\n    tag_29:\n      pop\n      tag_30\n      0x04\n      dup1\n      calldatasize\n      sub\n      dup2\n      add\n      swap1\n      tag_31\n      swap2\n      swap1\n      tag_32\n      jump\t// in\n    tag_31:\n      tag_33\n      jump\t// in\n    tag_30:\n      stop\n        /* \"DEX2.sol\":1129:1154  address public feeAccount */\n    tag_4:\n      callvalue\n      dup1\n      iszero\n      tag_34\n      jumpi\n      0x00\n      dup1\n      revert\n    tag_34:\n      pop\n      tag_35\n      tag_36\n      jump\t// in\n    tag_35:\n      mload(0x40)\n      tag_37\n      swap2\n      swap1\n      tag_28\n      jump\t// in\n    tag_37:\n      mload(0x40)\n      dup1\n      swap2\n      sub\n      swap1\n      return\n        /* \"DEX2.sol\":6009:6123  function emergencyWithdrawETH(uint _amount) external onlyOwner {... */\n    tag_5:\n      callvalue\n      dup1\n      iszero\n      tag_38\n      jumpi\n      0x00\n      dup1\n      revert\n    tag_38:\n      pop\n      tag_39\n      0x04\n      dup1\n      calldatasize\n      sub\n      dup2\n      add\n      swap1\n      tag_40\n      swap2\n      swap1\n      tag_41\n      jump\t// in\n    tag_40:\n      tag_42\n      jump\t// in\n    tag_39:\n      stop\n        /* \"SafeMath.sol\":1626:1727  function renounceOwnership() public virtual onlyOwner {... */\n    tag_6:\n      callvalue\n      dup1\n      iszero\n      tag_43\n      jumpi\n      0x00\n      dup1\n      revert\n    tag_43:\n      pop\n      tag_44\n      tag_45\n      jump\t// in\n    tag_44:\n      stop\n        /* \"DEX2.sol\":4780:4881  function setFeePercent(uint _feePercent) external onlyOwner {... */\n    tag_7:\n      callvalue\n      dup1\n      iszero\n      tag_46\n      jumpi\n      0x00\n      dup1\n      revert\n    tag_46:\n      pop\n      tag_47\n      0x04\n      dup1\n      calldatasize\n      sub\n      dup2\n      add\n      swap1\n      tag_48\n      swap2\n      swap1\n      tag_41\n      jump\t// in\n    tag_48:\n      tag_49\n      jump\t// in\n    tag_47:\n      stop\n        /* \"DEX2.sol\":1086:1113  uint public feePercent = 25 */\n    tag_8:\n      callvalue\n      dup1\n      iszero\n      tag_50\n      jumpi\n      0x00\n      dup1\n      revert\n    tag_50:\n      pop\n      tag_51\n      tag_52\n      jump\t// in\n    tag_51:\n      mload(0x40)\n      tag_53\n      swap2\n      swap1\n      tag_54\n      jump\t// in\n    tag_53:\n      mload(0x40)\n      dup1\n      swap2\n      sub\n      swap1\n      return\n        /* \"SafeMath.sol\":994:1079  function owner() public view virtual returns (address) {... */\n    tag_9:\n      callvalue\n      dup1\n      iszero\n      tag_55\n      jumpi\n      0x00\n      dup1\n      revert\n    tag_55:\n      pop\n      tag_56\n      tag_57\n      jump\t// in\n    tag_56:\n      mload(0x40)\n      tag_58\n      swap2\n      swap1\n      tag_28\n      jump\t// in\n    tag_58:\n      mload(0x40)\n      dup1\n      swap2\n      sub\n      swap1\n      return\n        /* \"DEX2.sol\":5862:6003  function emergencyWithdraw(address _token, uint _amount) external onlyOwner {... */\n    tag_10:\n      callvalue\n      dup1\n      iszero\n      tag_59\n      jumpi\n      0x00\n      dup1\n      revert\n    tag_59:\n      pop\n      tag_60\n      0x04\n      dup1\n      calldatasize\n      sub\n      dup2\n      add\n      swap1\n      tag_61\n      swap2\n      swap1\n      tag_62\n      jump\t// in\n    tag_61:\n      tag_63\n      jump\t// in\n    tag_60:\n      stop\n        /* \"DEX2.sol\":5649:5856  function approveTokens(address[]memory _tokens, uint[] memory _amounts) external onlyOwner {... */\n    tag_11:\n      callvalue\n      dup1\n      iszero\n      tag_64\n      jumpi\n      0x00\n      dup1\n      revert\n    tag_64:\n      pop\n      tag_65\n      0x04\n      dup1\n      calldatasize\n      sub\n      dup2\n      add\n      swap1\n      tag_66\n      swap2\n      swap1\n      tag_67\n      jump\t// in\n    tag_66:\n      tag_68\n      jump\t// in\n    tag_65:\n      stop\n        /* \"DEX2.sol\":1933:2572  function customSwapTokens(address _tokenA, address _tokenB, uint256 _amountIn, address[]memory path) external payable{... */\n    tag_12:\n      tag_69\n      0x04\n      dup1\n      calldatasize\n      sub\n      dup2\n      add\n      swap1\n      tag_70\n      swap2\n      swap1\n      tag_71\n      jump\t// in\n    tag_70:\n      tag_72\n      jump\t// in\n    tag_69:\n      stop\n        /* \"DEX2.sol\":5446:5643  function removeWhitelistedTokens(address[]memory _tokens) external onlyOwner {... */\n    tag_13:\n      callvalue\n      dup1\n      iszero\n      tag_73\n      jumpi\n      0x00\n      dup1\n      revert\n    tag_73:\n      pop\n      tag_74\n      0x04\n      dup1\n      calldatasize\n      sub\n      dup2\n      add\n      swap1\n      tag_75\n      swap2\n      swap1\n      tag_76\n      jump\t// in\n    tag_75:\n      tag_77\n      jump\t// in\n    tag_74:\n      stop\n        /* \"DEX2.sol\":5132:5440  function addWhitelistedTokens(address[]memory _tokens) external onlyOwner {... */\n    tag_14:\n      callvalue\n      dup1\n      iszero\n      tag_78\n      jumpi\n      0x00\n      dup1\n      revert\n    tag_78:\n      pop\n      tag_79\n      0x04\n      dup1\n      calldatasize\n      sub\n      dup2\n      add\n      swap1\n      tag_80\n      swap2\n      swap1\n      tag_76\n      jump\t// in\n    tag_80:\n      tag_81\n      jump\t// in\n    tag_79:\n      stop\n        /* \"DEX2.sol\":4530:4774  function getOutputTokenAmount(uint inputAmount, address[]memory path) external view returns (uint outputAmount) {... */\n    tag_15:\n      callvalue\n      dup1\n      iszero\n      tag_82\n      jumpi\n      0x00\n      dup1\n      revert\n    tag_82:\n      pop\n      tag_83\n      0x04\n      dup1\n      calldatasize\n      sub\n      dup2\n      add\n      swap1\n      tag_84\n      swap2\n      swap1\n      tag_85\n      jump\t// in\n    tag_84:\n      tag_86\n      jump\t// in\n    tag_83:\n      mload(0x40)\n      tag_87\n      swap2\n      swap1\n      tag_54\n      jump\t// in\n    tag_87:\n      mload(0x40)\n      dup1\n      swap2\n      sub\n      swap1\n      return\n        /* \"DEX2.sol\":1213:1262  mapping(address => bool) public whitelistedTokens */\n    tag_16:\n      callvalue\n      dup1\n      iszero\n      tag_88\n      jumpi\n      0x00\n      dup1\n      revert\n    tag_88:\n      pop\n      tag_89\n      0x04\n      dup1\n      calldatasize\n      sub\n      dup2\n      add\n      swap1\n      tag_90\n      swap2\n      swap1\n      tag_32\n      jump\t// in\n    tag_90:\n      tag_91\n      jump\t// in\n    tag_89:\n      mload(0x40)\n      tag_92\n      swap2\n      swap1\n      tag_93\n      jump\t// in\n    tag_92:\n      mload(0x40)\n      dup1\n      swap2\n      sub\n      swap1\n      return\n        /* \"DEX2.sol\":4997:5126  function setRouterweth(address _router, address _weth) external onlyOwner {... */\n    tag_17:\n      callvalue\n      dup1\n      iszero\n      tag_94\n      jumpi\n      0x00\n      dup1\n      revert\n    tag_94:\n      pop\n      tag_95\n      0x04\n      dup1\n      calldatasize\n      sub\n      dup2\n      add\n      swap1\n      tag_96\n      swap2\n      swap1\n      tag_97\n      jump\t// in\n    tag_96:\n      tag_98\n      jump\t// in\n    tag_95:\n      stop\n        /* \"DEX2.sol\":1429:1927  function swapTokens(address _tokenA, address _tokenB, uint256 _amountIn) external payable {... */\n    tag_18:\n      tag_99\n      0x04\n      dup1\n      calldatasize\n      sub\n      dup2\n      add\n      swap1\n      tag_100\n      swap2\n      swap1\n      tag_101\n      jump\t// in\n    tag_100:\n      tag_102\n      jump\t// in\n    tag_99:\n      stop\n        /* \"SafeMath.sol\":1876:2074  function transferOwnership(address newOwner) public virtual onlyOwner {... */\n    tag_19:\n      callvalue\n      dup1\n      iszero\n      tag_103\n      jumpi\n      0x00\n      dup1\n      revert\n    tag_103:\n      pop\n      tag_104\n      0x04\n      dup1\n      calldatasize\n      sub\n      dup2\n      add\n      swap1\n      tag_105\n      swap2\n      swap1\n      tag_32\n      jump\t// in\n    tag_105:\n      tag_106\n      jump\t// in\n    tag_104:\n      stop\n        /* \"DEX2.sol\":1160:1181  address public router */\n    tag_20:\n      callvalue\n      dup1\n      iszero\n      tag_107\n      jumpi\n      0x00\n      dup1\n      revert\n    tag_107:\n      pop\n      tag_108\n      tag_109\n      jump\t// in\n    tag_108:\n      mload(0x40)\n      tag_110\n      swap2\n      swap1\n      tag_28\n      jump\t// in\n    tag_110:\n      mload(0x40)\n      dup1\n      swap2\n      sub\n      swap1\n      return\n        /* \"DEX2.sol\":1187:1206  address public weth */\n    tag_26:\n      0x04\n      0x00\n      swap1\n      sload\n      swap1\n      0x0100\n      exp\n      swap1\n      div\n      0xffffffffffffffffffffffffffffffffffffffff\n      and\n      dup2\n      jump\t// out\n        /* \"DEX2.sol\":4887:4991  function setFeeAccount(address _feeAccount) external onlyOwner {... */\n    tag_33:\n        /* \"SafeMath.sol\":1217:1229  _msgSender() */\n      tag_112\n        /* \"SafeMath.sol\":1217:1227  _msgSender */\n      tag_113\n        /* \"SafeMath.sol\":1217:1229  _msgSender() */\n      jump\t// in\n    tag_112:\n        /* \"SafeMath.sol\":1206:1229  owner() == _msgSender() */\n      0xffffffffffffffffffffffffffffffffffffffff\n      and\n        /* \"SafeMath.sol\":1206:1213  owner() */\n      tag_114\n        /* \"SafeMath.sol\":1206:1211  owner */\n      tag_57\n        /* \"SafeMath.sol\":1206:1213  owner() */\n      jump\t// in\n    tag_114:\n        /* \"SafeMath.sol\":1206:1229  owner() == _msgSender() */\n      0xffffffffffffffffffffffffffffffffffffffff\n      and\n      eq\n        /* \"SafeMath.sol\":1198:1266  require(owner() == _msgSender(), \"Ownable: caller is not the owner\") */\n      tag_115\n      jumpi\n      mload(0x40)\n      0x08c379a000000000000000000000000000000000000000000000000000000000\n      dup2\n      mstore\n      0x04\n      add\n      tag_116\n      swap1\n      tag_117\n      jump\t// in\n    tag_116:\n      mload(0x40)\n      dup1\n      swap2\n      sub\n      swap1\n      revert\n    tag_115:\n        /* \"DEX2.sol\":4973:4984  _feeAccount */\n      dup1\n        /* \"DEX2.sol\":4960:4970  feeAccount */\n      0x02\n      0x00\n        /* \"DEX2.sol\":4960:4984  feeAccount = _feeAccount */\n      0x0100\n      exp\n      dup2\n      sload\n      dup2\n      0xffffffffffffffffffffffffffffffffffffffff\n      mul\n      not\n      and\n      swap1\n      dup4\n      0xffffffffffffffffffffffffffffffffffffffff\n      and\n      mul\n      or\n      swap1\n      sstore\n      pop\n        /* \"DEX2.sol\":4887:4991  function setFeeAccount(address _feeAccount) external onlyOwner {... */\n      pop\n      jump\t// out\n        /* \"DEX2.sol\":1129:1154  address public feeAccount */\n    tag_36:\n      0x02\n      0x00\n      swap1\n      sload\n      swap1\n      0x0100\n      exp\n      swap1\n      div\n      0xffffffffffffffffffffffffffffffffffffffff\n      and\n      dup2\n      jump\t// out\n        /* \"DEX2.sol\":6009:6123  function emergencyWithdrawETH(uint _amount) external onlyOwner {... */\n    tag_42:\n        /* \"SafeMath.sol\":1217:1229  _msgSender() */\n      tag_120\n        /* \"SafeMath.sol\":1217:1227  _msgSender */\n      tag_113\n        /* \"SafeMath.sol\":1217:1229  _msgSender() */\n      jump\t// in\n    tag_120:\n        /* \"SafeMath.sol\":1206:1229  owner() == _msgSender() */\n      0xffffffffffffffffffffffffffffffffffffffff\n      and\n        /* \"SafeMath.sol\":1206:1213  owner() */\n      tag_121\n        /* \"SafeMath.sol\":1206:1211  owner */\n      tag_57\n        /* \"SafeMath.sol\":1206:1213  owner() */\n      jump\t// in\n    tag_121:\n        /* \"SafeMath.sol\":1206:1229  owner() == _msgSender() */\n      0xffffffffffffffffffffffffffffffffffffffff\n      and\n      eq\n        /* \"SafeMath.sol\":1198:1266  require(owner() == _msgSender(), \"Ownable: caller is not the owner\") */\n      tag_122\n      jumpi\n      mload(0x40)\n      0x08c379a000000000000000000000000000000000000000000000000000000000\n      dup2\n      mstore\n      0x04\n      add\n      tag_123\n      swap1\n      tag_117\n      jump\t// in\n    tag_123:\n      mload(0x40)\n      dup1\n      swap2\n      sub\n      swap1\n      revert\n    tag_122:\n        /* \"DEX2.sol\":6090:6097  owner() */\n      tag_125\n        /* \"DEX2.sol\":6090:6095  owner */\n      tag_57\n        /* \"DEX2.sol\":6090:6097  owner() */\n      jump\t// in\n    tag_125:\n        /* \"DEX2.sol\":6082:6107  payable(owner()).transfer */\n      0xffffffffffffffffffffffffffffffffffffffff\n      and\n        /* \"DEX2.sol\":6082:6116  payable(owner()).transfer(_amount) */\n      0x08fc\n        /* \"DEX2.sol\":6108:6115  _amount */\n      dup3\n        /* \"DEX2.sol\":6082:6116  payable(owner()).transfer(_amount) */\n      swap1\n      dup2\n      iszero\n      mul\n      swap1\n      mload(0x40)\n      0x00\n      mload(0x40)\n      dup1\n      dup4\n      sub\n      dup2\n      dup6\n      dup9\n      dup9\n      call\n      swap4\n      pop\n      pop\n      pop\n      pop\n      iszero\n      dup1\n      iszero\n      tag_127\n      jumpi\n      returndatasize\n      0x00\n      dup1\n      returndatacopy\n      revert(0x00, returndatasize)\n    tag_127:\n      pop\n        /* \"DEX2.sol\":6009:6123  function emergencyWithdrawETH(uint _amount) external onlyOwner {... */\n      pop\n      jump\t// out\n        /* \"SafeMath.sol\":1626:1727  function renounceOwnership() public virtual onlyOwner {... */\n    tag_45:\n        /* \"SafeMath.sol\":1217:1229  _msgSender() */\n      tag_129\n        /* \"SafeMath.sol\":1217:1227  _msgSender */\n      tag_113\n        /* \"SafeMath.sol\":1217:1229  _msgSender() */\n      jump\t// in\n    tag_129:\n        /* \"SafeMath.sol\":1206:1229  owner() == _msgSender() */\n      0xffffffffffffffffffffffffffffffffffffffff\n      and\n        /* \"SafeMath.sol\":1206:1213  owner() */\n      tag_130\n        /* \"SafeMath.sol\":1206:1211  owner */\n      tag_57\n        /* \"SafeMath.sol\":1206:1213  owner() */\n      jump\t// in\n    tag_130:\n        /* \"SafeMath.sol\":1206:1229  owner() == _msgSender() */\n      0xffffffffffffffffffffffffffffffffffffffff\n      and\n      eq\n        /* \"SafeMath.sol\":1198:1266  require(owner() == _msgSender(), \"Ownable: caller is not the owner\") */\n      tag_131\n      jumpi\n      mload(0x40)\n      0x08c379a000000000000000000000000000000000000000000000000000000000\n      dup2\n      mstore\n      0x04\n      add\n      tag_132\n      swap1\n      tag_117\n      jump\t// in\n    tag_132:\n      mload(0x40)\n      dup1\n      swap2\n      sub\n      swap1\n      revert\n    tag_131:\n        /* \"SafeMath.sol\":1690:1720  _transferOwnership(address(0)) */\n      tag_134\n        /* \"SafeMath.sol\":1717:1718  0 */\n      0x00\n        /* \"SafeMath.sol\":1690:1708  _transferOwnership */\n      tag_135\n        /* \"SafeMath.sol\":1690:1720  _transferOwnership(address(0)) */\n      jump\t// in\n    tag_134:\n        /* \"SafeMath.sol\":1626:1727  function renounceOwnership() public virtual onlyOwner {... */\n      jump\t// out\n        /* \"DEX2.sol\":4780:4881  function setFeePercent(uint _feePercent) external onlyOwner {... */\n    tag_49:\n        /* \"SafeMath.sol\":1217:1229  _msgSender() */\n      tag_137\n        /* \"SafeMath.sol\":1217:1227  _msgSender */\n      tag_113\n        /* \"SafeMath.sol\":1217:1229  _msgSender() */\n      jump\t// in\n    tag_137:\n        /* \"SafeMath.sol\":1206:1229  owner() == _msgSender() */\n      0xffffffffffffffffffffffffffffffffffffffff\n      and\n        /* \"SafeMath.sol\":1206:1213  owner() */\n      tag_138\n        /* \"SafeMath.sol\":1206:1211  owner */\n      tag_57\n        /* \"SafeMath.sol\":1206:1213  owner() */\n      jump\t// in\n    tag_138:\n        /* \"SafeMath.sol\":1206:1229  owner() == _msgSender() */\n      0xffffffffffffffffffffffffffffffffffffffff\n      and\n      eq\n        /* \"SafeMath.sol\":1198:1266  require(owner() == _msgSender(), \"Ownable: caller is not the owner\") */\n      tag_139\n      jumpi\n      mload(0x40)\n      0x08c379a000000000000000000000000000000000000000000000000000000000\n      dup2\n      mstore\n      0x04\n      add\n      tag_140\n      swap1\n      tag_117\n      jump\t// in\n    tag_140:\n      mload(0x40)\n      dup1\n      swap2\n      sub\n      swap1\n      revert\n    tag_139:\n        /* \"DEX2.sol\":4863:4874  _feePercent */\n      dup1\n        /* \"DEX2.sol\":4850:4860  feePercent */\n      0x01\n        /* \"DEX2.sol\":4850:4874  feePercent = _feePercent */\n      dup2\n      swap1\n      sstore\n      pop\n        /* \"DEX2.sol\":4780:4881  function setFeePercent(uint _feePercent) external onlyOwner {... */\n      pop\n      jump\t// out\n        /* \"DEX2.sol\":1086:1113  uint public feePercent = 25 */\n    tag_52:\n      sload(0x01)\n      dup2\n      jump\t// out\n        /* \"SafeMath.sol\":994:1079  function owner() public view virtual returns (address) {... */\n    tag_57:\n        /* \"SafeMath.sol\":1040:1047  address */\n      0x00\n        /* \"SafeMath.sol\":1066:1072  _owner */\n      dup1\n      0x00\n      swap1\n      sload\n      swap1\n      0x0100\n      exp\n      swap1\n      div\n      0xffffffffffffffffffffffffffffffffffffffff\n      and\n        /* \"SafeMath.sol\":1059:1072  return _owner */\n      swap1\n      pop\n        /* \"SafeMath.sol\":994:1079  function owner() public view virtual returns (address) {... */\n      swap1\n      jump\t// out\n        /* \"DEX2.sol\":5862:6003  function emergencyWithdraw(address _token, uint _amount) external onlyOwner {... */\n    tag_63:\n        /* \"SafeMath.sol\":1217:1229  _msgSender() */\n      tag_144\n        /* \"SafeMath.sol\":1217:1227  _msgSender */\n      tag_113\n        /* \"SafeMath.sol\":1217:1229  _msgSender() */\n      jump\t// in\n    tag_144:\n        /* \"SafeMath.sol\":1206:1229  owner() == _msgSender() */\n      0xffffffffffffffffffffffffffffffffffffffff\n      and\n        /* \"SafeMath.sol\":1206:1213  owner() */\n      tag_145\n        /* \"SafeMath.sol\":1206:1211  owner */\n      tag_57\n        /* \"SafeMath.sol\":1206:1213  owner() */\n      jump\t// in\n    tag_145:\n        /* \"SafeMath.sol\":1206:1229  owner() == _msgSender() */\n      0xffffffffffffffffffffffffffffffffffffffff\n      and\n      eq\n        /* \"SafeMath.sol\":1198:1266  require(owner() == _msgSender(), \"Ownable: caller is not the owner\") */\n      tag_146\n      jumpi\n      mload(0x40)\n      0x08c379a000000000000000000000000000000000000000000000000000000000\n      dup2\n      mstore\n      0x04\n      add\n      tag_147\n      swap1\n      tag_117\n      jump\t// in\n    tag_147:\n      mload(0x40)\n      dup1\n      swap2\n      sub\n      swap1\n      revert\n    tag_146:\n        /* \"DEX2.sol\":5948:5996  IERC20(_token).safeTransfer(msg.sender, _amount) */\n      tag_149\n        /* \"DEX2.sol\":5976:5986  msg.sender */\n      caller\n        /* \"DEX2.sol\":5988:5995  _amount */\n      dup3\n        /* \"DEX2.sol\":5955:5961  _token */\n      dup5\n        /* \"DEX2.sol\":5948:5975  IERC20(_token).safeTransfer */\n      0xffffffffffffffffffffffffffffffffffffffff\n      and\n      tag_150\n      swap1\n        /* \"DEX2.sol\":5948:5996  IERC20(_token).safeTransfer(msg.sender, _amount) */\n      swap3\n      swap2\n      swap1\n      0xffffffff\n      and\n      jump\t// in\n    tag_149:\n        /* \"DEX2.sol\":5862:6003  function emergencyWithdraw(address _token, uint _amount) external onlyOwner {... */\n      pop\n      pop\n      jump\t// out\n        /* \"DEX2.sol\":5649:5856  function approveTokens(address[]memory _tokens, uint[] memory _amounts) external onlyOwner {... */\n    tag_68:\n        /* \"SafeMath.sol\":1217:1229  _msgSender() */\n      tag_152\n        /* \"SafeMath.sol\":1217:1227  _msgSender */\n      tag_113\n        /* \"SafeMath.sol\":1217:1229  _msgSender() */\n      jump\t// in\n    tag_152:\n        /* \"SafeMath.sol\":1206:1229  owner() == _msgSender() */\n      0xffffffffffffffffffffffffffffffffffffffff\n      and\n        /* \"SafeMath.sol\":1206:1213  owner() */\n      tag_153\n        /* \"SafeMath.sol\":1206:1211  owner */\n      tag_57\n        /* \"SafeMath.sol\":1206:1213  owner() */\n      jump\t// in\n    tag_153:\n        /* \"SafeMath.sol\":1206:1229  owner() == _msgSender() */\n      0xffffffffffffffffffffffffffffffffffffffff\n      and\n      eq\n        /* \"SafeMath.sol\":1198:1266  require(owner() == _msgSender(), \"Ownable: caller is not the owner\") */\n      tag_154\n      jumpi\n      mload(0x40)\n      0x08c379a000000000000000000000000000000000000000000000000000000000\n      dup2\n      mstore\n      0x04\n      add\n      tag_155\n      swap1\n      tag_117\n      jump\t// in\n    tag_155:\n      mload(0x40)\n      dup1\n      swap2\n      sub\n      swap1\n      revert\n    tag_154:\n        /* \"DEX2.sol\":5755:5761  uint i */\n      0x00\n        /* \"DEX2.sol\":5750:5850  for (uint i = 0; i < _tokens.length; i++) {... */\n    tag_157:\n        /* \"DEX2.sol\":5771:5778  _tokens */\n      dup3\n        /* \"DEX2.sol\":5771:5785  _tokens.length */\n      mload\n        /* \"DEX2.sol\":5767:5768  i */\n      dup2\n        /* \"DEX2.sol\":5767:5785  i < _tokens.length */\n      lt\n        /* \"DEX2.sol\":5750:5850  for (uint i = 0; i < _tokens.length; i++) {... */\n      iszero\n      tag_158\n      jumpi\n        /* \"DEX2.sol\":5806:5839  _approve(_tokens[i], _amounts[i]) */\n      tag_160\n        /* \"DEX2.sol\":5815:5822  _tokens */\n      dup4\n        /* \"DEX2.sol\":5823:5824  i */\n      dup3\n        /* \"DEX2.sol\":5815:5825  _tokens[i] */\n      dup2\n      mload\n      dup2\n      lt\n      tag_161\n      jumpi\n      tag_162\n      tag_163\n      jump\t// in\n    tag_162:\n    tag_161:\n      0x20\n      mul\n      0x20\n      add\n      add\n      mload\n        /* \"DEX2.sol\":5827:5835  _amounts */\n      dup4\n        /* \"DEX2.sol\":5836:5837  i */\n      dup4\n        /* \"DEX2.sol\":5827:5838  _amounts[i] */\n      dup2\n      mload\n      dup2\n      lt\n      tag_164\n      jumpi\n      tag_165\n      tag_163\n      jump\t// in\n    tag_165:\n    tag_164:\n      0x20\n      mul\n      0x20\n      add\n      add\n      mload\n        /* \"DEX2.sol\":5806:5814  _approve */\n      tag_166\n        /* \"DEX2.sol\":5806:5839  _approve(_tokens[i], _amounts[i]) */\n      jump\t// in\n    tag_160:\n        /* \"DEX2.sol\":5787:5790  i++ */\n      dup1\n      dup1\n      0x01\n      add\n      swap2\n      pop\n      pop\n        /* \"DEX2.sol\":5750:5850  for (uint i = 0; i < _tokens.length; i++) {... */\n      jump(tag_157)\n    tag_158:\n      pop\n        /* \"DEX2.sol\":5649:5856  function approveTokens(address[]memory _tokens, uint[] memory _amounts) external onlyOwner {... */\n      pop\n      pop\n      jump\t// out\n        /* \"DEX2.sol\":1933:2572  function customSwapTokens(address _tokenA, address _tokenB, uint256 _amountIn, address[]memory path) external payable{... */\n    tag_72:\n        /* \"DEX2.sol\":2083:2084  0 */\n      0x00\n        /* \"DEX2.sol\":2064:2085  _tokenA == address(0) */\n      0xffffffffffffffffffffffffffffffffffffffff\n      and\n        /* \"DEX2.sol\":2064:2071  _tokenA */\n      dup5\n        /* \"DEX2.sol\":2064:2085  _tokenA == address(0) */\n      0xffffffffffffffffffffffffffffffffffffffff\n      and\n      sub\n        /* \"DEX2.sol\":2060:2504  if (_tokenA == address(0)) {... */\n      tag_168\n      jumpi\n        /* \"DEX2.sol\":2117:2121  path */\n      dup1\n        /* \"DEX2.sol\":2122:2123  0 */\n      0x00\n        /* \"DEX2.sol\":2117:2124  path[0] */\n      dup2\n      mload\n      dup2\n      lt\n      tag_169\n      jumpi\n      tag_170\n      tag_163\n      jump\t// in\n    tag_170:\n    tag_169:\n      0x20\n      mul\n      0x20\n      add\n      add\n      mload\n        /* \"DEX2.sol\":2109:2124  weth == path[0] */\n      0xffffffffffffffffffffffffffffffffffffffff\n      and\n        /* \"DEX2.sol\":2109:2113  weth */\n      0x04\n      0x00\n      swap1\n      sload\n      swap1\n      0x0100\n      exp\n      swap1\n      div\n      0xffffffffffffffffffffffffffffffffffffffff\n      and\n        /* \"DEX2.sol\":2109:2124  weth == path[0] */\n      0xffffffffffffffffffffffffffffffffffffffff\n      and\n      eq\n        /* \"DEX2.sol\":2109:2160  weth == path[0] && _tokenB == path[path.length - 1] */\n      dup1\n      iszero\n      tag_171\n      jumpi\n      pop\n        /* \"DEX2.sol\":2139:2143  path */\n      dup1\n        /* \"DEX2.sol\":2158:2159  1 */\n      0x01\n        /* \"DEX2.sol\":2144:2148  path */\n      dup3\n        /* \"DEX2.sol\":2144:2155  path.length */\n      mload\n        /* \"DEX2.sol\":2144:2159  path.length - 1 */\n      tag_172\n      swap2\n      swap1\n      tag_173\n      jump\t// in\n    tag_172:\n        /* \"DEX2.sol\":2139:2160  path[path.length - 1] */\n      dup2\n      mload\n      dup2\n      lt\n      tag_174\n      jumpi\n      tag_175\n      tag_163\n      jump\t// in\n    tag_175:\n    tag_174:\n      0x20\n      mul\n      0x20\n      add\n      add\n      mload\n        /* \"DEX2.sol\":2128:2160  _tokenB == path[path.length - 1] */\n      0xffffffffffffffffffffffffffffffffffffffff\n      and\n        /* \"DEX2.sol\":2128:2135  _tokenB */\n      dup4\n        /* \"DEX2.sol\":2128:2160  _tokenB == path[path.length - 1] */\n      0xffffffffffffffffffffffffffffffffffffffff\n      and\n      eq\n        /* \"DEX2.sol\":2109:2160  weth == path[0] && _tokenB == path[path.length - 1] */\n    tag_171:\n        /* \"DEX2.sol\":2101:2201  require(weth == path[0] && _tokenB == path[path.length - 1], \"SoleriumSWAP: Path must be specified\") */\n      tag_176\n      jumpi\n      mload(0x40)\n      0x08c379a000000000000000000000000000000000000000000000000000000000\n      dup2\n      mstore\n      0x04\n      add\n      tag_177\n      swap1\n      tag_178\n      jump\t// in\n    tag_177:\n      mload(0x40)\n      dup1\n      swap2\n      sub\n      swap1\n      revert\n    tag_176:\n        /* \"DEX2.sol\":2060:2504  if (_tokenA == address(0)) {... */\n      jump(tag_179)\n    tag_168:\n        /* \"DEX2.sol\":2241:2242  0 */\n      0x00\n        /* \"DEX2.sol\":2222:2243  _tokenB == address(0) */\n      0xffffffffffffffffffffffffffffffffffffffff\n      and\n        /* \"DEX2.sol\":2222:2229  _tokenB */\n      dup4\n        /* \"DEX2.sol\":2222:2243  _tokenB == address(0) */\n      0xffffffffffffffffffffffffffffffffffffffff\n      and\n      sub\n        /* \"DEX2.sol\":2218:2504  if (_tokenB == address(0)) {... */\n      tag_180\n      jumpi\n        /* \"DEX2.sol\":2278:2282  path */\n      dup1\n        /* \"DEX2.sol\":2283:2284  0 */\n      0x00\n        /* \"DEX2.sol\":2278:2285  path[0] */\n      dup2\n      mload\n      dup2\n      lt\n      tag_181\n      jumpi\n      tag_182\n      tag_163\n      jump\t// in\n    tag_182:\n    tag_181:\n      0x20\n      mul\n      0x20\n      add\n      add\n      mload\n        /* \"DEX2.sol\":2267:2285  _tokenA == path[0] */\n      0xffffffffffffffffffffffffffffffffffffffff\n      and\n        /* \"DEX2.sol\":2267:2274  _tokenA */\n      dup5\n        /* \"DEX2.sol\":2267:2285  _tokenA == path[0] */\n      0xffffffffffffffffffffffffffffffffffffffff\n      and\n      eq\n        /* \"DEX2.sol\":2267:2318  _tokenA == path[0] && weth == path[path.length - 1] */\n      dup1\n      iszero\n      tag_183\n      jumpi\n      pop\n        /* \"DEX2.sol\":2297:2301  path */\n      dup1\n        /* \"DEX2.sol\":2316:2317  1 */\n      0x01\n        /* \"DEX2.sol\":2302:2306  path */\n      dup3\n        /* \"DEX2.sol\":2302:2313  path.length */\n      mload\n        /* \"DEX2.sol\":2302:2317  path.length - 1 */\n      tag_184\n      swap2\n      swap1\n      tag_173\n      jump\t// in\n    tag_184:\n        /* \"DEX2.sol\":2297:2318  path[path.length - 1] */\n      dup2\n      mload\n      dup2\n      lt\n      tag_185\n      jumpi\n      tag_186\n      tag_163\n      jump\t// in\n    tag_186:\n    tag_185:\n      0x20\n      mul\n      0x20\n      add\n      add\n      mload\n        /* \"DEX2.sol\":2289:2318  weth == path[path.length - 1] */\n      0xffffffffffffffffffffffffffffffffffffffff\n      and\n        /* \"DEX2.sol\":2289:2293  weth */\n      0x04\n      0x00\n      swap1\n      sload\n      swap1\n      0x0100\n      exp\n      swap1\n      div\n      0xffffffffffffffffffffffffffffffffffffffff\n      and\n        /* \"DEX2.sol\":2289:2318  weth == path[path.length - 1] */\n      0xffffffffffffffffffffffffffffffffffffffff\n      and\n      eq\n        /* \"DEX2.sol\":2267:2318  _tokenA == path[0] && weth == path[path.length - 1] */\n    tag_183:\n        /* \"DEX2.sol\":2259:2359  require(_tokenA == path[0] && weth == path[path.length - 1], \"SoleriumSWAP: Path must be specified\") */\n      tag_187\n      jumpi\n      mload(0x40)\n      0x08c379a000000000000000000000000000000000000000000000000000000000\n      dup2\n      mstore\n      0x04\n      add\n      tag_188\n      swap1\n      tag_178\n      jump\t// in\n    tag_188:\n      mload(0x40)\n      dup1\n      swap2\n      sub\n      swap1\n      revert\n    tag_187:\n        /* \"DEX2.sol\":2218:2504  if (_tokenB == address(0)) {... */\n      jump(tag_189)\n    tag_180:\n        /* \"DEX2.sol\":2409:2413  path */\n      dup1\n        /* \"DEX2.sol\":2414:2415  0 */\n      0x00\n        /* \"DEX2.sol\":2409:2416  path[0] */\n      dup2\n      mload\n      dup2\n      lt\n      tag_190\n      jumpi\n      tag_191\n      tag_163\n      jump\t// in\n    tag_191:\n    tag_190:\n      0x20\n      mul\n      0x20\n      add\n      add\n      mload\n        /* \"DEX2.sol\":2398:2416  _tokenA == path[0] */\n      0xffffffffffffffffffffffffffffffffffffffff\n      and\n        /* \"DEX2.sol\":2398:2405  _tokenA */\n      dup5\n        /* \"DEX2.sol\":2398:2416  _tokenA == path[0] */\n      0xffffffffffffffffffffffffffffffffffffffff\n      and\n      eq\n        /* \"DEX2.sol\":2398:2452  _tokenA == path[0] && _tokenB == path[path.length - 1] */\n      dup1\n      iszero\n      tag_192\n      jumpi\n      pop\n        /* \"DEX2.sol\":2431:2435  path */\n      dup1\n        /* \"DEX2.sol\":2450:2451  1 */\n      0x01\n        /* \"DEX2.sol\":2436:2440  path */\n      dup3\n        /* \"DEX2.sol\":2436:2447  path.length */\n      mload\n        /* \"DEX2.sol\":2436:2451  path.length - 1 */\n      tag_193\n      swap2\n      swap1\n      tag_173\n      jump\t// in\n    tag_193:\n        /* \"DEX2.sol\":2431:2452  path[path.length - 1] */\n      dup2\n      mload\n      dup2\n      lt\n      tag_194\n      jumpi\n      tag_195\n      tag_163\n      jump\t// in\n    tag_195:\n    tag_194:\n      0x20\n      mul\n      0x20\n      add\n      add\n      mload\n        /* \"DEX2.sol\":2420:2452  _tokenB == path[path.length - 1] */\n      0xffffffffffffffffffffffffffffffffffffffff\n      and\n        /* \"DEX2.sol\":2420:2427  _tokenB */\n      dup4\n        /* \"DEX2.sol\":2420:2452  _tokenB == path[path.length - 1] */\n      0xffffffffffffffffffffffffffffffffffffffff\n      and\n      eq\n        /* \"DEX2.sol\":2398:2452  _tokenA == path[0] && _tokenB == path[path.length - 1] */\n    tag_192:\n        /* \"DEX2.sol\":2390:2493  require(_tokenA == path[0] && _tokenB == path[path.length - 1], \"SoleriumSWAP: Path must be specified\") */\n      tag_196\n      jumpi\n      mload(0x40)\n      0x08c379a000000000000000000000000000000000000000000000000000000000\n      dup2\n      mstore\n      0x04\n      add\n      tag_197\n      swap1\n      tag_178\n      jump\t// in\n    tag_197:\n      mload(0x40)\n      dup1\n      swap2\n      sub\n      swap1\n      revert\n    tag_196:\n        /* \"DEX2.sol\":2218:2504  if (_tokenB == address(0)) {... */\n    tag_189:\n        /* \"DEX2.sol\":2060:2504  if (_tokenA == address(0)) {... */\n    tag_179:\n        /* \"DEX2.sol\":2513:2565  _proceedToUniswap(_tokenA, _tokenB, _amountIn, path) */\n      tag_198\n        /* \"DEX2.sol\":2531:2538  _tokenA */\n      dup5\n        /* \"DEX2.sol\":2540:2547  _tokenB */\n      dup5\n        /* \"DEX2.sol\":2549:2558  _amountIn */\n      dup5\n        /* \"DEX2.sol\":2560:2564  path */\n      dup5\n        /* \"DEX2.sol\":2513:2530  _proceedToUniswap */\n      tag_199\n        /* \"DEX2.sol\":2513:2565  _proceedToUniswap(_tokenA, _tokenB, _amountIn, path) */\n      jump\t// in\n    tag_198:\n        /* \"DEX2.sol\":1933:2572  function customSwapTokens(address _tokenA, address _tokenB, uint256 _amountIn, address[]memory path) external payable{... */\n      pop\n      pop\n      pop\n      pop\n      jump\t// out\n        /* \"DEX2.sol\":5446:5643  function removeWhitelistedTokens(address[]memory _tokens) external onlyOwner {... */\n    tag_77:\n        /* \"SafeMath.sol\":1217:1229  _msgSender() */\n      tag_201\n        /* \"SafeMath.sol\":1217:1227  _msgSender */\n      tag_113\n        /* \"SafeMath.sol\":1217:1229  _msgSender() */\n      jump\t// in\n    tag_201:\n        /* \"SafeMath.sol\":1206:1229  owner() == _msgSender() */\n      0xffffffffffffffffffffffffffffffffffffffff\n      and\n        /* \"SafeMath.sol\":1206:1213  owner() */\n      tag_202\n        /* \"SafeMath.sol\":1206:1211  owner */\n      tag_57\n        /* \"SafeMath.sol\":1206:1213  owner() */\n      jump\t// in\n    tag_202:\n        /* \"SafeMath.sol\":1206:1229  owner() == _msgSender() */\n      0xffffffffffffffffffffffffffffffffffffffff\n      and\n      eq\n        /* \"SafeMath.sol\":1198:1266  require(owner() == _msgSender(), \"Ownable: caller is not the owner\") */\n      tag_203\n      jumpi\n      mload(0x40)\n      0x08c379a000000000000000000000000000000000000000000000000000000000\n      dup2\n      mstore\n      0x04\n      add\n      tag_204\n      swap1\n      tag_117\n      jump\t// in\n    tag_204:\n      mload(0x40)\n      dup1\n      swap2\n      sub\n      swap1\n      revert\n    tag_203:\n        /* \"DEX2.sol\":5538:5544  uint i */\n      0x00\n        /* \"DEX2.sol\":5533:5637  for (uint i = 0; i < _tokens.length; i++) {... */\n    tag_206:\n        /* \"DEX2.sol\":5554:5561  _tokens */\n      dup2\n        /* \"DEX2.sol\":5554:5568  _tokens.length */\n      mload\n        /* \"DEX2.sol\":5550:5551  i */\n      dup2\n        /* \"DEX2.sol\":5550:5568  i < _tokens.length */\n      lt\n        /* \"DEX2.sol\":5533:5637  for (uint i = 0; i < _tokens.length; i++) {... */\n      iszero\n      tag_207\n      jumpi\n        /* \"DEX2.sol\":5621:5626  false */\n      0x00\n        /* \"DEX2.sol\":5589:5606  whitelistedTokens */\n      0x05\n        /* \"DEX2.sol\":5589:5618  whitelistedTokens[_tokens[i]] */\n      0x00\n        /* \"DEX2.sol\":5607:5614  _tokens */\n      dup5\n        /* \"DEX2.sol\":5615:5616  i */\n      dup5\n        /* \"DEX2.sol\":5607:5617  _tokens[i] */\n      dup2\n      mload\n      dup2\n      lt\n      tag_209\n      jumpi\n      tag_210\n      tag_163\n      jump\t// in\n    tag_210:\n    tag_209:\n      0x20\n      mul\n      0x20\n      add\n      add\n      mload\n        /* \"DEX2.sol\":5589:5618  whitelistedTokens[_tokens[i]] */\n      0xffffffffffffffffffffffffffffffffffffffff\n      and\n      0xffffffffffffffffffffffffffffffffffffffff\n      and\n      dup2\n      mstore\n      0x20\n      add\n      swap1\n      dup2\n      mstore\n      0x20\n      add\n      0x00\n      keccak256\n      0x00\n        /* \"DEX2.sol\":5589:5626  whitelistedTokens[_tokens[i]] = false */\n      0x0100\n      exp\n      dup2\n      sload\n      dup2\n      0xff\n      mul\n      not\n      and\n      swap1\n      dup4\n      iszero\n      iszero\n      mul\n      or\n      swap1\n      sstore\n      pop\n        /* \"DEX2.sol\":5570:5573  i++ */\n      dup1\n      dup1\n      0x01\n      add\n      swap2\n      pop\n      pop\n        /* \"DEX2.sol\":5533:5637  for (uint i = 0; i < _tokens.length; i++) {... */\n      jump(tag_206)\n    tag_207:\n      pop\n        /* \"DEX2.sol\":5446:5643  function removeWhitelistedTokens(address[]memory _tokens) external onlyOwner {... */\n      pop\n      jump\t// out\n        /* \"DEX2.sol\":5132:5440  function addWhitelistedTokens(address[]memory _tokens) external onlyOwner {... */\n    tag_81:\n        /* \"SafeMath.sol\":1217:1229  _msgSender() */\n      tag_212\n        /* \"SafeMath.sol\":1217:1227  _msgSender */\n      tag_113\n        /* \"SafeMath.sol\":1217:1229  _msgSender() */\n      jump\t// in\n    tag_212:\n        /* \"SafeMath.sol\":1206:1229  owner() == _msgSender() */\n      0xffffffffffffffffffffffffffffffffffffffff\n      and\n        /* \"SafeMath.sol\":1206:1213  owner() */\n      tag_213\n        /* \"SafeMath.sol\":1206:1211  owner */\n      tag_57\n        /* \"SafeMath.sol\":1206:1213  owner() */\n      jump\t// in\n    tag_213:\n        /* \"SafeMath.sol\":1206:1229  owner() == _msgSender() */\n      0xffffffffffffffffffffffffffffffffffffffff\n      and\n      eq\n        /* \"SafeMath.sol\":1198:1266  require(owner() == _msgSender(), \"Ownable: caller is not the owner\") */\n      tag_214\n      jumpi\n      mload(0x40)\n      0x08c379a000000000000000000000000000000000000000000000000000000000\n      dup2\n      mstore\n      0x04\n      add\n      tag_215\n      swap1\n      tag_117\n      jump\t// in\n    tag_215:\n      mload(0x40)\n      dup1\n      swap2\n      sub\n      swap1\n      revert\n    tag_214:\n        /* \"DEX2.sol\":5221:5227  uint i */\n      0x00\n        /* \"DEX2.sol\":5216:5434  for (uint i = 0; i < _tokens.length; i++) {... */\n    tag_217:\n        /* \"DEX2.sol\":5237:5244  _tokens */\n      dup2\n        /* \"DEX2.sol\":5237:5251  _tokens.length */\n      mload\n        /* \"DEX2.sol\":5233:5234  i */\n      dup2\n        /* \"DEX2.sol\":5233:5251  i < _tokens.length */\n      lt\n        /* \"DEX2.sol\":5216:5434  for (uint i = 0; i < _tokens.length; i++) {... */\n      iszero\n      tag_218\n      jumpi\n        /* \"DEX2.sol\":5304:5308  true */\n      0x01\n        /* \"DEX2.sol\":5272:5289  whitelistedTokens */\n      0x05\n        /* \"DEX2.sol\":5272:5301  whitelistedTokens[_tokens[i]] */\n      0x00\n        /* \"DEX2.sol\":5290:5297  _tokens */\n      dup5\n        /* \"DEX2.sol\":5298:5299  i */\n      dup5\n        /* \"DEX2.sol\":5290:5300  _tokens[i] */\n      dup2\n      mload\n      dup2\n      lt\n      tag_220\n      jumpi\n      tag_221\n      tag_163\n      jump\t// in\n    tag_221:\n    tag_220:\n      0x20\n      mul\n      0x20\n      add\n      add\n      mload\n        /* \"DEX2.sol\":5272:5301  whitelistedTokens[_tokens[i]] */\n      0xffffffffffffffffffffffffffffffffffffffff\n      and\n      0xffffffffffffffffffffffffffffffffffffffff\n      and\n      dup2\n      mstore\n      0x20\n      add\n      swap1\n      dup2\n      mstore\n      0x20\n      add\n      0x00\n      keccak256\n      0x00\n        /* \"DEX2.sol\":5272:5308  whitelistedTokens[_tokens[i]] = true */\n      0x0100\n      exp\n      dup2\n      sload\n      dup2\n      0xff\n      mul\n      not\n      and\n      swap1\n      dup4\n      iszero\n      iszero\n      mul\n      or\n      swap1\n      sstore\n      pop\n        /* \"DEX2.sol\":5348:5349  0 */\n      0x00\n        /* \"DEX2.sol\":5326:5350  _tokens[i] != address(0) */\n      0xffffffffffffffffffffffffffffffffffffffff\n      and\n        /* \"DEX2.sol\":5326:5333  _tokens */\n      dup3\n        /* \"DEX2.sol\":5334:5335  i */\n      dup3\n        /* \"DEX2.sol\":5326:5336  _tokens[i] */\n      dup2\n      mload\n      dup2\n      lt\n      tag_222\n      jumpi\n      tag_223\n      tag_163\n      jump\t// in\n    tag_223:\n    tag_222:\n      0x20\n      mul\n      0x20\n      add\n      add\n      mload\n        /* \"DEX2.sol\":5326:5350  _tokens[i] != address(0) */\n      0xffffffffffffffffffffffffffffffffffffffff\n      and\n      eq\n        /* \"DEX2.sol\":5322:5424  if (_tokens[i] != address(0)) {... */\n      tag_224\n      jumpi\n        /* \"DEX2.sol\":5370:5409  _approve(_tokens[i], type(uint256).max) */\n      tag_225\n        /* \"DEX2.sol\":5379:5386  _tokens */\n      dup3\n        /* \"DEX2.sol\":5387:5388  i */\n      dup3\n        /* \"DEX2.sol\":5379:5389  _tokens[i] */\n      dup2\n      mload\n      dup2\n      lt\n      tag_226\n      jumpi\n      tag_227\n      tag_163\n      jump\t// in\n    tag_227:\n    tag_226:\n      0x20\n      mul\n      0x20\n      add\n      add\n      mload\n        /* \"DEX2.sol\":5391:5408  type(uint256).max */\n      0xffffffffffffffffffffffffffffffffffffffffffffffffffffffffffffffff\n        /* \"DEX2.sol\":5370:5378  _approve */\n      tag_166\n        /* \"DEX2.sol\":5370:5409  _approve(_tokens[i], type(uint256).max) */\n      jump\t// in\n    tag_225:\n        /* \"DEX2.sol\":5322:5424  if (_tokens[i] != address(0)) {... */\n    tag_224:\n        /* \"DEX2.sol\":5253:5256  i++ */\n      dup1\n      dup1\n      0x01\n      add\n      swap2\n      pop\n      pop\n        /* \"DEX2.sol\":5216:5434  for (uint i = 0; i < _tokens.length; i++) {... */\n      jump(tag_217)\n    tag_218:\n      pop\n        /* \"DEX2.sol\":5132:5440  function addWhitelistedTokens(address[]memory _tokens) external onlyOwner {... */\n      pop\n      jump\t// out\n        /* \"DEX2.sol\":4530:4774  function getOutputTokenAmount(uint inputAmount, address[]memory path) external view returns (uint outputAmount) {... */\n    tag_86:\n        /* \"DEX2.sol\":4623:4640  uint outputAmount */\n      0x00\n        /* \"DEX2.sol\":4652:4672  uint[]memory outputs */\n      dup1\n        /* \"DEX2.sol\":4683:4689  router */\n      0x03\n      0x00\n      swap1\n      sload\n      swap1\n      0x0100\n      exp\n      swap1\n      div\n      0xffffffffffffffffffffffffffffffffffffffff\n      and\n        /* \"DEX2.sol\":4675:4704  IRouter(router).getAmountsOut */\n      0xffffffffffffffffffffffffffffffffffffffff\n      and\n      0xd06ca61f\n        /* \"DEX2.sol\":4705:4716  inputAmount */\n      dup6\n        /* \"DEX2.sol\":4718:4722  path */\n      dup6\n        /* \"DEX2.sol\":4675:4723  IRouter(router).getAmountsOut(inputAmount, path) */\n      mload(0x40)\n      dup4\n      0xffffffff\n      and\n      0xe0\n      shl\n      dup2\n      mstore\n      0x04\n      add\n      tag_229\n      swap3\n      swap2\n      swap1\n      tag_230\n      jump\t// in\n    tag_229:\n      0x00\n      mload(0x40)\n      dup1\n      dup4\n      sub\n      dup2\n      dup7\n      gas\n      staticcall\n      iszero\n      dup1\n      iszero\n      tag_232\n      jumpi\n      returndatasize\n      0x00\n      dup1\n      returndatacopy\n      revert(0x00, returndatasize)\n    tag_232:\n      pop\n      pop\n      pop\n      pop\n      mload(0x40)\n      returndatasize\n      0x00\n      dup3\n      returndatacopy\n      returndatasize\n      not(0x1f)\n      0x1f\n      dup3\n      add\n      and\n      dup3\n      add\n      dup1\n      0x40\n      mstore\n      pop\n      dup2\n      add\n      swap1\n      tag_233\n      swap2\n      swap1\n      tag_234\n      jump\t// in\n    tag_233:\n        /* \"DEX2.sol\":4652:4723  uint[]memory outputs = IRouter(router).getAmountsOut(inputAmount, path) */\n      swap1\n      pop\n        /* \"DEX2.sol\":4740:4747  outputs */\n      dup1\n        /* \"DEX2.sol\":4765:4766  1 */\n      0x01\n        /* \"DEX2.sol\":4748:4755  outputs */\n      dup3\n        /* \"DEX2.sol\":4748:4762  outputs.length */\n      mload\n        /* \"DEX2.sol\":4748:4766  outputs.length - 1 */\n      tag_235\n      swap2\n      swap1\n      tag_173\n      jump\t// in\n    tag_235:\n        /* \"DEX2.sol\":4740:4767  outputs[outputs.length - 1] */\n      dup2\n      mload\n      dup2\n      lt\n      tag_236\n      jumpi\n      tag_237\n      tag_163\n      jump\t// in\n    tag_237:\n    tag_236:\n      0x20\n      mul\n      0x20\n      add\n      add\n      mload\n        /* \"DEX2.sol\":4733:4767  return outputs[outputs.length - 1] */\n      swap2\n      pop\n      pop\n        /* \"DEX2.sol\":4530:4774  function getOutputTokenAmount(uint inputAmount, address[]memory path) external view returns (uint outputAmount) {... */\n      swap3\n      swap2\n      pop\n      pop\n      jump\t// out\n        /* \"DEX2.sol\":1213:1262  mapping(address => bool) public whitelistedTokens */\n    tag_91:\n      mstore(0x20, 0x05)\n      dup1\n      0x00\n      mstore\n      keccak256(0x00, 0x40)\n      0x00\n      swap2\n      pop\n      sload\n      swap1\n      0x0100\n      exp\n      swap1\n      div\n      0xff\n      and\n      dup2\n      jump\t// out\n        /* \"DEX2.sol\":4997:5126  function setRouterweth(address _router, address _weth) external onlyOwner {... */\n    tag_98:\n        /* \"SafeMath.sol\":1217:1229  _msgSender() */\n      tag_239\n        /* \"SafeMath.sol\":1217:1227  _msgSender */\n      tag_113\n        /* \"SafeMath.sol\":1217:1229  _msgSender() */\n      jump\t// in\n    tag_239:\n        /* \"SafeMath.sol\":1206:1229  owner() == _msgSender() */\n      0xffffffffffffffffffffffffffffffffffffffff\n      and\n        /* \"SafeMath.sol\":1206:1213  owner() */\n      tag_240\n        /* \"SafeMath.sol\":1206:1211  owner */\n      tag_57\n        /* \"SafeMath.sol\":1206:1213  owner() */\n      jump\t// in\n    tag_240:\n        /* \"SafeMath.sol\":1206:1229  owner() == _msgSender() */\n      0xffffffffffffffffffffffffffffffffffffffff\n      and\n      eq\n        /* \"SafeMath.sol\":1198:1266  require(owner() == _msgSender(), \"Ownable: caller is not the owner\") */\n      tag_241\n      jumpi\n      mload(0x40)\n      0x08c379a000000000000000000000000000000000000000000000000000000000\n      dup2\n      mstore\n      0x04\n      add\n      tag_242\n      swap1\n      tag_117\n      jump\t// in\n    tag_242:\n      mload(0x40)\n      dup1\n      swap2\n      sub\n      swap1\n      revert\n    tag_241:\n        /* \"DEX2.sol\":5090:5097  _router */\n      dup2\n        /* \"DEX2.sol\":5081:5087  router */\n      0x03\n      0x00\n        /* \"DEX2.sol\":5081:5097  router = _router */\n      0x0100\n      exp\n      dup2\n      sload\n      dup2\n      0xffffffffffffffffffffffffffffffffffffffff\n      mul\n      not\n      and\n      swap1\n      dup4\n      0xffffffffffffffffffffffffffffffffffffffff\n      and\n      mul\n      or\n      swap1\n      sstore\n      pop\n        /* \"DEX2.sol\":5114:5119  _weth */\n      dup1\n        /* \"DEX2.sol\":5107:5111  weth */\n      0x04\n      0x00\n        /* \"DEX2.sol\":5107:5119  weth = _weth */\n      0x0100\n      exp\n      dup2\n      sload\n      dup2\n      0xffffffffffffffffffffffffffffffffffffffff\n      mul\n      not\n      and\n      swap1\n      dup4\n      0xffffffffffffffffffffffffffffffffffffffff\n      and\n      mul\n      or\n      swap1\n      sstore\n      pop\n        /* \"DEX2.sol\":4997:5126  function setRouterweth(address _router, address _weth) external onlyOwner {... */\n      pop\n      pop\n      jump\t// out\n        /* \"DEX2.sol\":1429:1927  function swapTokens(address _tokenA, address _tokenB, uint256 _amountIn) external payable {... */\n    tag_102:\n        /* \"DEX2.sol\":1529:1550  address[] memory path */\n      0x00\n        /* \"DEX2.sol\":1567:1568  2 */\n      0x02\n        /* \"DEX2.sol\":1553:1569  new address[](2) */\n      0xffffffffffffffff\n      dup2\n      gt\n      iszero\n      tag_245\n      jumpi\n      tag_246\n      tag_247\n      jump\t// in\n    tag_246:\n    tag_245:\n      mload(0x40)\n      swap1\n      dup1\n      dup3\n      mstore\n      dup1\n      0x20\n      mul\n      0x20\n      add\n      dup3\n      add\n      0x40\n      mstore\n      dup1\n      iszero\n      tag_248\n      jumpi\n      dup2\n      0x20\n      add\n      0x20\n      dup3\n      mul\n      dup1\n      calldatasize\n      dup4\n      calldatacopy\n      dup1\n      dup3\n      add\n      swap2\n      pop\n      pop\n      swap1\n      pop\n    tag_248:\n      pop\n        /* \"DEX2.sol\":1529:1569  address[] memory path = new address[](2) */\n      swap1\n      pop\n        /* \"DEX2.sol\":1602:1603  0 */\n      0x00\n        /* \"DEX2.sol\":1583:1604  _tokenA == address(0) */\n      0xffffffffffffffffffffffffffffffffffffffff\n      and\n        /* \"DEX2.sol\":1583:1590  _tokenA */\n      dup5\n        /* \"DEX2.sol\":1583:1604  _tokenA == address(0) */\n      0xffffffffffffffffffffffffffffffffffffffff\n      and\n      sub\n        /* \"DEX2.sol\":1579:1858  if (_tokenA == address(0)) {... */\n      tag_249\n      jumpi\n        /* \"DEX2.sol\":1630:1634  weth */\n      0x04\n      0x00\n      swap1\n      sload\n      swap1\n      0x0100\n      exp\n      swap1\n      div\n      0xffffffffffffffffffffffffffffffffffffffff\n      and\n        /* \"DEX2.sol\":1620:1624  path */\n      dup2\n        /* \"DEX2.sol\":1625:1626  0 */\n      0x00\n        /* \"DEX2.sol\":1620:1627  path[0] */\n      dup2\n      mload\n      dup2\n      lt\n      tag_250\n      jumpi\n      tag_251\n      tag_163\n      jump\t// in\n    tag_251:\n    tag_250:\n      0x20\n      mul\n      0x20\n      add\n      add\n        /* \"DEX2.sol\":1620:1634  path[0] = weth */\n      swap1\n      0xffffffffffffffffffffffffffffffffffffffff\n      and\n      swap1\n      dup2\n      0xffffffffffffffffffffffffffffffffffffffff\n      and\n      dup2\n      mstore\n      pop\n      pop\n        /* \"DEX2.sol\":1658:1665  _tokenB */\n      dup3\n        /* \"DEX2.sol\":1648:1652  path */\n      dup2\n        /* \"DEX2.sol\":1653:1654  1 */\n      0x01\n        /* \"DEX2.sol\":1648:1655  path[1] */\n      dup2\n      mload\n      dup2\n      lt\n      tag_252\n      jumpi\n      tag_253\n      tag_163\n      jump\t// in\n    tag_253:\n    tag_252:\n      0x20\n      mul\n      0x20\n      add\n      add\n        /* \"DEX2.sol\":1648:1665  path[1] = _tokenB */\n      swap1\n      0xffffffffffffffffffffffffffffffffffffffff\n      and\n      swap1\n      dup2\n      0xffffffffffffffffffffffffffffffffffffffff\n      and\n      dup2\n      mstore\n      pop\n      pop\n        /* \"DEX2.sol\":1579:1858  if (_tokenA == address(0)) {... */\n      jump(tag_254)\n    tag_249:\n        /* \"DEX2.sol\":1705:1706  0 */\n      0x00\n        /* \"DEX2.sol\":1686:1707  _tokenB == address(0) */\n      0xffffffffffffffffffffffffffffffffffffffff\n      and\n        /* \"DEX2.sol\":1686:1693  _tokenB */\n      dup4\n        /* \"DEX2.sol\":1686:1707  _tokenB == address(0) */\n      0xffffffffffffffffffffffffffffffffffffffff\n      and\n      sub\n        /* \"DEX2.sol\":1682:1858  if (_tokenB == address(0)) {... */\n      tag_255\n      jumpi\n        /* \"DEX2.sol\":1733:1740  _tokenA */\n      dup4\n        /* \"DEX2.sol\":1723:1727  path */\n      dup2\n        /* \"DEX2.sol\":1728:1729  0 */\n      0x00\n        /* \"DEX2.sol\":1723:1730  path[0] */\n      dup2\n      mload\n      dup2\n      lt\n      tag_256\n      jumpi\n      tag_257\n      tag_163\n      jump\t// in\n    tag_257:\n    tag_256:\n      0x20\n      mul\n      0x20\n      add\n      add\n        /* \"DEX2.sol\":1723:1740  path[0] = _tokenA */\n      swap1\n      0xffffffffffffffffffffffffffffffffffffffff\n      and\n      swap1\n      dup2\n      0xffffffffffffffffffffffffffffffffffffffff\n      and\n      dup2\n      mstore\n      pop\n      pop\n        /* \"DEX2.sol\":1764:1768  weth */\n      0x04\n      0x00\n      swap1\n      sload\n      swap1\n      0x0100\n      exp\n      swap1\n      div\n      0xffffffffffffffffffffffffffffffffffffffff\n      and\n        /* \"DEX2.sol\":1754:1758  path */\n      dup2\n        /* \"DEX2.sol\":1759:1760  1 */\n      0x01\n        /* \"DEX2.sol\":1754:1761  path[1] */\n      dup2\n      mload\n      dup2\n      lt\n      tag_258\n      jumpi\n      tag_259\n      tag_163\n      jump\t// in\n    tag_259:\n    tag_258:\n      0x20\n      mul\n      0x20\n      add\n      add\n        /* \"DEX2.sol\":1754:1768  path[1] = weth */\n      swap1\n      0xffffffffffffffffffffffffffffffffffffffff\n      and\n      swap1\n      dup2\n      0xffffffffffffffffffffffffffffffffffffffff\n      and\n      dup2\n      mstore\n      pop\n      pop\n        /* \"DEX2.sol\":1682:1858  if (_tokenB == address(0)) {... */\n      jump(tag_260)\n    tag_255:\n        /* \"DEX2.sol\":1809:1816  _tokenA */\n      dup4\n        /* \"DEX2.sol\":1799:1803  path */\n      dup2\n        /* \"DEX2.sol\":1804:1805  0 */\n      0x00\n        /* \"DEX2.sol\":1799:1806  path[0] */\n      dup2\n      mload\n      dup2\n      lt\n      tag_261\n      jumpi\n      tag_262\n      tag_163\n      jump\t// in\n    tag_262:\n    tag_261:\n      0x20\n      mul\n      0x20\n      add\n      add\n        /* \"DEX2.sol\":1799:1816  path[0] = _tokenA */\n      swap1\n      0xffffffffffffffffffffffffffffffffffffffff\n      and\n      swap1\n      dup2\n      0xffffffffffffffffffffffffffffffffffffffff\n      and\n      dup2\n      mstore\n      pop\n      pop\n        /* \"DEX2.sol\":1840:1847  _tokenB */\n      dup3\n        /* \"DEX2.sol\":1830:1834  path */\n      dup2\n        /* \"DEX2.sol\":1835:1836  1 */\n      0x01\n        /* \"DEX2.sol\":1830:1837  path[1] */\n      dup2\n      mload\n      dup2\n      lt\n      tag_263\n      jumpi\n      tag_264\n      tag_163\n      jump\t// in\n    tag_264:\n    tag_263:\n      0x20\n      mul\n      0x20\n      add\n      add\n        /* \"DEX2.sol\":1830:1847  path[1] = _tokenB */\n      swap1\n      0xffffffffffffffffffffffffffffffffffffffff\n      and\n      swap1\n      dup2\n      0xffffffffffffffffffffffffffffffffffffffff\n      and\n      dup2\n      mstore\n      pop\n      pop\n        /* \"DEX2.sol\":1682:1858  if (_tokenB == address(0)) {... */\n    tag_260:\n        /* \"DEX2.sol\":1579:1858  if (_tokenA == address(0)) {... */\n    tag_254:\n        /* \"DEX2.sol\":1868:1920  _proceedToUniswap(_tokenA, _tokenB, _amountIn, path) */\n      tag_265\n        /* \"DEX2.sol\":1886:1893  _tokenA */\n      dup5\n        /* \"DEX2.sol\":1895:1902  _tokenB */\n      dup5\n        /* \"DEX2.sol\":1904:1913  _amountIn */\n      dup5\n        /* \"DEX2.sol\":1915:1919  path */\n      dup5\n        /* \"DEX2.sol\":1868:1885  _proceedToUniswap */\n      tag_199\n        /* \"DEX2.sol\":1868:1920  _proceedToUniswap(_tokenA, _tokenB, _amountIn, path) */\n      jump\t// in\n    tag_265:\n        /* \"DEX2.sol\":1519:1927  {... */\n      pop\n        /* \"DEX2.sol\":1429:1927  function swapTokens(address _tokenA, address _tokenB, uint256 _amountIn) external payable {... */\n      pop\n      pop\n      pop\n      jump\t// out\n        /* \"SafeMath.sol\":1876:2074  function transferOwnership(address newOwner) public virtual onlyOwner {... */\n    tag_106:\n        /* \"SafeMath.sol\":1217:1229  _msgSender() */\n      tag_267\n        /* \"SafeMath.sol\":1217:1227  _msgSender */\n      tag_113\n        /* \"SafeMath.sol\":1217:1229  _msgSender() */\n      jump\t// in\n    tag_267:\n        /* \"SafeMath.sol\":1206:1229  owner() == _msgSender() */\n      0xffffffffffffffffffffffffffffffffffffffff\n      and\n        /* \"SafeMath.sol\":1206:1213  owner() */\n      tag_268\n        /* \"SafeMath.sol\":1206:1211  owner */\n      tag_57\n        /* \"SafeMath.sol\":1206:1213  owner() */\n      jump\t// in\n    tag_268:\n        /* \"SafeMath.sol\":1206:1229  owner() == _msgSender() */\n      0xffffffffffffffffffffffffffffffffffffffff\n      and\n      eq\n        /* \"SafeMath.sol\":1198:1266  require(owner() == _msgSender(), \"Ownable: caller is not the owner\") */\n      tag_269\n      jumpi\n      mload(0x40)\n      0x08c379a000000000000000000000000000000000000000000000000000000000\n      dup2\n      mstore\n      0x04\n      add\n      tag_270\n      swap1\n      tag_117\n      jump\t// in\n    tag_270:\n      mload(0x40)\n      dup1\n      swap2\n      sub\n      swap1\n      revert\n    tag_269:\n        /* \"SafeMath.sol\":1984:1985  0 */\n      0x00\n        /* \"SafeMath.sol\":1964:1986  newOwner != address(0) */\n      0xffffffffffffffffffffffffffffffffffffffff\n      and\n        /* \"SafeMath.sol\":1964:1972  newOwner */\n      dup2\n        /* \"SafeMath.sol\":1964:1986  newOwner != address(0) */\n      0xffffffffffffffffffffffffffffffffffffffff\n      and\n      sub\n        /* \"SafeMath.sol\":1956:2029  require(newOwner != address(0), \"Ownable: new owner is the zero address\") */\n      tag_272\n      jumpi\n      mload(0x40)\n      0x08c379a000000000000000000000000000000000000000000000000000000000\n      dup2\n      mstore\n      0x04\n      add\n      tag_273\n      swap1\n      tag_274\n      jump\t// in\n    tag_273:\n      mload(0x40)\n      dup1\n      swap2\n      sub\n      swap1\n      revert\n    tag_272:\n        /* \"SafeMath.sol\":2039:2067  _transferOwnership(newOwner) */\n      tag_275\n        /* \"SafeMath.sol\":2058:2066  newOwner */\n      dup2\n        /* \"SafeMath.sol\":2039:2057  _transferOwnership */\n      tag_135\n        /* \"SafeMath.sol\":2039:2067  _transferOwnership(newOwner) */\n      jump\t// in\n    tag_275:\n        /* \"SafeMath.sol\":1876:2074  function transferOwnership(address newOwner) public virtual onlyOwner {... */\n      pop\n      jump\t// out\n        /* \"DEX2.sol\":1160:1181  address public router */\n    tag_109:\n      0x03\n      0x00\n      swap1\n      sload\n      swap1\n      0x0100\n      exp\n      swap1\n      div\n      0xffffffffffffffffffffffffffffffffffffffff\n      and\n      dup2\n      jump\t// out\n        /* \"Ownable.sol\":587:683  function _msgSender() internal view virtual returns (address) {... */\n    tag_113:\n        /* \"Ownable.sol\":640:647  address */\n      0x00\n        /* \"Ownable.sol\":666:676  msg.sender */\n      caller\n        /* \"Ownable.sol\":659:676  return msg.sender */\n      swap1\n      pop\n        /* \"Ownable.sol\":587:683  function _msgSender() internal view virtual returns (address) {... */\n      swap1\n      jump\t// out\n        /* \"SafeMath.sol\":2228:2415  function _transferOwnership(address newOwner) internal virtual {... */\n    tag_135:\n        /* \"SafeMath.sol\":2301:2317  address oldOwner */\n      0x00\n        /* \"SafeMath.sol\":2320:2326  _owner */\n      dup1\n      0x00\n      swap1\n      sload\n      swap1\n      0x0100\n      exp\n      swap1\n      div\n      0xffffffffffffffffffffffffffffffffffffffff\n      and\n        /* \"SafeMath.sol\":2301:2326  address oldOwner = _owner */\n      swap1\n      pop\n        /* \"SafeMath.sol\":2345:2353  newOwner */\n      dup2\n        /* \"SafeMath.sol\":2336:2342  _owner */\n      0x00\n      dup1\n        /* \"SafeMath.sol\":2336:2353  _owner = newOwner */\n      0x0100\n      exp\n      dup2\n      sload\n      dup2\n      0xffffffffffffffffffffffffffffffffffffffff\n      mul\n      not\n      and\n      swap1\n      dup4\n      0xffffffffffffffffffffffffffffffffffffffff\n      and\n      mul\n      or\n      swap1\n      sstore\n      pop\n        /* \"SafeMath.sol\":2399:2407  newOwner */\n      dup2\n        /* \"SafeMath.sol\":2368:2408  OwnershipTransferred(oldOwner, newOwner) */\n      0xffffffffffffffffffffffffffffffffffffffff\n      and\n        /* \"SafeMath.sol\":2389:2397  oldOwner */\n      dup2\n        /* \"SafeMath.sol\":2368:2408  OwnershipTransferred(oldOwner, newOwner) */\n      0xffffffffffffffffffffffffffffffffffffffff\n      and\n      0x8be0079c531659141344cd1fd0a4f28419497f9722a3daafe3b4186f6b6457e0\n      mload(0x40)\n      mload(0x40)\n      dup1\n      swap2\n      sub\n      swap1\n      log3\n        /* \"SafeMath.sol\":2291:2415  {... */\n      pop\n        /* \"SafeMath.sol\":2228:2415  function _transferOwnership(address newOwner) internal virtual {... */\n      pop\n      jump\t// out\n        /* \"SafeIERC20.sol\":639:844  function safeTransfer(... */\n    tag_150:\n        /* \"SafeIERC20.sol\":751:837  _callOptionalReturn(token, abi.encodeWithSelector(token.transfer.selector, to, value)) */\n      tag_279\n        /* \"SafeIERC20.sol\":771:776  token */\n      dup4\n        /* \"SafeIERC20.sol\":801:824  token.transfer.selector */\n      shl(0xe0, 0xa9059cbb)\n        /* \"SafeIERC20.sol\":826:828  to */\n      dup5\n        /* \"SafeIERC20.sol\":830:835  value */\n      dup5\n        /* \"SafeIERC20.sol\":778:836  abi.encodeWithSelector(token.transfer.selector, to, value) */\n      add(0x24, mload(0x40))\n      tag_280\n      swap3\n      swap2\n      swap1\n      tag_281\n      jump\t// in\n    tag_280:\n      mload(0x40)\n      0x20\n      dup2\n      dup4\n      sub\n      sub\n      dup2\n      mstore\n      swap1\n      0x40\n      mstore\n      swap1\n      not(0xffffffffffffffffffffffffffffffffffffffffffffffffffffffff)\n      and\n      0x20\n      dup3\n      add\n      dup1\n      mload\n      0xffffffffffffffffffffffffffffffffffffffffffffffffffffffff\n      dup4\n      dup2\n      dup4\n      and\n      or\n      dup4\n      mstore\n      pop\n      pop\n      pop\n      pop\n        /* \"SafeIERC20.sol\":751:770  _callOptionalReturn */\n      tag_282\n        /* \"SafeIERC20.sol\":751:837  _callOptionalReturn(token, abi.encodeWithSelector(token.transfer.selector, to, value)) */\n      jump\t// in\n    tag_279:\n        /* \"SafeIERC20.sol\":639:844  function safeTransfer(... */\n      pop\n      pop\n      pop\n      jump\t// out\n        /* \"DEX2.sol\":3652:3774  function _approve(address _token, uint _amount) internal {... */\n    tag_166:\n        /* \"DEX2.sol\":3726:3732  _token */\n      dup2\n        /* \"DEX2.sol\":3719:3741  IERC20(_token).approve */\n      0xffffffffffffffffffffffffffffffffffffffff\n      and\n      0x095ea7b3\n        /* \"DEX2.sol\":3750:3756  router */\n      0x03\n      0x00\n      swap1\n      sload\n      swap1\n      0x0100\n      exp\n      swap1\n      div\n      0xffffffffffffffffffffffffffffffffffffffff\n      and\n        /* \"DEX2.sol\":3759:3766  _amount */\n      dup4\n        /* \"DEX2.sol\":3719:3767  IERC20(_token).approve(address(router), _amount) */\n      mload(0x40)\n      dup4\n      0xffffffff\n      and\n      0xe0\n      shl\n      dup2\n      mstore\n      0x04\n      add\n      tag_284\n      swap3\n      swap2\n      swap1\n      tag_281\n      jump\t// in\n    tag_284:\n      0x20\n      mload(0x40)\n      dup1\n      dup4\n      sub\n      dup2\n      0x00\n      dup8\n      gas\n      call\n      iszero\n      dup1\n      iszero\n      tag_286\n      jumpi\n      returndatasize\n      0x00\n      dup1\n      returndatacopy\n      revert(0x00, returndatasize)\n    tag_286:\n      pop\n      pop\n      pop\n      pop\n      mload(0x40)\n      returndatasize\n      not(0x1f)\n      0x1f\n      dup3\n      add\n      and\n      dup3\n      add\n      dup1\n      0x40\n      mstore\n      pop\n      dup2\n      add\n      swap1\n      tag_287\n      swap2\n      swap1\n      tag_288\n      jump\t// in\n    tag_287:\n      pop\n        /* \"DEX2.sol\":3652:3774  function _approve(address _token, uint _amount) internal {... */\n      pop\n      pop\n      jump\t// out\n        /* \"DEX2.sol\":2578:3646  function _proceedToUniswap(address _tokenA, address _tokenB, uint256 _amountIn, address[]memory path) internal {... */\n    tag_199:\n        /* \"DEX2.sol\":2719:2720  0 */\n      0x00\n        /* \"DEX2.sol\":2707:2716  _amountIn */\n      dup3\n        /* \"DEX2.sol\":2707:2720  _amountIn > 0 */\n      gt\n        /* \"DEX2.sol\":2699:2770  require(_amountIn > 0, \"SoleriumSWAP: amountIn must be greater than 0\") */\n      tag_290\n      jumpi\n      mload(0x40)\n      0x08c379a000000000000000000000000000000000000000000000000000000000\n      dup2\n      mstore\n      0x04\n      add\n      tag_291\n      swap1\n      tag_292\n      jump\t// in\n    tag_291:\n      mload(0x40)\n      dup1\n      swap2\n      sub\n      swap1\n      revert\n    tag_290:\n        /* \"DEX2.sol\":2788:2805  whitelistedTokens */\n      0x05\n        /* \"DEX2.sol\":2788:2814  whitelistedTokens[_tokenA] */\n      0x00\n        /* \"DEX2.sol\":2806:2813  _tokenA */\n      dup6\n        /* \"DEX2.sol\":2788:2814  whitelistedTokens[_tokenA] */\n      0xffffffffffffffffffffffffffffffffffffffff\n      and\n      0xffffffffffffffffffffffffffffffffffffffff\n      and\n      dup2\n      mstore\n      0x20\n      add\n      swap1\n      dup2\n      mstore\n      0x20\n      add\n      0x00\n      keccak256\n      0x00\n      swap1\n      sload\n      swap1\n      0x0100\n      exp\n      swap1\n      div\n      0xff\n      and\n        /* \"DEX2.sol\":2780:2858  require(whitelistedTokens[_tokenA], \"SoleriumSWAP: TokenA is not whitelisted\") */\n      tag_293\n      jumpi\n      mload(0x40)\n      0x08c379a000000000000000000000000000000000000000000000000000000000\n      dup2\n      mstore\n      0x04\n      add\n      tag_294\n      swap1\n      tag_295\n      jump\t// in\n    tag_294:\n      mload(0x40)\n      dup1\n      swap2\n      sub\n      swap1\n      revert\n    tag_293:\n        /* \"DEX2.sol\":2891:2892  0 */\n      0x00\n        /* \"DEX2.sol\":2872:2893  _tokenA == address(0) */\n      0xffffffffffffffffffffffffffffffffffffffff\n      and\n        /* \"DEX2.sol\":2872:2879  _tokenA */\n      dup5\n        /* \"DEX2.sol\":2872:2893  _tokenA == address(0) */\n      0xffffffffffffffffffffffffffffffffffffffff\n      and\n      sub\n        /* \"DEX2.sol\":2868:3640  if (_tokenA == address(0)) {... */\n      tag_296\n      jumpi\n        /* \"DEX2.sol\":2931:2940  msg.value */\n      callvalue\n        /* \"DEX2.sol\":2918:2927  _amountIn */\n      dup3\n        /* \"DEX2.sol\":2918:2940  _amountIn >= msg.value */\n      lt\n      iszero\n        /* \"DEX2.sol\":2909:2975  require (_amountIn >= msg.value, \"SoleriumSWAP: Insufficient ETH\") */\n      tag_297\n      jumpi\n      mload(0x40)\n      0x08c379a000000000000000000000000000000000000000000000000000000000\n      dup2\n      mstore\n      0x04\n      add\n      tag_298\n      swap1\n      tag_299\n      jump\t// in\n    tag_298:\n      mload(0x40)\n      dup1\n      swap2\n      sub\n      swap1\n      revert\n    tag_297:\n        /* \"DEX2.sol\":2989:2997  uint fee */\n      0x00\n        /* \"DEX2.sol\":3025:3030  10000 */\n      0x2710\n        /* \"DEX2.sol\":3012:3022  feePercent */\n      sload(0x01)\n        /* \"DEX2.sol\":3000:3009  _amountIn */\n      dup5\n        /* \"DEX2.sol\":3000:3022  _amountIn * feePercent */\n      tag_300\n      swap2\n      swap1\n      tag_301\n      jump\t// in\n    tag_300:\n        /* \"DEX2.sol\":3000:3030  _amountIn * feePercent / 10000 */\n      tag_302\n      swap2\n      swap1\n      tag_303\n      jump\t// in\n    tag_302:\n        /* \"DEX2.sol\":2989:3030  uint fee = _amountIn * feePercent / 10000 */\n      swap1\n      pop\n        /* \"DEX2.sol\":3052:3062  feeAccount */\n      0x02\n      0x00\n      swap1\n      sload\n      swap1\n      0x0100\n      exp\n      swap1\n      div\n      0xffffffffffffffffffffffffffffffffffffffff\n      and\n        /* \"DEX2.sol\":3044:3072  payable(feeAccount).transfer */\n      0xffffffffffffffffffffffffffffffffffffffff\n      and\n        /* \"DEX2.sol\":3044:3077  payable(feeAccount).transfer(fee) */\n      0x08fc\n        /* \"DEX2.sol\":3073:3076  fee */\n      dup3\n        /* \"DEX2.sol\":3044:3077  payable(feeAccount).transfer(fee) */\n      swap1\n      dup2\n      iszero\n      mul\n      swap1\n      mload(0x40)\n      0x00\n      mload(0x40)\n      dup1\n      dup4\n      sub\n      dup2\n      dup6\n      dup9\n      dup9\n      call\n      swap4\n      pop\n      pop\n      pop\n      pop\n      iszero\n      dup1\n      iszero\n      tag_305\n      jumpi\n      returndatasize\n      0x00\n      dup1\n      returndatacopy\n      revert(0x00, returndatasize)\n    tag_305:\n      pop\n        /* \"DEX2.sol\":3091:3108  uint amountToSwap */\n      0x00\n        /* \"DEX2.sol\":3123:3126  fee */\n      dup2\n        /* \"DEX2.sol\":3111:3120  _amountIn */\n      dup5\n        /* \"DEX2.sol\":3111:3126  _amountIn - fee */\n      tag_306\n      swap2\n      swap1\n      tag_173\n      jump\t// in\n    tag_306:\n        /* \"DEX2.sol\":3091:3126  uint amountToSwap = _amountIn - fee */\n      swap1\n      pop\n        /* \"DEX2.sol\":3140:3177  _swapBNBForTokens(amountToSwap, path) */\n      tag_307\n        /* \"DEX2.sol\":3158:3170  amountToSwap */\n      dup2\n        /* \"DEX2.sol\":3172:3176  path */\n      dup5\n        /* \"DEX2.sol\":3140:3157  _swapBNBForTokens */\n      tag_308\n        /* \"DEX2.sol\":3140:3177  _swapBNBForTokens(amountToSwap, path) */\n      jump\t// in\n    tag_307:\n        /* \"DEX2.sol\":2895:3188  {... */\n      pop\n      pop\n        /* \"DEX2.sol\":2868:3640  if (_tokenA == address(0)) {... */\n      jump(tag_309)\n    tag_296:\n        /* \"DEX2.sol\":3207:3277  IERC20(_tokenA).safeTransferFrom(msg.sender, address(this), _amountIn) */\n      tag_310\n        /* \"DEX2.sol\":3240:3250  msg.sender */\n      caller\n        /* \"DEX2.sol\":3260:3264  this */\n      address\n        /* \"DEX2.sol\":3267:3276  _amountIn */\n      dup5\n        /* \"DEX2.sol\":3214:3221  _tokenA */\n      dup8\n        /* \"DEX2.sol\":3207:3239  IERC20(_tokenA).safeTransferFrom */\n      0xffffffffffffffffffffffffffffffffffffffff\n      and\n      tag_311\n      swap1\n        /* \"DEX2.sol\":3207:3277  IERC20(_tokenA).safeTransferFrom(msg.sender, address(this), _amountIn) */\n      swap4\n      swap3\n      swap2\n      swap1\n      0xffffffff\n      and\n      jump\t// in\n    tag_310:\n        /* \"DEX2.sol\":3291:3299  uint fee */\n      0x00\n        /* \"DEX2.sol\":3327:3332  10000 */\n      0x2710\n        /* \"DEX2.sol\":3314:3324  feePercent */\n      sload(0x01)\n        /* \"DEX2.sol\":3302:3311  _amountIn */\n      dup5\n        /* \"DEX2.sol\":3302:3324  _amountIn * feePercent */\n      tag_312\n      swap2\n      swap1\n      tag_301\n      jump\t// in\n    tag_312:\n        /* \"DEX2.sol\":3302:3332  _amountIn * feePercent / 10000 */\n      tag_313\n      swap2\n      swap1\n      tag_303\n      jump\t// in\n    tag_313:\n        /* \"DEX2.sol\":3291:3332  uint fee = _amountIn * feePercent / 10000 */\n      swap1\n      pop\n        /* \"DEX2.sol\":3346:3391  IERC20(_tokenA).safeTransfer(feeAccount, fee) */\n      tag_314\n        /* \"DEX2.sol\":3375:3385  feeAccount */\n      0x02\n      0x00\n      swap1\n      sload\n      swap1\n      0x0100\n      exp\n      swap1\n      div\n      0xffffffffffffffffffffffffffffffffffffffff\n      and\n        /* \"DEX2.sol\":3387:3390  fee */\n      dup3\n        /* \"DEX2.sol\":3353:3360  _tokenA */\n      dup8\n        /* \"DEX2.sol\":3346:3374  IERC20(_tokenA).safeTransfer */\n      0xffffffffffffffffffffffffffffffffffffffff\n      and\n      tag_150\n      swap1\n        /* \"DEX2.sol\":3346:3391  IERC20(_tokenA).safeTransfer(feeAccount, fee) */\n      swap3\n      swap2\n      swap1\n      0xffffffff\n      and\n      jump\t// in\n    tag_314:\n        /* \"DEX2.sol\":3405:3422  uint amountToSwap */\n      0x00\n        /* \"DEX2.sol\":3437:3440  fee */\n      dup2\n        /* \"DEX2.sol\":3425:3434  _amountIn */\n      dup5\n        /* \"DEX2.sol\":3425:3440  _amountIn - fee */\n      tag_315\n      swap2\n      swap1\n      tag_173\n      jump\t// in\n    tag_315:\n        /* \"DEX2.sol\":3405:3440  uint amountToSwap = _amountIn - fee */\n      swap1\n      pop\n        /* \"DEX2.sol\":3477:3478  0 */\n      0x00\n        /* \"DEX2.sol\":3458:3479  _tokenB == address(0) */\n      0xffffffffffffffffffffffffffffffffffffffff\n      and\n        /* \"DEX2.sol\":3458:3465  _tokenB */\n      dup6\n        /* \"DEX2.sol\":3458:3479  _tokenB == address(0) */\n      0xffffffffffffffffffffffffffffffffffffffff\n      and\n      sub\n        /* \"DEX2.sol\":3454:3630  if (_tokenB == address(0)) {... */\n      tag_316\n      jumpi\n        /* \"DEX2.sol\":3499:3536  _swapTokensForBNB(amountToSwap, path) */\n      tag_317\n        /* \"DEX2.sol\":3517:3529  amountToSwap */\n      dup2\n        /* \"DEX2.sol\":3531:3535  path */\n      dup5\n        /* \"DEX2.sol\":3499:3516  _swapTokensForBNB */\n      tag_318\n        /* \"DEX2.sol\":3499:3536  _swapTokensForBNB(amountToSwap, path) */\n      jump\t// in\n    tag_317:\n        /* \"DEX2.sol\":3454:3630  if (_tokenB == address(0)) {... */\n      jump(tag_319)\n    tag_316:\n        /* \"DEX2.sol\":3575:3615  _swapTokensForTokens(amountToSwap, path) */\n      tag_320\n        /* \"DEX2.sol\":3596:3608  amountToSwap */\n      dup2\n        /* \"DEX2.sol\":3610:3614  path */\n      dup5\n        /* \"DEX2.sol\":3575:3595  _swapTokensForTokens */\n      tag_321\n        /* \"DEX2.sol\":3575:3615  _swapTokensForTokens(amountToSwap, path) */\n      jump\t// in\n    tag_320:\n        /* \"DEX2.sol\":3454:3630  if (_tokenB == address(0)) {... */\n    tag_319:\n        /* \"DEX2.sol\":3193:3640  {... */\n      pop\n      pop\n        /* \"DEX2.sol\":2868:3640  if (_tokenA == address(0)) {... */\n    tag_309:\n        /* \"DEX2.sol\":2578:3646  function _proceedToUniswap(address _tokenA, address _tokenB, uint256 _amountIn, address[]memory path) internal {... */\n      pop\n      pop\n      pop\n      pop\n      jump\t// out\n        /* \"SafeIERC20.sol\":3145:3851  function _callOptionalReturn(IERC20 token, bytes memory data) private {... */\n    tag_282:\n        /* \"SafeIERC20.sol\":3564:3587  bytes memory returndata */\n      0x00\n        /* \"SafeIERC20.sol\":3590:3659  address(token).functionCall(data, \"SafeERC20: low-level call failed\") */\n      tag_323\n        /* \"SafeIERC20.sol\":3618:3622  data */\n      dup3\n        /* \"SafeIERC20.sol\":3590:3659  address(token).functionCall(data, \"SafeERC20: low-level call failed\") */\n      mload(0x40)\n      dup1\n      0x40\n      add\n      0x40\n      mstore\n      dup1\n      0x20\n      dup2\n      mstore\n      0x20\n      add\n      0x5361666545524332303a206c6f772d6c6576656c2063616c6c206661696c6564\n      dup2\n      mstore\n      pop\n        /* \"SafeIERC20.sol\":3598:3603  token */\n      dup6\n        /* \"SafeIERC20.sol\":3590:3617  address(token).functionCall */\n      0xffffffffffffffffffffffffffffffffffffffff\n      and\n      tag_324\n      swap1\n        /* \"SafeIERC20.sol\":3590:3659  address(token).functionCall(data, \"SafeERC20: low-level call failed\") */\n      swap3\n      swap2\n      swap1\n      0xffffffff\n      and\n      jump\t// in\n    tag_323:\n        /* \"SafeIERC20.sol\":3564:3659  bytes memory returndata = address(token).functionCall(data, \"SafeERC20: low-level call failed\") */\n      swap1\n      pop\n        /* \"SafeIERC20.sol\":3693:3694  0 */\n      0x00\n        /* \"SafeIERC20.sol\":3673:3683  returndata */\n      dup2\n        /* \"SafeIERC20.sol\":3673:3690  returndata.length */\n      mload\n        /* \"SafeIERC20.sol\":3673:3694  returndata.length > 0 */\n      gt\n        /* \"SafeIERC20.sol\":3669:3845  if (returndata.length > 0) {... */\n      iszero\n      tag_325\n      jumpi\n        /* \"SafeIERC20.sol\":3768:3778  returndata */\n      dup1\n        /* \"SafeIERC20.sol\":3757:3787  abi.decode(returndata, (bool)) */\n      dup1\n      0x20\n      add\n      swap1\n      mload\n      dup2\n      add\n      swap1\n      tag_326\n      swap2\n      swap1\n      tag_288\n      jump\t// in\n    tag_326:\n        /* \"SafeIERC20.sol\":3749:3834  require(abi.decode(returndata, (bool)), \"SafeERC20: ERC20 operation did not succeed\") */\n      tag_327\n      jumpi\n      mload(0x40)\n      0x08c379a000000000000000000000000000000000000000000000000000000000\n      dup2\n      mstore\n      0x04\n      add\n      tag_328\n      swap1\n      tag_329\n      jump\t// in\n    tag_328:\n      mload(0x40)\n      dup1\n      swap2\n      sub\n      swap1\n      revert\n    tag_327:\n        /* \"SafeIERC20.sol\":3669:3845  if (returndata.length > 0) {... */\n    tag_325:\n        /* \"SafeIERC20.sol\":3215:3851  {... */\n      pop\n        /* \"SafeIERC20.sol\":3145:3851  function _callOptionalReturn(IERC20 token, bytes memory data) private {... */\n      pop\n      pop\n      jump\t// out\n        /* \"DEX2.sol\":4029:4269  function _swapBNBForTokens(uint _amount, address[]memory path) internal {... */\n    tag_308:\n        /* \"DEX2.sol\":4119:4125  router */\n      0x03\n      0x00\n      swap1\n      sload\n      swap1\n      0x0100\n      exp\n      swap1\n      div\n      0xffffffffffffffffffffffffffffffffffffffff\n      and\n        /* \"DEX2.sol\":4111:4148  IRouter(router).swapExactETHForTokens */\n      0xffffffffffffffffffffffffffffffffffffffff\n      and\n      0x7ff36ab5\n        /* \"DEX2.sol\":4157:4164  _amount */\n      dup4\n        /* \"DEX2.sol\":4180:4181  0 */\n      0x00\n        /* \"DEX2.sol\":4195:4199  path */\n      dup5\n        /* \"DEX2.sol\":4213:4223  msg.sender */\n      caller\n        /* \"DEX2.sol\":4237:4252  block.timestamp */\n      timestamp\n        /* \"DEX2.sol\":4111:4262  IRouter(router).swapExactETHForTokens{ value: _amount }(... */\n      mload(0x40)\n      dup7\n      0xffffffff\n      and\n      0xe0\n      shl\n      dup2\n      mstore\n      0x04\n      add\n      tag_331\n      swap5\n      swap4\n      swap3\n      swap2\n      swap1\n      tag_332\n      jump\t// in\n    tag_331:\n      0x00\n      mload(0x40)\n      dup1\n      dup4\n      sub\n      dup2\n      dup6\n      dup9\n      gas\n      call\n      iszero\n      dup1\n      iszero\n      tag_334\n      jumpi\n      returndatasize\n      0x00\n      dup1\n      returndatacopy\n      revert(0x00, returndatasize)\n    tag_334:\n      pop\n      pop\n      pop\n      pop\n      pop\n      mload(0x40)\n      returndatasize\n      0x00\n      dup3\n      returndatacopy\n      returndatasize\n      not(0x1f)\n      0x1f\n      dup3\n      add\n      and\n      dup3\n      add\n      dup1\n      0x40\n      mstore\n      pop\n      dup2\n      add\n      swap1\n      tag_335\n      swap2\n      swap1\n      tag_234\n      jump\t// in\n    tag_335:\n      pop\n        /* \"DEX2.sol\":4029:4269  function _swapBNBForTokens(uint _amount, address[]memory path) internal {... */\n      pop\n      pop\n      jump\t// out\n        /* \"SafeIERC20.sol\":850:1091  function safeTransferFrom(... */\n    tag_311:\n        /* \"SafeIERC20.sol\":988:1084  _callOptionalReturn(token, abi.encodeWithSelector(token.transferFrom.selector, from, to, value)) */\n      tag_337\n        /* \"SafeIERC20.sol\":1008:1013  token */\n      dup5\n        /* \"SafeIERC20.sol\":1038:1065  token.transferFrom.selector */\n      shl(0xe0, 0x23b872dd)\n        /* \"SafeIERC20.sol\":1067:1071  from */\n      dup6\n        /* \"SafeIERC20.sol\":1073:1075  to */\n      dup6\n        /* \"SafeIERC20.sol\":1077:1082  value */\n      dup6\n        /* \"SafeIERC20.sol\":1015:1083  abi.encodeWithSelector(token.transferFrom.selector, from, to, value) */\n      add(0x24, mload(0x40))\n      tag_338\n      swap4\n      swap3\n      swap2\n      swap1\n      tag_339\n      jump\t// in\n    tag_338:\n      mload(0x40)\n      0x20\n      dup2\n      dup4\n      sub\n      sub\n      dup2\n      mstore\n      swap1\n      0x40\n      mstore\n      swap1\n      not(0xffffffffffffffffffffffffffffffffffffffffffffffffffffffff)\n      and\n      0x20\n      dup3\n      add\n      dup1\n      mload\n      0xffffffffffffffffffffffffffffffffffffffffffffffffffffffff\n      dup4\n      dup2\n      dup4\n      and\n      or\n      dup4\n      mstore\n      pop\n      pop\n      pop\n      pop\n        /* \"SafeIERC20.sol\":988:1007  _callOptionalReturn */\n      tag_282\n        /* \"SafeIERC20.sol\":988:1084  _callOptionalReturn(token, abi.encodeWithSelector(token.transferFrom.selector, from, to, value)) */\n      jump\t// in\n    tag_337:\n        /* \"SafeIERC20.sol\":850:1091  function safeTransferFrom(... */\n      pop\n      pop\n      pop\n      pop\n      jump\t// out\n        /* \"DEX2.sol\":3780:4023  function _swapTokensForBNB(uint _amount, address[]memory path) internal {... */\n    tag_318:\n        /* \"DEX2.sol\":3870:3876  router */\n      0x03\n      0x00\n      swap1\n      sload\n      swap1\n      0x0100\n      exp\n      swap1\n      div\n      0xffffffffffffffffffffffffffffffffffffffff\n      and\n        /* \"DEX2.sol\":3862:3899  IRouter(router).swapExactTokensForETH */\n      0xffffffffffffffffffffffffffffffffffffffff\n      and\n      0x18cbafe5\n        /* \"DEX2.sol\":3913:3920  _amount */\n      dup4\n        /* \"DEX2.sol\":3934:3935  0 */\n      0x00\n        /* \"DEX2.sol\":3949:3953  path */\n      dup5\n        /* \"DEX2.sol\":3967:3977  msg.sender */\n      caller\n        /* \"DEX2.sol\":3991:4006  block.timestamp */\n      timestamp\n        /* \"DEX2.sol\":3862:4016  IRouter(router).swapExactTokensForETH(... */\n      mload(0x40)\n      dup7\n      0xffffffff\n      and\n      0xe0\n      shl\n      dup2\n      mstore\n      0x04\n      add\n      tag_341\n      swap6\n      swap5\n      swap4\n      swap3\n      swap2\n      swap1\n      tag_342\n      jump\t// in\n    tag_341:\n      0x00\n      mload(0x40)\n      dup1\n      dup4\n      sub\n      dup2\n      0x00\n      dup8\n      gas\n      call\n      iszero\n      dup1\n      iszero\n      tag_344\n      jumpi\n      returndatasize\n      0x00\n      dup1\n      returndatacopy\n      revert(0x00, returndatasize)\n    tag_344:\n      pop\n      pop\n      pop\n      pop\n      mload(0x40)\n      returndatasize\n      0x00\n      dup3\n      returndatacopy\n      returndatasize\n      not(0x1f)\n      0x1f\n      dup3\n      add\n      and\n      dup3\n      add\n      dup1\n      0x40\n      mstore\n      pop\n      dup2\n      add\n      swap1\n      tag_345\n      swap2\n      swap1\n      tag_234\n      jump\t// in\n    tag_345:\n      pop\n        /* \"DEX2.sol\":3780:4023  function _swapTokensForBNB(uint _amount, address[]memory path) internal {... */\n      pop\n      pop\n      jump\t// out\n        /* \"DEX2.sol\":4275:4524  function _swapTokensForTokens(uint _amount, address[]memory path) internal {... */\n    tag_321:\n        /* \"DEX2.sol\":4368:4374  router */\n      0x03\n      0x00\n      swap1\n      sload\n      swap1\n      0x0100\n      exp\n      swap1\n      div\n      0xffffffffffffffffffffffffffffffffffffffff\n      and\n        /* \"DEX2.sol\":4360:4400  IRouter(router).swapExactTokensForTokens */\n      0xffffffffffffffffffffffffffffffffffffffff\n      and\n      0x38ed1739\n        /* \"DEX2.sol\":4414:4421  _amount */\n      dup4\n        /* \"DEX2.sol\":4435:4436  0 */\n      0x00\n        /* \"DEX2.sol\":4450:4454  path */\n      dup5\n        /* \"DEX2.sol\":4468:4478  msg.sender */\n      caller\n        /* \"DEX2.sol\":4492:4507  block.timestamp */\n      timestamp\n        /* \"DEX2.sol\":4360:4517  IRouter(router).swapExactTokensForTokens(... */\n      mload(0x40)\n      dup7\n      0xffffffff\n      and\n      0xe0\n      shl\n      dup2\n      mstore\n      0x04\n      add\n      tag_347\n      swap6\n      swap5\n      swap4\n      swap3\n      swap2\n      swap1\n      tag_342\n      jump\t// in\n    tag_347:\n      0x00\n      mload(0x40)\n      dup1\n      dup4\n      sub\n      dup2\n      0x00\n      dup8\n      gas\n      call\n      iszero\n      dup1\n      iszero\n      tag_349\n      jumpi\n      returndatasize\n      0x00\n      dup1\n      returndatacopy\n      revert(0x00, returndatasize)\n    tag_349:\n      pop\n      pop\n      pop\n      pop\n      mload(0x40)\n      returndatasize\n      0x00\n      dup3\n      returndatacopy\n      returndatasize\n      not(0x1f)\n      0x1f\n      dup3\n      add\n      and\n      dup3\n      add\n      dup1\n      0x40\n      mstore\n      pop\n      dup2\n      add\n      swap1\n      tag_350\n      swap2\n      swap1\n      tag_234\n      jump\t// in\n    tag_350:\n      pop\n        /* \"DEX2.sol\":4275:4524  function _swapTokensForTokens(uint _amount, address[]memory path) internal {... */\n      pop\n      pop\n      jump\t// out\n        /* \"SafeERC20.sol\":3792:4015  function functionCall(... */\n    tag_324:\n        /* \"SafeERC20.sol\":3925:3937  bytes memory */\n      0x60\n        /* \"SafeERC20.sol\":3956:4008  functionCallWithValue(target, data, 0, errorMessage) */\n      tag_352\n        /* \"SafeERC20.sol\":3978:3984  target */\n      dup5\n        /* \"SafeERC20.sol\":3986:3990  data */\n      dup5\n        /* \"SafeERC20.sol\":3992:3993  0 */\n      0x00\n        /* \"SafeERC20.sol\":3995:4007  errorMessage */\n      dup6\n        /* \"SafeERC20.sol\":3956:3977  functionCallWithValue */\n      tag_353\n        /* \"SafeERC20.sol\":3956:4008  functionCallWithValue(target, data, 0, errorMessage) */\n      jump\t// in\n    tag_352:\n        /* \"SafeERC20.sol\":3949:4008  return functionCallWithValue(target, data, 0, errorMessage) */\n      swap1\n      pop\n        /* \"SafeERC20.sol\":3792:4015  function functionCall(... */\n      swap4\n      swap3\n      pop\n      pop\n      pop\n      jump\t// out\n        /* \"SafeERC20.sol\":4879:5378  function functionCallWithValue(... */\n    tag_353:\n        /* \"SafeERC20.sol\":5044:5056  bytes memory */\n      0x60\n        /* \"SafeERC20.sol\":5101:5106  value */\n      dup3\n        /* \"SafeERC20.sol\":5076:5097  address(this).balance */\n      selfbalance\n        /* \"SafeERC20.sol\":5076:5106  address(this).balance >= value */\n      lt\n      iszero\n        /* \"SafeERC20.sol\":5068:5149  require(address(this).balance >= value, \"Address: insufficient balance for call\") */\n      tag_355\n      jumpi\n      mload(0x40)\n      0x08c379a000000000000000000000000000000000000000000000000000000000\n      dup2\n      mstore\n      0x04\n      add\n      tag_356\n      swap1\n      tag_357\n      jump\t// in\n    tag_356:\n      mload(0x40)\n      dup1\n      swap2\n      sub\n      swap1\n      revert\n    tag_355:\n        /* \"SafeERC20.sol\":5167:5185  isContract(target) */\n      tag_358\n        /* \"SafeERC20.sol\":5178:5184  target */\n      dup6\n        /* \"SafeERC20.sol\":5167:5177  isContract */\n      tag_359\n        /* \"SafeERC20.sol\":5167:5185  isContract(target) */\n      jump\t// in\n    tag_358:\n        /* \"SafeERC20.sol\":5159:5219  require(isContract(target), \"Address: call to non-contract\") */\n      tag_360\n      jumpi\n      mload(0x40)\n      0x08c379a000000000000000000000000000000000000000000000000000000000\n      dup2\n      mstore\n      0x04\n      add\n      tag_361\n      swap1\n      tag_362\n      jump\t// in\n    tag_361:\n      mload(0x40)\n      dup1\n      swap2\n      sub\n      swap1\n      revert\n    tag_360:\n        /* \"SafeERC20.sol\":5231:5243  bool success */\n      0x00\n        /* \"SafeERC20.sol\":5245:5268  bytes memory returndata */\n      dup1\n        /* \"SafeERC20.sol\":5272:5278  target */\n      dup7\n        /* \"SafeERC20.sol\":5272:5283  target.call */\n      0xffffffffffffffffffffffffffffffffffffffff\n      and\n        /* \"SafeERC20.sol\":5291:5296  value */\n      dup6\n        /* \"SafeERC20.sol\":5298:5302  data */\n      dup8\n        /* \"SafeERC20.sol\":5272:5303  target.call{value: value}(data) */\n      mload(0x40)\n      tag_363\n      swap2\n      swap1\n      tag_364\n      jump\t// in\n    tag_363:\n      0x00\n      mload(0x40)\n      dup1\n      dup4\n      sub\n      dup2\n      dup6\n      dup8\n      gas\n      call\n      swap3\n      pop\n      pop\n      pop\n      returndatasize\n      dup1\n      0x00\n      dup2\n      eq\n      tag_367\n      jumpi\n      mload(0x40)\n      swap2\n      pop\n      and(add(returndatasize, 0x3f), not(0x1f))\n      dup3\n      add\n      0x40\n      mstore\n      returndatasize\n      dup3\n      mstore\n      returndatasize\n      0x00\n      0x20\n      dup5\n      add\n      returndatacopy\n      jump(tag_366)\n    tag_367:\n      0x60\n      swap2\n      pop\n    tag_366:\n      pop\n        /* \"SafeERC20.sol\":5230:5303  (bool success, bytes memory returndata) = target.call{value: value}(data) */\n      swap2\n      pop\n      swap2\n      pop\n        /* \"SafeERC20.sol\":5320:5371  verifyCallResult(success, returndata, errorMessage) */\n      tag_368\n        /* \"SafeERC20.sol\":5337:5344  success */\n      dup3\n        /* \"SafeERC20.sol\":5346:5356  returndata */\n      dup3\n        /* \"SafeERC20.sol\":5358:5370  errorMessage */\n      dup7\n        /* \"SafeERC20.sol\":5320:5336  verifyCallResult */\n      tag_369\n        /* \"SafeERC20.sol\":5320:5371  verifyCallResult(success, returndata, errorMessage) */\n      jump\t// in\n    tag_368:\n        /* \"SafeERC20.sol\":5313:5371  return verifyCallResult(success, returndata, errorMessage) */\n      swap3\n      pop\n      pop\n      pop\n        /* \"SafeERC20.sol\":4879:5378  function functionCallWithValue(... */\n      swap5\n      swap4\n      pop\n      pop\n      pop\n      pop\n      jump\t// out\n        /* \"SafeERC20.sol\":1106:1426  function isContract(address account) internal view returns (bool) {... */\n    tag_359:\n        /* \"SafeERC20.sol\":1166:1170  bool */\n      0x00\n        /* \"SafeERC20.sol\":1418:1419  0 */\n      dup1\n        /* \"SafeERC20.sol\":1396:1403  account */\n      dup3\n        /* \"SafeERC20.sol\":1396:1415  account.code.length */\n      0xffffffffffffffffffffffffffffffffffffffff\n      and\n      extcodesize\n        /* \"SafeERC20.sol\":1396:1419  account.code.length > 0 */\n      gt\n        /* \"SafeERC20.sol\":1389:1419  return account.code.length > 0 */\n      swap1\n      pop\n        /* \"SafeERC20.sol\":1106:1426  function isContract(address account) internal view returns (bool) {... */\n      swap2\n      swap1\n      pop\n      jump\t// out\n        /* \"SafeERC20.sol\":7492:8184  function verifyCallResult(... */\n    tag_369:\n        /* \"SafeERC20.sol\":7638:7650  bytes memory */\n      0x60\n        /* \"SafeERC20.sol\":7666:7673  success */\n      dup4\n        /* \"SafeERC20.sol\":7662:8178  if (success) {... */\n      iszero\n      tag_372\n      jumpi\n        /* \"SafeERC20.sol\":7696:7706  returndata */\n      dup3\n        /* \"SafeERC20.sol\":7689:7706  return returndata */\n      swap1\n      pop\n      jump(tag_371)\n        /* \"SafeERC20.sol\":7662:8178  if (success) {... */\n    tag_372:\n        /* \"SafeERC20.sol\":7827:7828  0 */\n      0x00\n        /* \"SafeERC20.sol\":7807:7817  returndata */\n      dup4\n        /* \"SafeERC20.sol\":7807:7824  returndata.length */\n      mload\n        /* \"SafeERC20.sol\":7807:7828  returndata.length > 0 */\n      gt\n        /* \"SafeERC20.sol\":7803:8168  if (returndata.length > 0) {... */\n      iszero\n      tag_374\n      jumpi\n        /* \"SafeERC20.sol\":8001:8011  returndata */\n      dup3\n        /* \"SafeERC20.sol\":7995:8012  mload(returndata) */\n      mload\n        /* \"SafeERC20.sol\":8061:8076  returndata_size */\n      dup1\n        /* \"SafeERC20.sol\":8048:8058  returndata */\n      dup5\n        /* \"SafeERC20.sol\":8044:8046  32 */\n      0x20\n        /* \"SafeERC20.sol\":8040:8059  add(32, returndata) */\n      add\n        /* \"SafeERC20.sol\":8033:8077  revert(add(32, returndata), returndata_size) */\n      revert\n        /* \"SafeERC20.sol\":7803:8168  if (returndata.length > 0) {... */\n    tag_374:\n        /* \"SafeERC20.sol\":8140:8152  errorMessage */\n      dup2\n        /* \"SafeERC20.sol\":8133:8153  revert(errorMessage) */\n      mload(0x40)\n      0x08c379a000000000000000000000000000000000000000000000000000000000\n      dup2\n      mstore\n      0x04\n      add\n      tag_376\n      swap2\n      swap1\n      tag_377\n      jump\t// in\n    tag_376:\n      mload(0x40)\n      dup1\n      swap2\n      sub\n      swap1\n      revert\n        /* \"SafeERC20.sol\":7492:8184  function verifyCallResult(... */\n    tag_371:\n      swap4\n      swap3\n      pop\n      pop\n      pop\n      jump\t// out\n        /* \"#utility.yul\":7:133   */\n    tag_378:\n        /* \"#utility.yul\":44:51   */\n      0x00\n        /* \"#utility.yul\":84:126   */\n      0xffffffffffffffffffffffffffffffffffffffff\n        /* \"#utility.yul\":77:82   */\n      dup3\n        /* \"#utility.yul\":73:127   */\n      and\n        /* \"#utility.yul\":62:127   */\n      swap1\n      pop\n        /* \"#utility.yul\":7:133   */\n      swap2\n      swap1\n      pop\n      jump\t// out\n        /* \"#utility.yul\":139:235   */\n    tag_379:\n        /* \"#utility.yul\":176:183   */\n      0x00\n        /* \"#utility.yul\":205:229   */\n      tag_449\n        /* \"#utility.yul\":223:228   */\n      dup3\n        /* \"#utility.yul\":205:229   */\n      tag_378\n      jump\t// in\n    tag_449:\n        /* \"#utility.yul\":194:229   */\n      swap1\n      pop\n        /* \"#utility.yul\":139:235   */\n      swap2\n      swap1\n      pop\n      jump\t// out\n        /* \"#utility.yul\":241:359   */\n    tag_380:\n        /* \"#utility.yul\":328:352   */\n      tag_451\n        /* \"#utility.yul\":346:351   */\n      dup2\n        /* \"#utility.yul\":328:352   */\n      tag_379\n      jump\t// in\n    tag_451:\n        /* \"#utility.yul\":323:326   */\n      dup3\n        /* \"#utility.yul\":316:353   */\n      mstore\n        /* \"#utility.yul\":241:359   */\n      pop\n      pop\n      jump\t// out\n        /* \"#utility.yul\":365:587   */\n    tag_28:\n        /* \"#utility.yul\":458:462   */\n      0x00\n        /* \"#utility.yul\":496:498   */\n      0x20\n        /* \"#utility.yul\":485:494   */\n      dup3\n        /* \"#utility.yul\":481:499   */\n      add\n        /* \"#utility.yul\":473:499   */\n      swap1\n      pop\n        /* \"#utility.yul\":509:580   */\n      tag_453\n        /* \"#utility.yul\":577:578   */\n      0x00\n        /* \"#utility.yul\":566:575   */\n      dup4\n        /* \"#utility.yul\":562:579   */\n      add\n        /* \"#utility.yul\":553:559   */\n      dup5\n        /* \"#utility.yul\":509:580   */\n      tag_380\n      jump\t// in\n    tag_453:\n        /* \"#utility.yul\":365:587   */\n      swap3\n      swap2\n      pop\n      pop\n      jump\t// out\n        /* \"#utility.yul\":593:668   */\n    tag_381:\n        /* \"#utility.yul\":626:632   */\n      0x00\n        /* \"#utility.yul\":659:661   */\n      0x40\n        /* \"#utility.yul\":653:662   */\n      mload\n        /* \"#utility.yul\":643:662   */\n      swap1\n      pop\n        /* \"#utility.yul\":593:668   */\n      swap1\n      jump\t// out\n        /* \"#utility.yul\":674:791   */\n    tag_382:\n        /* \"#utility.yul\":783:784   */\n      0x00\n        /* \"#utility.yul\":780:781   */\n      dup1\n        /* \"#utility.yul\":773:785   */\n      revert\n        /* \"#utility.yul\":797:914   */\n    tag_383:\n        /* \"#utility.yul\":906:907   */\n      0x00\n        /* \"#utility.yul\":903:904   */\n      dup1\n        /* \"#utility.yul\":896:908   */\n      revert\n        /* \"#utility.yul\":920:1042   */\n    tag_384:\n        /* \"#utility.yul\":993:1017   */\n      tag_458\n        /* \"#utility.yul\":1011:1016   */\n      dup2\n        /* \"#utility.yul\":993:1017   */\n      tag_379\n      jump\t// in\n    tag_458:\n        /* \"#utility.yul\":986:991   */\n      dup2\n        /* \"#utility.yul\":983:1018   */\n      eq\n        /* \"#utility.yul\":973:1036   */\n      tag_459\n      jumpi\n        /* \"#utility.yul\":1032:1033   */\n      0x00\n        /* \"#utility.yul\":1029:1030   */\n      dup1\n        /* \"#utility.yul\":1022:1034   */\n      revert\n        /* \"#utility.yul\":973:1036   */\n    tag_459:\n        /* \"#utility.yul\":920:1042   */\n      pop\n      jump\t// out\n        /* \"#utility.yul\":1048:1187   */\n    tag_385:\n        /* \"#utility.yul\":1094:1099   */\n      0x00\n        /* \"#utility.yul\":1132:1138   */\n      dup2\n        /* \"#utility.yul\":1119:1139   */\n      calldataload\n        /* \"#utility.yul\":1110:1139   */\n      swap1\n      pop\n        /* \"#utility.yul\":1148:1181   */\n      tag_461\n        /* \"#utility.yul\":1175:1180   */\n      dup2\n        /* \"#utility.yul\":1148:1181   */\n      tag_384\n      jump\t// in\n    tag_461:\n        /* \"#utility.yul\":1048:1187   */\n      swap3\n      swap2\n      pop\n      pop\n      jump\t// out\n        /* \"#utility.yul\":1193:1522   */\n    tag_32:\n        /* \"#utility.yul\":1252:1258   */\n      0x00\n        /* \"#utility.yul\":1301:1303   */\n      0x20\n        /* \"#utility.yul\":1289:1298   */\n      dup3\n        /* \"#utility.yul\":1280:1287   */\n      dup5\n        /* \"#utility.yul\":1276:1299   */\n      sub\n        /* \"#utility.yul\":1272:1304   */\n      slt\n        /* \"#utility.yul\":1269:1388   */\n      iszero\n      tag_463\n      jumpi\n        /* \"#utility.yul\":1307:1386   */\n      tag_464\n      tag_382\n      jump\t// in\n    tag_464:\n        /* \"#utility.yul\":1269:1388   */\n    tag_463:\n        /* \"#utility.yul\":1427:1428   */\n      0x00\n        /* \"#utility.yul\":1452:1505   */\n      tag_465\n        /* \"#utility.yul\":1497:1504   */\n      dup5\n        /* \"#utility.yul\":1488:1494   */\n      dup3\n        /* \"#utility.yul\":1477:1486   */\n      dup6\n        /* \"#utility.yul\":1473:1495   */\n      add\n        /* \"#utility.yul\":1452:1505   */\n      tag_385\n      jump\t// in\n    tag_465:\n        /* \"#utility.yul\":1442:1505   */\n      swap2\n      pop\n        /* \"#utility.yul\":1398:1515   */\n      pop\n        /* \"#utility.yul\":1193:1522   */\n      swap3\n      swap2\n      pop\n      pop\n      jump\t// out\n        /* \"#utility.yul\":1528:1605   */\n    tag_386:\n        /* \"#utility.yul\":1565:1572   */\n      0x00\n        /* \"#utility.yul\":1594:1599   */\n      dup2\n        /* \"#utility.yul\":1583:1599   */\n      swap1\n      pop\n        /* \"#utility.yul\":1528:1605   */\n      swap2\n      swap1\n      pop\n      jump\t// out\n        /* \"#utility.yul\":1611:1733   */\n    tag_387:\n        /* \"#utility.yul\":1684:1708   */\n      tag_468\n        /* \"#utility.yul\":1702:1707   */\n      dup2\n        /* \"#utility.yul\":1684:1708   */\n      tag_386\n      jump\t// in\n    tag_468:\n        /* \"#utility.yul\":1677:1682   */\n      dup2\n        /* \"#utility.yul\":1674:1709   */\n      eq\n        /* \"#utility.yul\":1664:1727   */\n      tag_469\n      jumpi\n        /* \"#utility.yul\":1723:1724   */\n      0x00\n        /* \"#utility.yul\":1720:1721   */\n      dup1\n        /* \"#utility.yul\":1713:1725   */\n      revert\n        /* \"#utility.yul\":1664:1727   */\n    tag_469:\n        /* \"#utility.yul\":1611:1733   */\n      pop\n      jump\t// out\n        /* \"#utility.yul\":1739:1878   */\n    tag_388:\n        /* \"#utility.yul\":1785:1790   */\n      0x00\n        /* \"#utility.yul\":1823:1829   */\n      dup2\n        /* \"#utility.yul\":1810:1830   */\n      calldataload\n        /* \"#utility.yul\":1801:1830   */\n      swap1\n      pop\n        /* \"#utility.yul\":1839:1872   */\n      tag_471\n        /* \"#utility.yul\":1866:1871   */\n      dup2\n        /* \"#utility.yul\":1839:1872   */\n      tag_387\n      jump\t// in\n    tag_471:\n        /* \"#utility.yul\":1739:1878   */\n      swap3\n      swap2\n      pop\n      pop\n      jump\t// out\n        /* \"#utility.yul\":1884:2213   */\n    tag_41:\n        /* \"#utility.yul\":1943:1949   */\n      0x00\n        /* \"#utility.yul\":1992:1994   */\n      0x20\n        /* \"#utility.yul\":1980:1989   */\n      dup3\n        /* \"#utility.yul\":1971:1978   */\n      dup5\n        /* \"#utility.yul\":1967:1990   */\n      sub\n        /* \"#utility.yul\":1963:1995   */\n      slt\n        /* \"#utility.yul\":1960:2079   */\n      iszero\n      tag_473\n      jumpi\n        /* \"#utility.yul\":1998:2077   */\n      tag_474\n      tag_382\n      jump\t// in\n    tag_474:\n        /* \"#utility.yul\":1960:2079   */\n    tag_473:\n        /* \"#utility.yul\":2118:2119   */\n      0x00\n        /* \"#utility.yul\":2143:2196   */\n      tag_475\n        /* \"#utility.yul\":2188:2195   */\n      dup5\n        /* \"#utility.yul\":2179:2185   */\n      dup3\n        /* \"#utility.yul\":2168:2177   */\n      dup6\n        /* \"#utility.yul\":2164:2186   */\n      add\n        /* \"#utility.yul\":2143:2196   */\n      tag_388\n      jump\t// in\n    tag_475:\n        /* \"#utility.yul\":2133:2196   */\n      swap2\n      pop\n        /* \"#utility.yul\":2089:2206   */\n      pop\n        /* \"#utility.yul\":1884:2213   */\n      swap3\n      swap2\n      pop\n      pop\n      jump\t// out\n        /* \"#utility.yul\":2219:2337   */\n    tag_389:\n        /* \"#utility.yul\":2306:2330   */\n      tag_477\n        /* \"#utility.yul\":2324:2329   */\n      dup2\n        /* \"#utility.yul\":2306:2330   */\n      tag_386\n      jump\t// in\n    tag_477:\n        /* \"#utility.yul\":2301:2304   */\n      dup3\n        /* \"#utility.yul\":2294:2331   */\n      mstore\n        /* \"#utility.yul\":2219:2337   */\n      pop\n      pop\n      jump\t// out\n        /* \"#utility.yul\":2343:2565   */\n    tag_54:\n        /* \"#utility.yul\":2436:2440   */\n      0x00\n        /* \"#utility.yul\":2474:2476   */\n      0x20\n        /* \"#utility.yul\":2463:2472   */\n      dup3\n        /* \"#utility.yul\":2459:2477   */\n      add\n        /* \"#utility.yul\":2451:2477   */\n      swap1\n      pop\n        /* \"#utility.yul\":2487:2558   */\n      tag_479\n        /* \"#utility.yul\":2555:2556   */\n      0x00\n        /* \"#utility.yul\":2544:2553   */\n      dup4\n        /* \"#utility.yul\":2540:2557   */\n      add\n        /* \"#utility.yul\":2531:2537   */\n      dup5\n        /* \"#utility.yul\":2487:2558   */\n      tag_389\n      jump\t// in\n    tag_479:\n        /* \"#utility.yul\":2343:2565   */\n      swap3\n      swap2\n      pop\n      pop\n      jump\t// out\n        /* \"#utility.yul\":2571:3045   */\n    tag_62:\n        /* \"#utility.yul\":2639:2645   */\n      0x00\n        /* \"#utility.yul\":2647:2653   */\n      dup1\n        /* \"#utility.yul\":2696:2698   */\n      0x40\n        /* \"#utility.yul\":2684:2693   */\n      dup4\n        /* \"#utility.yul\":2675:2682   */\n      dup6\n        /* \"#utility.yul\":2671:2694   */\n      sub\n        /* \"#utility.yul\":2667:2699   */\n      slt\n        /* \"#utility.yul\":2664:2783   */\n      iszero\n      tag_481\n      jumpi\n        /* \"#utility.yul\":2702:2781   */\n      tag_482\n      tag_382\n      jump\t// in\n    tag_482:\n        /* \"#utility.yul\":2664:2783   */\n    tag_481:\n        /* \"#utility.yul\":2822:2823   */\n      0x00\n        /* \"#utility.yul\":2847:2900   */\n      tag_483\n        /* \"#utility.yul\":2892:2899   */\n      dup6\n        /* \"#utility.yul\":2883:2889   */\n      dup3\n        /* \"#utility.yul\":2872:2881   */\n      dup7\n        /* \"#utility.yul\":2868:2890   */\n      add\n        /* \"#utility.yul\":2847:2900   */\n      tag_385\n      jump\t// in\n    tag_483:\n        /* \"#utility.yul\":2837:2900   */\n      swap3\n      pop\n        /* \"#utility.yul\":2793:2910   */\n      pop\n        /* \"#utility.yul\":2949:2951   */\n      0x20\n        /* \"#utility.yul\":2975:3028   */\n      tag_484\n        /* \"#utility.yul\":3020:3027   */\n      dup6\n        /* \"#utility.yul\":3011:3017   */\n      dup3\n        /* \"#utility.yul\":3000:3009   */\n      dup7\n        /* \"#utility.yul\":2996:3018   */\n      add\n        /* \"#utility.yul\":2975:3028   */\n      tag_388\n      jump\t// in\n    tag_484:\n        /* \"#utility.yul\":2965:3028   */\n      swap2\n      pop\n        /* \"#utility.yul\":2920:3038   */\n      pop\n        /* \"#utility.yul\":2571:3045   */\n      swap3\n      pop\n      swap3\n      swap1\n      pop\n      jump\t// out\n        /* \"#utility.yul\":3051:3168   */\n    tag_390:\n        /* \"#utility.yul\":3160:3161   */\n      0x00\n        /* \"#utility.yul\":3157:3158   */\n      dup1\n        /* \"#utility.yul\":3150:3162   */\n      revert\n        /* \"#utility.yul\":3174:3276   */\n    tag_391:\n        /* \"#utility.yul\":3215:3221   */\n      0x00\n        /* \"#utility.yul\":3266:3268   */\n      0x1f\n        /* \"#utility.yul\":3262:3269   */\n      not\n        /* \"#utility.yul\":3257:3259   */\n      0x1f\n        /* \"#utility.yul\":3250:3255   */\n      dup4\n        /* \"#utility.yul\":3246:3260   */\n      add\n        /* \"#utility.yul\":3242:3270   */\n      and\n        /* \"#utility.yul\":3232:3270   */\n      swap1\n      pop\n        /* \"#utility.yul\":3174:3276   */\n      swap2\n      swap1\n      pop\n      jump\t// out\n        /* \"#utility.yul\":3282:3462   */\n    tag_247:\n        /* \"#utility.yul\":3330:3407   */\n      0x4e487b7100000000000000000000000000000000000000000000000000000000\n        /* \"#utility.yul\":3327:3328   */\n      0x00\n        /* \"#utility.yul\":3320:3408   */\n      mstore\n        /* \"#utility.yul\":3427:3431   */\n      0x41\n        /* \"#utility.yul\":3424:3425   */\n      0x04\n        /* \"#utility.yul\":3417:3432   */\n      mstore\n        /* \"#utility.yul\":3451:3455   */\n      0x24\n        /* \"#utility.yul\":3448:3449   */\n      0x00\n        /* \"#utility.yul\":3441:3456   */\n      revert\n        /* \"#utility.yul\":3468:3749   */\n    tag_392:\n        /* \"#utility.yul\":3551:3578   */\n      tag_489\n        /* \"#utility.yul\":3573:3577   */\n      dup3\n        /* \"#utility.yul\":3551:3578   */\n      tag_391\n      jump\t// in\n    tag_489:\n        /* \"#utility.yul\":3543:3549   */\n      dup2\n        /* \"#utility.yul\":3539:3579   */\n      add\n        /* \"#utility.yul\":3681:3687   */\n      dup2\n        /* \"#utility.yul\":3669:3679   */\n      dup2\n        /* \"#utility.yul\":3666:3688   */\n      lt\n        /* \"#utility.yul\":3645:3663   */\n      0xffffffffffffffff\n        /* \"#utility.yul\":3633:3643   */\n      dup3\n        /* \"#utility.yul\":3630:3664   */\n      gt\n        /* \"#utility.yul\":3627:3689   */\n      or\n        /* \"#utility.yul\":3624:3712   */\n      iszero\n      tag_490\n      jumpi\n        /* \"#utility.yul\":3692:3710   */\n      tag_491\n      tag_247\n      jump\t// in\n    tag_491:\n        /* \"#utility.yul\":3624:3712   */\n    tag_490:\n        /* \"#utility.yul\":3732:3742   */\n      dup1\n        /* \"#utility.yul\":3728:3730   */\n      0x40\n        /* \"#utility.yul\":3721:3743   */\n      mstore\n        /* \"#utility.yul\":3511:3749   */\n      pop\n        /* \"#utility.yul\":3468:3749   */\n      pop\n      pop\n      jump\t// out\n        /* \"#utility.yul\":3755:3884   */\n    tag_393:\n        /* \"#utility.yul\":3789:3795   */\n      0x00\n        /* \"#utility.yul\":3816:3836   */\n      tag_493\n      tag_381\n      jump\t// in\n    tag_493:\n        /* \"#utility.yul\":3806:3836   */\n      swap1\n      pop\n        /* \"#utility.yul\":3845:3878   */\n      tag_494\n        /* \"#utility.yul\":3873:3877   */\n      dup3\n        /* \"#utility.yul\":3865:3871   */\n      dup3\n        /* \"#utility.yul\":3845:3878   */\n      tag_392\n      jump\t// in\n    tag_494:\n        /* \"#utility.yul\":3755:3884   */\n      swap2\n      swap1\n      pop\n      jump\t// out\n        /* \"#utility.yul\":3890:4201   */\n    tag_394:\n        /* \"#utility.yul\":3967:3971   */\n      0x00\n        /* \"#utility.yul\":4057:4075   */\n      0xffffffffffffffff\n        /* \"#utility.yul\":4049:4055   */\n      dup3\n        /* \"#utility.yul\":4046:4076   */\n      gt\n        /* \"#utility.yul\":4043:4099   */\n      iszero\n      tag_496\n      jumpi\n        /* \"#utility.yul\":4079:4097   */\n      tag_497\n      tag_247\n      jump\t// in\n    tag_497:\n        /* \"#utility.yul\":4043:4099   */\n    tag_496:\n        /* \"#utility.yul\":4129:4133   */\n      0x20\n        /* \"#utility.yul\":4121:4127   */\n      dup3\n        /* \"#utility.yul\":4117:4134   */\n      mul\n        /* \"#utility.yul\":4109:4134   */\n      swap1\n      pop\n        /* \"#utility.yul\":4189:4193   */\n      0x20\n        /* \"#utility.yul\":4183:4187   */\n      dup2\n        /* \"#utility.yul\":4179:4194   */\n      add\n        /* \"#utility.yul\":4171:4194   */\n      swap1\n      pop\n        /* \"#utility.yul\":3890:4201   */\n      swap2\n      swap1\n      pop\n      jump\t// out\n        /* \"#utility.yul\":4207:4324   */\n    tag_395:\n        /* \"#utility.yul\":4316:4317   */\n      0x00\n        /* \"#utility.yul\":4313:4314   */\n      dup1\n        /* \"#utility.yul\":4306:4318   */\n      revert\n        /* \"#utility.yul\":4347:5057   */\n    tag_396:\n        /* \"#utility.yul\":4443:4448   */\n      0x00\n        /* \"#utility.yul\":4468:4549   */\n      tag_500\n        /* \"#utility.yul\":4484:4548   */\n      tag_501\n        /* \"#utility.yul\":4541:4547   */\n      dup5\n        /* \"#utility.yul\":4484:4548   */\n      tag_394\n      jump\t// in\n    tag_501:\n        /* \"#utility.yul\":4468:4549   */\n      tag_393\n      jump\t// in\n    tag_500:\n        /* \"#utility.yul\":4459:4549   */\n      swap1\n      pop\n        /* \"#utility.yul\":4569:4574   */\n      dup1\n        /* \"#utility.yul\":4598:4604   */\n      dup4\n        /* \"#utility.yul\":4591:4596   */\n      dup3\n        /* \"#utility.yul\":4584:4605   */\n      mstore\n        /* \"#utility.yul\":4632:4636   */\n      0x20\n        /* \"#utility.yul\":4625:4630   */\n      dup3\n        /* \"#utility.yul\":4621:4637   */\n      add\n        /* \"#utility.yul\":4614:4637   */\n      swap1\n      pop\n        /* \"#utility.yul\":4685:4689   */\n      0x20\n        /* \"#utility.yul\":4677:4683   */\n      dup5\n        /* \"#utility.yul\":4673:4690   */\n      mul\n        /* \"#utility.yul\":4665:4671   */\n      dup4\n        /* \"#utility.yul\":4661:4691   */\n      add\n        /* \"#utility.yul\":4714:4717   */\n      dup6\n        /* \"#utility.yul\":4706:4712   */\n      dup2\n        /* \"#utility.yul\":4703:4718   */\n      gt\n        /* \"#utility.yul\":4700:4822   */\n      iszero\n      tag_502\n      jumpi\n        /* \"#utility.yul\":4733:4812   */\n      tag_503\n      tag_395\n      jump\t// in\n    tag_503:\n        /* \"#utility.yul\":4700:4822   */\n    tag_502:\n        /* \"#utility.yul\":4848:4854   */\n      dup4\n        /* \"#utility.yul\":4831:5051   */\n    tag_504:\n        /* \"#utility.yul\":4865:4871   */\n      dup2\n        /* \"#utility.yul\":4860:4863   */\n      dup2\n        /* \"#utility.yul\":4857:4872   */\n      lt\n        /* \"#utility.yul\":4831:5051   */\n      iszero\n      tag_506\n      jumpi\n        /* \"#utility.yul\":4940:4943   */\n      dup1\n        /* \"#utility.yul\":4969:5006   */\n      tag_507\n        /* \"#utility.yul\":5002:5005   */\n      dup9\n        /* \"#utility.yul\":4990:5000   */\n      dup3\n        /* \"#utility.yul\":4969:5006   */\n      tag_385\n      jump\t// in\n    tag_507:\n        /* \"#utility.yul\":4964:4967   */\n      dup5\n        /* \"#utility.yul\":4957:5007   */\n      mstore\n        /* \"#utility.yul\":5036:5040   */\n      0x20\n        /* \"#utility.yul\":5031:5034   */\n      dup5\n        /* \"#utility.yul\":5027:5041   */\n      add\n        /* \"#utility.yul\":5020:5041   */\n      swap4\n      pop\n        /* \"#utility.yul\":4907:5051   */\n      pop\n        /* \"#utility.yul\":4891:4895   */\n      0x20\n        /* \"#utility.yul\":4886:4889   */\n      dup2\n        /* \"#utility.yul\":4882:4896   */\n      add\n        /* \"#utility.yul\":4875:4896   */\n      swap1\n      pop\n        /* \"#utility.yul\":4831:5051   */\n      jump(tag_504)\n    tag_506:\n        /* \"#utility.yul\":4835:4856   */\n      pop\n        /* \"#utility.yul\":4449:5057   */\n      pop\n      pop\n        /* \"#utility.yul\":4347:5057   */\n      swap4\n      swap3\n      pop\n      pop\n      pop\n      jump\t// out\n        /* \"#utility.yul\":5080:5450   */\n    tag_397:\n        /* \"#utility.yul\":5151:5156   */\n      0x00\n        /* \"#utility.yul\":5200:5203   */\n      dup3\n        /* \"#utility.yul\":5193:5197   */\n      0x1f\n        /* \"#utility.yul\":5185:5191   */\n      dup4\n        /* \"#utility.yul\":5181:5198   */\n      add\n        /* \"#utility.yul\":5177:5204   */\n      slt\n        /* \"#utility.yul\":5167:5289   */\n      tag_509\n      jumpi\n        /* \"#utility.yul\":5208:5287   */\n      tag_510\n      tag_390\n      jump\t// in\n    tag_510:\n        /* \"#utility.yul\":5167:5289   */\n    tag_509:\n        /* \"#utility.yul\":5325:5331   */\n      dup2\n        /* \"#utility.yul\":5312:5332   */\n      calldataload\n        /* \"#utility.yul\":5350:5444   */\n      tag_511\n        /* \"#utility.yul\":5440:5443   */\n      dup5\n        /* \"#utility.yul\":5432:5438   */\n      dup3\n        /* \"#utility.yul\":5425:5429   */\n      0x20\n        /* \"#utility.yul\":5417:5423   */\n      dup7\n        /* \"#utility.yul\":5413:5430   */\n      add\n        /* \"#utility.yul\":5350:5444   */\n      tag_396\n      jump\t// in\n    tag_511:\n        /* \"#utility.yul\":5341:5444   */\n      swap2\n      pop\n        /* \"#utility.yul\":5157:5450   */\n      pop\n        /* \"#utility.yul\":5080:5450   */\n      swap3\n      swap2\n      pop\n      pop\n      jump\t// out\n        /* \"#utility.yul\":5456:5767   */\n    tag_398:\n        /* \"#utility.yul\":5533:5537   */\n      0x00\n        /* \"#utility.yul\":5623:5641   */\n      0xffffffffffffffff\n        /* \"#utility.yul\":5615:5621   */\n      dup3\n        /* \"#utility.yul\":5612:5642   */\n      gt\n        /* \"#utility.yul\":5609:5665   */\n      iszero\n      tag_513\n      jumpi\n        /* \"#utility.yul\":5645:5663   */\n      tag_514\n      tag_247\n      jump\t// in\n    tag_514:\n        /* \"#utility.yul\":5609:5665   */\n    tag_513:\n        /* \"#utility.yul\":5695:5699   */\n      0x20\n        /* \"#utility.yul\":5687:5693   */\n      dup3\n        /* \"#utility.yul\":5683:5700   */\n      mul\n        /* \"#utility.yul\":5675:5700   */\n      swap1\n      pop\n        /* \"#utility.yul\":5755:5759   */\n      0x20\n        /* \"#utility.yul\":5749:5753   */\n      dup2\n        /* \"#utility.yul\":5745:5760   */\n      add\n        /* \"#utility.yul\":5737:5760   */\n      swap1\n      pop\n        /* \"#utility.yul\":5456:5767   */\n      swap2\n      swap1\n      pop\n      jump\t// out\n        /* \"#utility.yul\":5790:6500   */\n    tag_399:\n        /* \"#utility.yul\":5886:5891   */\n      0x00\n        /* \"#utility.yul\":5911:5992   */\n      tag_516\n        /* \"#utility.yul\":5927:5991   */\n      tag_517\n        /* \"#utility.yul\":5984:5990   */\n      dup5\n        /* \"#utility.yul\":5927:5991   */\n      tag_398\n      jump\t// in\n    tag_517:\n        /* \"#utility.yul\":5911:5992   */\n      tag_393\n      jump\t// in\n    tag_516:\n        /* \"#utility.yul\":5902:5992   */\n      swap1\n      pop\n        /* \"#utility.yul\":6012:6017   */\n      dup1\n        /* \"#utility.yul\":6041:6047   */\n      dup4\n        /* \"#utility.yul\":6034:6039   */\n      dup3\n        /* \"#utility.yul\":6027:6048   */\n      mstore\n        /* \"#utility.yul\":6075:6079   */\n      0x20\n        /* \"#utility.yul\":6068:6073   */\n      dup3\n        /* \"#utility.yul\":6064:6080   */\n      add\n        /* \"#utility.yul\":6057:6080   */\n      swap1\n      pop\n        /* \"#utility.yul\":6128:6132   */\n      0x20\n        /* \"#utility.yul\":6120:6126   */\n      dup5\n        /* \"#utility.yul\":6116:6133   */\n      mul\n        /* \"#utility.yul\":6108:6114   */\n      dup4\n        /* \"#utility.yul\":6104:6134   */\n      add\n        /* \"#utility.yul\":6157:6160   */\n      dup6\n        /* \"#utility.yul\":6149:6155   */\n      dup2\n        /* \"#utility.yul\":6146:6161   */\n      gt\n        /* \"#utility.yul\":6143:6265   */\n      iszero\n      tag_518\n      jumpi\n        /* \"#utility.yul\":6176:6255   */\n      tag_519\n      tag_395\n      jump\t// in\n    tag_519:\n        /* \"#utility.yul\":6143:6265   */\n    tag_518:\n        /* \"#utility.yul\":6291:6297   */\n      dup4\n        /* \"#utility.yul\":6274:6494   */\n    tag_520:\n        /* \"#utility.yul\":6308:6314   */\n      dup2\n        /* \"#utility.yul\":6303:6306   */\n      dup2\n        /* \"#utility.yul\":6300:6315   */\n      lt\n        /* \"#utility.yul\":6274:6494   */\n      iszero\n      tag_522\n      jumpi\n        /* \"#utility.yul\":6383:6386   */\n      dup1\n        /* \"#utility.yul\":6412:6449   */\n      tag_523\n        /* \"#utility.yul\":6445:6448   */\n      dup9\n        /* \"#utility.yul\":6433:6443   */\n      dup3\n        /* \"#utility.yul\":6412:6449   */\n      tag_388\n      jump\t// in\n    tag_523:\n        /* \"#utility.yul\":6407:6410   */\n      dup5\n        /* \"#utility.yul\":6400:6450   */\n      mstore\n        /* \"#utility.yul\":6479:6483   */\n      0x20\n        /* \"#utility.yul\":6474:6477   */\n      dup5\n        /* \"#utility.yul\":6470:6484   */\n      add\n        /* \"#utility.yul\":6463:6484   */\n      swap4\n      pop\n        /* \"#utility.yul\":6350:6494   */\n      pop\n        /* \"#utility.yul\":6334:6338   */\n      0x20\n        /* \"#utility.yul\":6329:6332   */\n      dup2\n        /* \"#utility.yul\":6325:6339   */\n      add\n        /* \"#utility.yul\":6318:6339   */\n      swap1\n      pop\n        /* \"#utility.yul\":6274:6494   */\n      jump(tag_520)\n    tag_522:\n        /* \"#utility.yul\":6278:6299   */\n      pop\n        /* \"#utility.yul\":5892:6500   */\n      pop\n      pop\n        /* \"#utility.yul\":5790:6500   */\n      swap4\n      swap3\n      pop\n      pop\n      pop\n      jump\t// out\n        /* \"#utility.yul\":6523:6893   */\n    tag_400:\n        /* \"#utility.yul\":6594:6599   */\n      0x00\n        /* \"#utility.yul\":6643:6646   */\n      dup3\n        /* \"#utility.yul\":6636:6640   */\n      0x1f\n        /* \"#utility.yul\":6628:6634   */\n      dup4\n        /* \"#utility.yul\":6624:6641   */\n      add\n        /* \"#utility.yul\":6620:6647   */\n      slt\n        /* \"#utility.yul\":6610:6732   */\n      tag_525\n      jumpi\n        /* \"#utility.yul\":6651:6730   */\n      tag_526\n      tag_390\n      jump\t// in\n    tag_526:\n        /* \"#utility.yul\":6610:6732   */\n    tag_525:\n        /* \"#utility.yul\":6768:6774   */\n      dup2\n        /* \"#utility.yul\":6755:6775   */\n      calldataload\n        /* \"#utility.yul\":6793:6887   */\n      tag_527\n        /* \"#utility.yul\":6883:6886   */\n      dup5\n        /* \"#utility.yul\":6875:6881   */\n      dup3\n        /* \"#utility.yul\":6868:6872   */\n      0x20\n        /* \"#utility.yul\":6860:6866   */\n      dup7\n        /* \"#utility.yul\":6856:6873   */\n      add\n        /* \"#utility.yul\":6793:6887   */\n      tag_399\n      jump\t// in\n    tag_527:\n        /* \"#utility.yul\":6784:6887   */\n      swap2\n      pop\n        /* \"#utility.yul\":6600:6893   */\n      pop\n        /* \"#utility.yul\":6523:6893   */\n      swap3\n      swap2\n      pop\n      pop\n      jump\t// out\n        /* \"#utility.yul\":6899:7793   */\n    tag_67:\n        /* \"#utility.yul\":7017:7023   */\n      0x00\n        /* \"#utility.yul\":7025:7031   */\n      dup1\n        /* \"#utility.yul\":7074:7076   */\n      0x40\n        /* \"#utility.yul\":7062:7071   */\n      dup4\n        /* \"#utility.yul\":7053:7060   */\n      dup6\n        /* \"#utility.yul\":7049:7072   */\n      sub\n        /* \"#utility.yul\":7045:7077   */\n      slt\n        /* \"#utility.yul\":7042:7161   */\n      iszero\n      tag_529\n      jumpi\n        /* \"#utility.yul\":7080:7159   */\n      tag_530\n      tag_382\n      jump\t// in\n    tag_530:\n        /* \"#utility.yul\":7042:7161   */\n    tag_529:\n        /* \"#utility.yul\":7228:7229   */\n      0x00\n        /* \"#utility.yul\":7217:7226   */\n      dup4\n        /* \"#utility.yul\":7213:7230   */\n      add\n        /* \"#utility.yul\":7200:7231   */\n      calldataload\n        /* \"#utility.yul\":7258:7276   */\n      0xffffffffffffffff\n        /* \"#utility.yul\":7250:7256   */\n      dup2\n        /* \"#utility.yul\":7247:7277   */\n      gt\n        /* \"#utility.yul\":7244:7361   */\n      iszero\n      tag_531\n      jumpi\n        /* \"#utility.yul\":7280:7359   */\n      tag_532\n      tag_383\n      jump\t// in\n    tag_532:\n        /* \"#utility.yul\":7244:7361   */\n    tag_531:\n        /* \"#utility.yul\":7385:7463   */\n      tag_533\n        /* \"#utility.yul\":7455:7462   */\n      dup6\n        /* \"#utility.yul\":7446:7452   */\n      dup3\n        /* \"#utility.yul\":7435:7444   */\n      dup7\n        /* \"#utility.yul\":7431:7453   */\n      add\n        /* \"#utility.yul\":7385:7463   */\n      tag_397\n      jump\t// in\n    tag_533:\n        /* \"#utility.yul\":7375:7463   */\n      swap3\n      pop\n        /* \"#utility.yul\":7171:7473   */\n      pop\n        /* \"#utility.yul\":7540:7542   */\n      0x20\n        /* \"#utility.yul\":7529:7538   */\n      dup4\n        /* \"#utility.yul\":7525:7543   */\n      add\n        /* \"#utility.yul\":7512:7544   */\n      calldataload\n        /* \"#utility.yul\":7571:7589   */\n      0xffffffffffffffff\n        /* \"#utility.yul\":7563:7569   */\n      dup2\n        /* \"#utility.yul\":7560:7590   */\n      gt\n        /* \"#utility.yul\":7557:7674   */\n      iszero\n      tag_534\n      jumpi\n        /* \"#utility.yul\":7593:7672   */\n      tag_535\n      tag_383\n      jump\t// in\n    tag_535:\n        /* \"#utility.yul\":7557:7674   */\n    tag_534:\n        /* \"#utility.yul\":7698:7776   */\n      tag_536\n        /* \"#utility.yul\":7768:7775   */\n      dup6\n        /* \"#utility.yul\":7759:7765   */\n      dup3\n        /* \"#utility.yul\":7748:7757   */\n      dup7\n        /* \"#utility.yul\":7744:7766   */\n      add\n        /* \"#utility.yul\":7698:7776   */\n      tag_400\n      jump\t// in\n    tag_536:\n        /* \"#utility.yul\":7688:7776   */\n      swap2\n      pop\n        /* \"#utility.yul\":7483:7786   */\n      pop\n        /* \"#utility.yul\":6899:7793   */\n      swap3\n      pop\n      swap3\n      swap1\n      pop\n      jump\t// out\n        /* \"#utility.yul\":7799:8774   */\n    tag_71:\n        /* \"#utility.yul\":7910:7916   */\n      0x00\n        /* \"#utility.yul\":7918:7924   */\n      dup1\n        /* \"#utility.yul\":7926:7932   */\n      0x00\n        /* \"#utility.yul\":7934:7940   */\n      dup1\n        /* \"#utility.yul\":7983:7986   */\n      0x80\n        /* \"#utility.yul\":7971:7980   */\n      dup6\n        /* \"#utility.yul\":7962:7969   */\n      dup8\n        /* \"#utility.yul\":7958:7981   */\n      sub\n        /* \"#utility.yul\":7954:7987   */\n      slt\n        /* \"#utility.yul\":7951:8071   */\n      iszero\n      tag_538\n      jumpi\n        /* \"#utility.yul\":7990:8069   */\n      tag_539\n      tag_382\n      jump\t// in\n    tag_539:\n        /* \"#utility.yul\":7951:8071   */\n    tag_538:\n        /* \"#utility.yul\":8110:8111   */\n      0x00\n        /* \"#utility.yul\":8135:8188   */\n      tag_540\n        /* \"#utility.yul\":8180:8187   */\n      dup8\n        /* \"#utility.yul\":8171:8177   */\n      dup3\n        /* \"#utility.yul\":8160:8169   */\n      dup9\n        /* \"#utility.yul\":8156:8178   */\n      add\n        /* \"#utility.yul\":8135:8188   */\n      tag_385\n      jump\t// in\n    tag_540:\n        /* \"#utility.yul\":8125:8188   */\n      swap5\n      pop\n        /* \"#utility.yul\":8081:8198   */\n      pop\n        /* \"#utility.yul\":8237:8239   */\n      0x20\n        /* \"#utility.yul\":8263:8316   */\n      tag_541\n        /* \"#utility.yul\":8308:8315   */\n      dup8\n        /* \"#utility.yul\":8299:8305   */\n      dup3\n        /* \"#utility.yul\":8288:8297   */\n      dup9\n        /* \"#utility.yul\":8284:8306   */\n      add\n        /* \"#utility.yul\":8263:8316   */\n      tag_385\n      jump\t// in\n    tag_541:\n        /* \"#utility.yul\":8253:8316   */\n      swap4\n      pop\n        /* \"#utility.yul\":8208:8326   */\n      pop\n        /* \"#utility.yul\":8365:8367   */\n      0x40\n        /* \"#utility.yul\":8391:8444   */\n      tag_542\n        /* \"#utility.yul\":8436:8443   */\n      dup8\n        /* \"#utility.yul\":8427:8433   */\n      dup3\n        /* \"#utility.yul\":8416:8425   */\n      dup9\n        /* \"#utility.yul\":8412:8434   */\n      add\n        /* \"#utility.yul\":8391:8444   */\n      tag_388\n      jump\t// in\n    tag_542:\n        /* \"#utility.yul\":8381:8444   */\n      swap3\n      pop\n        /* \"#utility.yul\":8336:8454   */\n      pop\n        /* \"#utility.yul\":8521:8523   */\n      0x60\n        /* \"#utility.yul\":8510:8519   */\n      dup6\n        /* \"#utility.yul\":8506:8524   */\n      add\n        /* \"#utility.yul\":8493:8525   */\n      calldataload\n        /* \"#utility.yul\":8552:8570   */\n      0xffffffffffffffff\n        /* \"#utility.yul\":8544:8550   */\n      dup2\n        /* \"#utility.yul\":8541:8571   */\n      gt\n        /* \"#utility.yul\":8538:8655   */\n      iszero\n      tag_543\n      jumpi\n        /* \"#utility.yul\":8574:8653   */\n      tag_544\n      tag_383\n      jump\t// in\n    tag_544:\n        /* \"#utility.yul\":8538:8655   */\n    tag_543:\n        /* \"#utility.yul\":8679:8757   */\n      tag_545\n        /* \"#utility.yul\":8749:8756   */\n      dup8\n        /* \"#utility.yul\":8740:8746   */\n      dup3\n        /* \"#utility.yul\":8729:8738   */\n      dup9\n        /* \"#utility.yul\":8725:8747   */\n      add\n        /* \"#utility.yul\":8679:8757   */\n      tag_397\n      jump\t// in\n    tag_545:\n        /* \"#utility.yul\":8669:8757   */\n      swap2\n      pop\n        /* \"#utility.yul\":8464:8767   */\n      pop\n        /* \"#utility.yul\":7799:8774   */\n      swap3\n      swap6\n      swap2\n      swap5\n      pop\n      swap3\n      pop\n      jump\t// out\n        /* \"#utility.yul\":8780:9319   */\n    tag_76:\n        /* \"#utility.yul\":8864:8870   */\n      0x00\n        /* \"#utility.yul\":8913:8915   */\n      0x20\n        /* \"#utility.yul\":8901:8910   */\n      dup3\n        /* \"#utility.yul\":8892:8899   */\n      dup5\n        /* \"#utility.yul\":8888:8911   */\n      sub\n        /* \"#utility.yul\":8884:8916   */\n      slt\n        /* \"#utility.yul\":8881:9000   */\n      iszero\n      tag_547\n      jumpi\n        /* \"#utility.yul\":8919:8998   */\n      tag_548\n      tag_382\n      jump\t// in\n    tag_548:\n        /* \"#utility.yul\":8881:9000   */\n    tag_547:\n        /* \"#utility.yul\":9067:9068   */\n      0x00\n        /* \"#utility.yul\":9056:9065   */\n      dup3\n        /* \"#utility.yul\":9052:9069   */\n      add\n        /* \"#utility.yul\":9039:9070   */\n      calldataload\n        /* \"#utility.yul\":9097:9115   */\n      0xffffffffffffffff\n        /* \"#utility.yul\":9089:9095   */\n      dup2\n        /* \"#utility.yul\":9086:9116   */\n      gt\n        /* \"#utility.yul\":9083:9200   */\n      iszero\n      tag_549\n      jumpi\n        /* \"#utility.yul\":9119:9198   */\n      tag_550\n      tag_383\n      jump\t// in\n    tag_550:\n        /* \"#utility.yul\":9083:9200   */\n    tag_549:\n        /* \"#utility.yul\":9224:9302   */\n      tag_551\n        /* \"#utility.yul\":9294:9301   */\n      dup5\n        /* \"#utility.yul\":9285:9291   */\n      dup3\n        /* \"#utility.yul\":9274:9283   */\n      dup6\n        /* \"#utility.yul\":9270:9292   */\n      add\n        /* \"#utility.yul\":9224:9302   */\n      tag_397\n      jump\t// in\n    tag_551:\n        /* \"#utility.yul\":9214:9302   */\n      swap2\n      pop\n        /* \"#utility.yul\":9010:9312   */\n      pop\n        /* \"#utility.yul\":8780:9319   */\n      swap3\n      swap2\n      pop\n      pop\n      jump\t// out\n        /* \"#utility.yul\":9325:10009   */\n    tag_85:\n        /* \"#utility.yul\":9418:9424   */\n      0x00\n        /* \"#utility.yul\":9426:9432   */\n      dup1\n        /* \"#utility.yul\":9475:9477   */\n      0x40\n        /* \"#utility.yul\":9463:9472   */\n      dup4\n        /* \"#utility.yul\":9454:9461   */\n      dup6\n        /* \"#utility.yul\":9450:9473   */\n      sub\n        /* \"#utility.yul\":9446:9478   */\n      slt\n        /* \"#utility.yul\":9443:9562   */\n      iszero\n      tag_553\n      jumpi\n        /* \"#utility.yul\":9481:9560   */\n      tag_554\n      tag_382\n      jump\t// in\n    tag_554:\n        /* \"#utility.yul\":9443:9562   */\n    tag_553:\n        /* \"#utility.yul\":9601:9602   */\n      0x00\n        /* \"#utility.yul\":9626:9679   */\n      tag_555\n        /* \"#utility.yul\":9671:9678   */\n      dup6\n        /* \"#utility.yul\":9662:9668   */\n      dup3\n        /* \"#utility.yul\":9651:9660   */\n      dup7\n        /* \"#utility.yul\":9647:9669   */\n      add\n        /* \"#utility.yul\":9626:9679   */\n      tag_388\n      jump\t// in\n    tag_555:\n        /* \"#utility.yul\":9616:9679   */\n      swap3\n      pop\n        /* \"#utility.yul\":9572:9689   */\n      pop\n        /* \"#utility.yul\":9756:9758   */\n      0x20\n        /* \"#utility.yul\":9745:9754   */\n      dup4\n        /* \"#utility.yul\":9741:9759   */\n      add\n        /* \"#utility.yul\":9728:9760   */\n      calldataload\n        /* \"#utility.yul\":9787:9805   */\n      0xffffffffffffffff\n        /* \"#utility.yul\":9779:9785   */\n      dup2\n        /* \"#utility.yul\":9776:9806   */\n      gt\n        /* \"#utility.yul\":9773:9890   */\n      iszero\n      tag_556\n      jumpi\n        /* \"#utility.yul\":9809:9888   */\n      tag_557\n      tag_383\n      jump\t// in\n    tag_557:\n        /* \"#utility.yul\":9773:9890   */\n    tag_556:\n        /* \"#utility.yul\":9914:9992   */\n      tag_558\n        /* \"#utility.yul\":9984:9991   */\n      dup6\n        /* \"#utility.yul\":9975:9981   */\n      dup3\n        /* \"#utility.yul\":9964:9973   */\n      dup7\n        /* \"#utility.yul\":9960:9982   */\n      add\n        /* \"#utility.yul\":9914:9992   */\n      tag_397\n      jump\t// in\n    tag_558:\n        /* \"#utility.yul\":9904:9992   */\n      swap2\n      pop\n        /* \"#utility.yul\":9699:10002   */\n      pop\n        /* \"#utility.yul\":9325:10009   */\n      swap3\n      pop\n      swap3\n      swap1\n      pop\n      jump\t// out\n        /* \"#utility.yul\":10015:10105   */\n    tag_401:\n        /* \"#utility.yul\":10049:10056   */\n      0x00\n        /* \"#utility.yul\":10092:10097   */\n      dup2\n        /* \"#utility.yul\":10085:10098   */\n      iszero\n        /* \"#utility.yul\":10078:10099   */\n      iszero\n        /* \"#utility.yul\":10067:10099   */\n      swap1\n      pop\n        /* \"#utility.yul\":10015:10105   */\n      swap2\n      swap1\n      pop\n      jump\t// out\n        /* \"#utility.yul\":10111:10220   */\n    tag_402:\n        /* \"#utility.yul\":10192:10213   */\n      tag_561\n        /* \"#utility.yul\":10207:10212   */\n      dup2\n        /* \"#utility.yul\":10192:10213   */\n      tag_401\n      jump\t// in\n    tag_561:\n        /* \"#utility.yul\":10187:10190   */\n      dup3\n        /* \"#utility.yul\":10180:10214   */\n      mstore\n        /* \"#utility.yul\":10111:10220   */\n      pop\n      pop\n      jump\t// out\n        /* \"#utility.yul\":10226:10436   */\n    tag_93:\n        /* \"#utility.yul\":10313:10317   */\n      0x00\n        /* \"#utility.yul\":10351:10353   */\n      0x20\n        /* \"#utility.yul\":10340:10349   */\n      dup3\n        /* \"#utility.yul\":10336:10354   */\n      add\n        /* \"#utility.yul\":10328:10354   */\n      swap1\n      pop\n        /* \"#utility.yul\":10364:10429   */\n      tag_563\n        /* \"#utility.yul\":10426:10427   */\n      0x00\n        /* \"#utility.yul\":10415:10424   */\n      dup4\n        /* \"#utility.yul\":10411:10428   */\n      add\n        /* \"#utility.yul\":10402:10408   */\n      dup5\n        /* \"#utility.yul\":10364:10429   */\n      tag_402\n      jump\t// in\n    tag_563:\n        /* \"#utility.yul\":10226:10436   */\n      swap3\n      swap2\n      pop\n      pop\n      jump\t// out\n        /* \"#utility.yul\":10442:10916   */\n    tag_97:\n        /* \"#utility.yul\":10510:10516   */\n      0x00\n        /* \"#utility.yul\":10518:10524   */\n      dup1\n        /* \"#utility.yul\":10567:10569   */\n      0x40\n        /* \"#utility.yul\":10555:10564   */\n      dup4\n        /* \"#utility.yul\":10546:10553   */\n      dup6\n        /* \"#utility.yul\":10542:10565   */\n      sub\n        /* \"#utility.yul\":10538:10570   */\n      slt\n        /* \"#utility.yul\":10535:10654   */\n      iszero\n      tag_565\n      jumpi\n        /* \"#utility.yul\":10573:10652   */\n      tag_566\n      tag_382\n      jump\t// in\n    tag_566:\n        /* \"#utility.yul\":10535:10654   */\n    tag_565:\n        /* \"#utility.yul\":10693:10694   */\n      0x00\n        /* \"#utility.yul\":10718:10771   */\n      tag_567\n        /* \"#utility.yul\":10763:10770   */\n      dup6\n        /* \"#utility.yul\":10754:10760   */\n      dup3\n        /* \"#utility.yul\":10743:10752   */\n      dup7\n        /* \"#utility.yul\":10739:10761   */\n      add\n        /* \"#utility.yul\":10718:10771   */\n      tag_385\n      jump\t// in\n    tag_567:\n        /* \"#utility.yul\":10708:10771   */\n      swap3\n      pop\n        /* \"#utility.yul\":10664:10781   */\n      pop\n        /* \"#utility.yul\":10820:10822   */\n      0x20\n        /* \"#utility.yul\":10846:10899   */\n      tag_568\n        /* \"#utility.yul\":10891:10898   */\n      dup6\n        /* \"#utility.yul\":10882:10888   */\n      dup3\n        /* \"#utility.yul\":10871:10880   */\n      dup7\n        /* \"#utility.yul\":10867:10889   */\n      add\n        /* \"#utility.yul\":10846:10899   */\n      tag_385\n      jump\t// in\n    tag_568:\n        /* \"#utility.yul\":10836:10899   */\n      swap2\n      pop\n        /* \"#utility.yul\":10791:10909   */\n      pop\n        /* \"#utility.yul\":10442:10916   */\n      swap3\n      pop\n      swap3\n      swap1\n      pop\n      jump\t// out\n        /* \"#utility.yul\":10922:11541   */\n    tag_101:\n        /* \"#utility.yul\":10999:11005   */\n      0x00\n        /* \"#utility.yul\":11007:11013   */\n      dup1\n        /* \"#utility.yul\":11015:11021   */\n      0x00\n        /* \"#utility.yul\":11064:11066   */\n      0x60\n        /* \"#utility.yul\":11052:11061   */\n      dup5\n        /* \"#utility.yul\":11043:11050   */\n      dup7\n        /* \"#utility.yul\":11039:11062   */\n      sub\n        /* \"#utility.yul\":11035:11067   */\n      slt\n        /* \"#utility.yul\":11032:11151   */\n      iszero\n      tag_570\n      jumpi\n        /* \"#utility.yul\":11070:11149   */\n      tag_571\n      tag_382\n      jump\t// in\n    tag_571:\n        /* \"#utility.yul\":11032:11151   */\n    tag_570:\n        /* \"#utility.yul\":11190:11191   */\n      0x00\n        /* \"#utility.yul\":11215:11268   */\n      tag_572\n        /* \"#utility.yul\":11260:11267   */\n      dup7\n        /* \"#utility.yul\":11251:11257   */\n      dup3\n        /* \"#utility.yul\":11240:11249   */\n      dup8\n        /* \"#utility.yul\":11236:11258   */\n      add\n        /* \"#utility.yul\":11215:11268   */\n      tag_385\n      jump\t// in\n    tag_572:\n        /* \"#utility.yul\":11205:11268   */\n      swap4\n      pop\n        /* \"#utility.yul\":11161:11278   */\n      pop\n        /* \"#utility.yul\":11317:11319   */\n      0x20\n        /* \"#utility.yul\":11343:11396   */\n      tag_573\n        /* \"#utility.yul\":11388:11395   */\n      dup7\n        /* \"#utility.yul\":11379:11385   */\n      dup3\n        /* \"#utility.yul\":11368:11377   */\n      dup8\n        /* \"#utility.yul\":11364:11386   */\n      add\n        /* \"#utility.yul\":11343:11396   */\n      tag_385\n      jump\t// in\n    tag_573:\n        /* \"#utility.yul\":11333:11396   */\n      swap3\n      pop\n        /* \"#utility.yul\":11288:11406   */\n      pop\n        /* \"#utility.yul\":11445:11447   */\n      0x40\n        /* \"#utility.yul\":11471:11524   */\n      tag_574\n        /* \"#utility.yul\":11516:11523   */\n      dup7\n        /* \"#utility.yul\":11507:11513   */\n      dup3\n        /* \"#utility.yul\":11496:11505   */\n      dup8\n        /* \"#utility.yul\":11492:11514   */\n      add\n        /* \"#utility.yul\":11471:11524   */\n      tag_388\n      jump\t// in\n    tag_574:\n        /* \"#utility.yul\":11461:11524   */\n      swap2\n      pop\n        /* \"#utility.yul\":11416:11534   */\n      pop\n        /* \"#utility.yul\":10922:11541   */\n      swap3\n      pop\n      swap3\n      pop\n      swap3\n      jump\t// out\n        /* \"#utility.yul\":11547:11716   */\n    tag_403:\n        /* \"#utility.yul\":11631:11642   */\n      0x00\n        /* \"#utility.yul\":11665:11671   */\n      dup3\n        /* \"#utility.yul\":11660:11663   */\n      dup3\n        /* \"#utility.yul\":11653:11672   */\n      mstore\n        /* \"#utility.yul\":11705:11709   */\n      0x20\n        /* \"#utility.yul\":11700:11703   */\n      dup3\n        /* \"#utility.yul\":11696:11710   */\n      add\n        /* \"#utility.yul\":11681:11710   */\n      swap1\n      pop\n        /* \"#utility.yul\":11547:11716   */\n      swap3\n      swap2\n      pop\n      pop\n      jump\t// out\n        /* \"#utility.yul\":11722:11904   */\n    tag_404:\n        /* \"#utility.yul\":11862:11896   */\n      0x4f776e61626c653a2063616c6c6572206973206e6f7420746865206f776e6572\n        /* \"#utility.yul\":11858:11859   */\n      0x00\n        /* \"#utility.yul\":11850:11856   */\n      dup3\n        /* \"#utility.yul\":11846:11860   */\n      add\n        /* \"#utility.yul\":11839:11897   */\n      mstore\n        /* \"#utility.yul\":11722:11904   */\n      pop\n      jump\t// out\n        /* \"#utility.yul\":11910:12276   */\n    tag_405:\n        /* \"#utility.yul\":12052:12055   */\n      0x00\n        /* \"#utility.yul\":12073:12140   */\n      tag_578\n        /* \"#utility.yul\":12137:12139   */\n      0x20\n        /* \"#utility.yul\":12132:12135   */\n      dup4\n        /* \"#utility.yul\":12073:12140   */\n      tag_403\n      jump\t// in\n    tag_578:\n        /* \"#utility.yul\":12066:12140   */\n      swap2\n      pop\n        /* \"#utility.yul\":12149:12242   */\n      tag_579\n        /* \"#utility.yul\":12238:12241   */\n      dup3\n        /* \"#utility.yul\":12149:12242   */\n      tag_404\n      jump\t// in\n    tag_579:\n        /* \"#utility.yul\":12267:12269   */\n      0x20\n        /* \"#utility.yul\":12262:12265   */\n      dup3\n        /* \"#utility.yul\":12258:12270   */\n      add\n        /* \"#utility.yul\":12251:12270   */\n      swap1\n      pop\n        /* \"#utility.yul\":11910:12276   */\n      swap2\n      swap1\n      pop\n      jump\t// out\n        /* \"#utility.yul\":12282:12701   */\n    tag_117:\n        /* \"#utility.yul\":12448:12452   */\n      0x00\n        /* \"#utility.yul\":12486:12488   */\n      0x20\n        /* \"#utility.yul\":12475:12484   */\n      dup3\n        /* \"#utility.yul\":12471:12489   */\n      add\n        /* \"#utility.yul\":12463:12489   */\n      swap1\n      pop\n        /* \"#utility.yul\":12535:12544   */\n      dup2\n        /* \"#utility.yul\":12529:12533   */\n      dup2\n        /* \"#utility.yul\":12525:12545   */\n      sub\n        /* \"#utility.yul\":12521:12522   */\n      0x00\n        /* \"#utility.yul\":12510:12519   */\n      dup4\n        /* \"#utility.yul\":12506:12523   */\n      add\n        /* \"#utility.yul\":12499:12546   */\n      mstore\n        /* \"#utility.yul\":12563:12694   */\n      tag_581\n        /* \"#utility.yul\":12689:12693   */\n      dup2\n        /* \"#utility.yul\":12563:12694   */\n      tag_405\n      jump\t// in\n    tag_581:\n        /* \"#utility.yul\":12555:12694   */\n      swap1\n      pop\n        /* \"#utility.yul\":12282:12701   */\n      swap2\n      swap1\n      pop\n      jump\t// out\n        /* \"#utility.yul\":12707:12887   */\n    tag_163:\n        /* \"#utility.yul\":12755:12832   */\n      0x4e487b7100000000000000000000000000000000000000000000000000000000\n        /* \"#utility.yul\":12752:12753   */\n      0x00\n        /* \"#utility.yul\":12745:12833   */\n      mstore\n        /* \"#utility.yul\":12852:12856   */\n      0x32\n        /* \"#utility.yul\":12849:12850   */\n      0x04\n        /* \"#utility.yul\":12842:12857   */\n      mstore\n        /* \"#utility.yul\":12876:12880   */\n      0x24\n        /* \"#utility.yul\":12873:12874   */\n      0x00\n        /* \"#utility.yul\":12866:12881   */\n      revert\n        /* \"#utility.yul\":12893:13073   */\n    tag_406:\n        /* \"#utility.yul\":12941:13018   */\n      0x4e487b7100000000000000000000000000000000000000000000000000000000\n        /* \"#utility.yul\":12938:12939   */\n      0x00\n        /* \"#utility.yul\":12931:13019   */\n      mstore\n        /* \"#utility.yul\":13038:13042   */\n      0x11\n        /* \"#utility.yul\":13035:13036   */\n      0x04\n        /* \"#utility.yul\":13028:13043   */\n      mstore\n        /* \"#utility.yul\":13062:13066   */\n      0x24\n        /* \"#utility.yul\":13059:13060   */\n      0x00\n        /* \"#utility.yul\":13052:13067   */\n      revert\n        /* \"#utility.yul\":13079:13273   */\n    tag_173:\n        /* \"#utility.yul\":13119:13123   */\n      0x00\n        /* \"#utility.yul\":13139:13159   */\n      tag_585\n        /* \"#utility.yul\":13157:13158   */\n      dup3\n        /* \"#utility.yul\":13139:13159   */\n      tag_386\n      jump\t// in\n    tag_585:\n        /* \"#utility.yul\":13134:13159   */\n      swap2\n      pop\n        /* \"#utility.yul\":13173:13193   */\n      tag_586\n        /* \"#utility.yul\":13191:13192   */\n      dup4\n        /* \"#utility.yul\":13173:13193   */\n      tag_386\n      jump\t// in\n    tag_586:\n        /* \"#utility.yul\":13168:13193   */\n      swap3\n      pop\n        /* \"#utility.yul\":13217:13218   */\n      dup3\n        /* \"#utility.yul\":13214:13215   */\n      dup3\n        /* \"#utility.yul\":13210:13219   */\n      sub\n        /* \"#utility.yul\":13202:13219   */\n      swap1\n      pop\n        /* \"#utility.yul\":13241:13242   */\n      dup2\n        /* \"#utility.yul\":13235:13239   */\n      dup2\n        /* \"#utility.yul\":13232:13243   */\n      gt\n        /* \"#utility.yul\":13229:13266   */\n      iszero\n      tag_587\n      jumpi\n        /* \"#utility.yul\":13246:13264   */\n      tag_588\n      tag_406\n      jump\t// in\n    tag_588:\n        /* \"#utility.yul\":13229:13266   */\n    tag_587:\n        /* \"#utility.yul\":13079:13273   */\n      swap3\n      swap2\n      pop\n      pop\n      jump\t// out\n        /* \"#utility.yul\":13279:13502   */\n    tag_407:\n        /* \"#utility.yul\":13419:13453   */\n      0x536f6c657269756d535741503a2050617468206d757374206265207370656369\n        /* \"#utility.yul\":13415:13416   */\n      0x00\n        /* \"#utility.yul\":13407:13413   */\n      dup3\n        /* \"#utility.yul\":13403:13417   */\n      add\n        /* \"#utility.yul\":13396:13454   */\n      mstore\n        /* \"#utility.yul\":13488:13494   */\n      0x6669656400000000000000000000000000000000000000000000000000000000\n        /* \"#utility.yul\":13483:13485   */\n      0x20\n        /* \"#utility.yul\":13475:13481   */\n      dup3\n        /* \"#utility.yul\":13471:13486   */\n      add\n        /* \"#utility.yul\":13464:13495   */\n      mstore\n        /* \"#utility.yul\":13279:13502   */\n      pop\n      jump\t// out\n        /* \"#utility.yul\":13508:13874   */\n    tag_408:\n        /* \"#utility.yul\":13650:13653   */\n      0x00\n        /* \"#utility.yul\":13671:13738   */\n      tag_591\n        /* \"#utility.yul\":13735:13737   */\n      0x24\n        /* \"#utility.yul\":13730:13733   */\n      dup4\n        /* \"#utility.yul\":13671:13738   */\n      tag_403\n      jump\t// in\n    tag_591:\n        /* \"#utility.yul\":13664:13738   */\n      swap2\n      pop\n        /* \"#utility.yul\":13747:13840   */\n      tag_592\n        /* \"#utility.yul\":13836:13839   */\n      dup3\n        /* \"#utility.yul\":13747:13840   */\n      tag_407\n      jump\t// in\n    tag_592:\n        /* \"#utility.yul\":13865:13867   */\n      0x40\n        /* \"#utility.yul\":13860:13863   */\n      dup3\n        /* \"#utility.yul\":13856:13868   */\n      add\n        /* \"#utility.yul\":13849:13868   */\n      swap1\n      pop\n        /* \"#utility.yul\":13508:13874   */\n      swap2\n      swap1\n      pop\n      jump\t// out\n        /* \"#utility.yul\":13880:14299   */\n    tag_178:\n        /* \"#utility.yul\":14046:14050   */\n      0x00\n        /* \"#utility.yul\":14084:14086   */\n      0x20\n        /* \"#utility.yul\":14073:14082   */\n      dup3\n        /* \"#utility.yul\":14069:14087   */\n      add\n        /* \"#utility.yul\":14061:14087   */\n      swap1\n      pop\n        /* \"#utility.yul\":14133:14142   */\n      dup2\n        /* \"#utility.yul\":14127:14131   */\n      dup2\n        /* \"#utility.yul\":14123:14143   */\n      sub\n        /* \"#utility.yul\":14119:14120   */\n      0x00\n        /* \"#utility.yul\":14108:14117   */\n      dup4\n        /* \"#utility.yul\":14104:14121   */\n      add\n        /* \"#utility.yul\":14097:14144   */\n      mstore\n        /* \"#utility.yul\":14161:14292   */\n      tag_594\n        /* \"#utility.yul\":14287:14291   */\n      dup2\n        /* \"#utility.yul\":14161:14292   */\n      tag_408\n      jump\t// in\n    tag_594:\n        /* \"#utility.yul\":14153:14292   */\n      swap1\n      pop\n        /* \"#utility.yul\":13880:14299   */\n      swap2\n      swap1\n      pop\n      jump\t// out\n        /* \"#utility.yul\":14305:14419   */\n    tag_409:\n        /* \"#utility.yul\":14372:14378   */\n      0x00\n        /* \"#utility.yul\":14406:14411   */\n      dup2\n        /* \"#utility.yul\":14400:14412   */\n      mload\n        /* \"#utility.yul\":14390:14412   */\n      swap1\n      pop\n        /* \"#utility.yul\":14305:14419   */\n      swap2\n      swap1\n      pop\n      jump\t// out\n        /* \"#utility.yul\":14425:14609   */\n    tag_410:\n        /* \"#utility.yul\":14524:14535   */\n      0x00\n        /* \"#utility.yul\":14558:14564   */\n      dup3\n        /* \"#utility.yul\":14553:14556   */\n      dup3\n        /* \"#utility.yul\":14546:14565   */\n      mstore\n        /* \"#utility.yul\":14598:14602   */\n      0x20\n        /* \"#utility.yul\":14593:14596   */\n      dup3\n        /* \"#utility.yul\":14589:14603   */\n      add\n        /* \"#utility.yul\":14574:14603   */\n      swap1\n      pop\n        /* \"#utility.yul\":14425:14609   */\n      swap3\n      swap2\n      pop\n      pop\n      jump\t// out\n        /* \"#utility.yul\":14615:14747   */\n    tag_411:\n        /* \"#utility.yul\":14682:14686   */\n      0x00\n        /* \"#utility.yul\":14705:14708   */\n      dup2\n        /* \"#utility.yul\":14697:14708   */\n      swap1\n      pop\n        /* \"#utility.yul\":14735:14739   */\n      0x20\n        /* \"#utility.yul\":14730:14733   */\n      dup3\n        /* \"#utility.yul\":14726:14740   */\n      add\n        /* \"#utility.yul\":14718:14740   */\n      swap1\n      pop\n        /* \"#utility.yul\":14615:14747   */\n      swap2\n      swap1\n      pop\n      jump\t// out\n        /* \"#utility.yul\":14753:14861   */\n    tag_412:\n        /* \"#utility.yul\":14830:14854   */\n      tag_599\n        /* \"#utility.yul\":14848:14853   */\n      dup2\n        /* \"#utility.yul\":14830:14854   */\n      tag_379\n      jump\t// in\n    tag_599:\n        /* \"#utility.yul\":14825:14828   */\n      dup3\n        /* \"#utility.yul\":14818:14855   */\n      mstore\n        /* \"#utility.yul\":14753:14861   */\n      pop\n      pop\n      jump\t// out\n        /* \"#utility.yul\":14867:15046   */\n    tag_413:\n        /* \"#utility.yul\":14936:14946   */\n      0x00\n        /* \"#utility.yul\":14957:15003   */\n      tag_601\n        /* \"#utility.yul\":14999:15002   */\n      dup4\n        /* \"#utility.yul\":14991:14997   */\n      dup4\n        /* \"#utility.yul\":14957:15003   */\n      tag_412\n      jump\t// in\n    tag_601:\n        /* \"#utility.yul\":15035:15039   */\n      0x20\n        /* \"#utility.yul\":15030:15033   */\n      dup4\n        /* \"#utility.yul\":15026:15040   */\n      add\n        /* \"#utility.yul\":15012:15040   */\n      swap1\n      pop\n        /* \"#utility.yul\":14867:15046   */\n      swap3\n      swap2\n      pop\n      pop\n      jump\t// out\n        /* \"#utility.yul\":15052:15165   */\n    tag_414:\n        /* \"#utility.yul\":15122:15126   */\n      0x00\n        /* \"#utility.yul\":15154:15158   */\n      0x20\n        /* \"#utility.yul\":15149:15152   */\n      dup3\n        /* \"#utility.yul\":15145:15159   */\n      add\n        /* \"#utility.yul\":15137:15159   */\n      swap1\n      pop\n        /* \"#utility.yul\":15052:15165   */\n      swap2\n      swap1\n      pop\n      jump\t// out\n        /* \"#utility.yul\":15201:15933   */\n    tag_415:\n        /* \"#utility.yul\":15320:15323   */\n      0x00\n        /* \"#utility.yul\":15349:15403   */\n      tag_604\n        /* \"#utility.yul\":15397:15402   */\n      dup3\n        /* \"#utility.yul\":15349:15403   */\n      tag_409\n      jump\t// in\n    tag_604:\n        /* \"#utility.yul\":15419:15505   */\n      tag_605\n        /* \"#utility.yul\":15498:15504   */\n      dup2\n        /* \"#utility.yul\":15493:15496   */\n      dup6\n        /* \"#utility.yul\":15419:15505   */\n      tag_410\n      jump\t// in\n    tag_605:\n        /* \"#utility.yul\":15412:15505   */\n      swap4\n      pop\n        /* \"#utility.yul\":15529:15585   */\n      tag_606\n        /* \"#utility.yul\":15579:15584   */\n      dup4\n        /* \"#utility.yul\":15529:15585   */\n      tag_411\n      jump\t// in\n    tag_606:\n        /* \"#utility.yul\":15608:15615   */\n      dup1\n        /* \"#utility.yul\":15639:15640   */\n      0x00\n        /* \"#utility.yul\":15624:15908   */\n    tag_607:\n        /* \"#utility.yul\":15649:15655   */\n      dup4\n        /* \"#utility.yul\":15646:15647   */\n      dup2\n        /* \"#utility.yul\":15643:15656   */\n      lt\n        /* \"#utility.yul\":15624:15908   */\n      iszero\n      tag_609\n      jumpi\n        /* \"#utility.yul\":15725:15731   */\n      dup2\n        /* \"#utility.yul\":15719:15732   */\n      mload\n        /* \"#utility.yul\":15752:15815   */\n      tag_610\n        /* \"#utility.yul\":15811:15814   */\n      dup9\n        /* \"#utility.yul\":15796:15809   */\n      dup3\n        /* \"#utility.yul\":15752:15815   */\n      tag_413\n      jump\t// in\n    tag_610:\n        /* \"#utility.yul\":15745:15815   */\n      swap8\n      pop\n        /* \"#utility.yul\":15838:15898   */\n      tag_611\n        /* \"#utility.yul\":15891:15897   */\n      dup4\n        /* \"#utility.yul\":15838:15898   */\n      tag_414\n      jump\t// in\n    tag_611:\n        /* \"#utility.yul\":15828:15898   */\n      swap3\n      pop\n        /* \"#utility.yul\":15684:15908   */\n      pop\n        /* \"#utility.yul\":15671:15672   */\n      0x01\n        /* \"#utility.yul\":15668:15669   */\n      dup2\n        /* \"#utility.yul\":15664:15673   */\n      add\n        /* \"#utility.yul\":15659:15673   */\n      swap1\n      pop\n        /* \"#utility.yul\":15624:15908   */\n      jump(tag_607)\n    tag_609:\n        /* \"#utility.yul\":15628:15642   */\n      pop\n        /* \"#utility.yul\":15924:15927   */\n      dup6\n        /* \"#utility.yul\":15917:15927   */\n      swap4\n      pop\n        /* \"#utility.yul\":15325:15933   */\n      pop\n      pop\n      pop\n        /* \"#utility.yul\":15201:15933   */\n      swap3\n      swap2\n      pop\n      pop\n      jump\t// out\n        /* \"#utility.yul\":15939:16422   */\n    tag_230:\n        /* \"#utility.yul\":16110:16114   */\n      0x00\n        /* \"#utility.yul\":16148:16150   */\n      0x40\n        /* \"#utility.yul\":16137:16146   */\n      dup3\n        /* \"#utility.yul\":16133:16151   */\n      add\n        /* \"#utility.yul\":16125:16151   */\n      swap1\n      pop\n        /* \"#utility.yul\":16161:16232   */\n      tag_613\n        /* \"#utility.yul\":16229:16230   */\n      0x00\n        /* \"#utility.yul\":16218:16227   */\n      dup4\n        /* \"#utility.yul\":16214:16231   */\n      add\n        /* \"#utility.yul\":16205:16211   */\n      dup6\n        /* \"#utility.yul\":16161:16232   */\n      tag_389\n      jump\t// in\n    tag_613:\n        /* \"#utility.yul\":16279:16288   */\n      dup2\n        /* \"#utility.yul\":16273:16277   */\n      dup2\n        /* \"#utility.yul\":16269:16289   */\n      sub\n        /* \"#utility.yul\":16264:16266   */\n      0x20\n        /* \"#utility.yul\":16253:16262   */\n      dup4\n        /* \"#utility.yul\":16249:16267   */\n      add\n        /* \"#utility.yul\":16242:16290   */\n      mstore\n        /* \"#utility.yul\":16307:16415   */\n      tag_614\n        /* \"#utility.yul\":16410:16414   */\n      dup2\n        /* \"#utility.yul\":16401:16407   */\n      dup5\n        /* \"#utility.yul\":16307:16415   */\n      tag_415\n      jump\t// in\n    tag_614:\n        /* \"#utility.yul\":16299:16415   */\n      swap1\n      pop\n        /* \"#utility.yul\":15939:16422   */\n      swap4\n      swap3\n      pop\n      pop\n      pop\n      jump\t// out\n        /* \"#utility.yul\":16428:16571   */\n    tag_416:\n        /* \"#utility.yul\":16485:16490   */\n      0x00\n        /* \"#utility.yul\":16516:16522   */\n      dup2\n        /* \"#utility.yul\":16510:16523   */\n      mload\n        /* \"#utility.yul\":16501:16523   */\n      swap1\n      pop\n        /* \"#utility.yul\":16532:16565   */\n      tag_616\n        /* \"#utility.yul\":16559:16564   */\n      dup2\n        /* \"#utility.yul\":16532:16565   */\n      tag_387\n      jump\t// in\n    tag_616:\n        /* \"#utility.yul\":16428:16571   */\n      swap3\n      swap2\n      pop\n      pop\n      jump\t// out\n        /* \"#utility.yul\":16594:17326   */\n    tag_417:\n        /* \"#utility.yul\":16701:16706   */\n      0x00\n        /* \"#utility.yul\":16726:16807   */\n      tag_618\n        /* \"#utility.yul\":16742:16806   */\n      tag_619\n        /* \"#utility.yul\":16799:16805   */\n      dup5\n        /* \"#utility.yul\":16742:16806   */\n      tag_398\n      jump\t// in\n    tag_619:\n        /* \"#utility.yul\":16726:16807   */\n      tag_393\n      jump\t// in\n    tag_618:\n        /* \"#utility.yul\":16717:16807   */\n      swap1\n      pop\n        /* \"#utility.yul\":16827:16832   */\n      dup1\n        /* \"#utility.yul\":16856:16862   */\n      dup4\n        /* \"#utility.yul\":16849:16854   */\n      dup3\n        /* \"#utility.yul\":16842:16863   */\n      mstore\n        /* \"#utility.yul\":16890:16894   */\n      0x20\n        /* \"#utility.yul\":16883:16888   */\n      dup3\n        /* \"#utility.yul\":16879:16895   */\n      add\n        /* \"#utility.yul\":16872:16895   */\n      swap1\n      pop\n        /* \"#utility.yul\":16943:16947   */\n      0x20\n        /* \"#utility.yul\":16935:16941   */\n      dup5\n        /* \"#utility.yul\":16931:16948   */\n      mul\n        /* \"#utility.yul\":16923:16929   */\n      dup4\n        /* \"#utility.yul\":16919:16949   */\n      add\n        /* \"#utility.yul\":16972:16975   */\n      dup6\n        /* \"#utility.yul\":16964:16970   */\n      dup2\n        /* \"#utility.yul\":16961:16976   */\n      gt\n        /* \"#utility.yul\":16958:17080   */\n      iszero\n      tag_620\n      jumpi\n        /* \"#utility.yul\":16991:17070   */\n      tag_621\n      tag_395\n      jump\t// in\n    tag_621:\n        /* \"#utility.yul\":16958:17080   */\n    tag_620:\n        /* \"#utility.yul\":17106:17112   */\n      dup4\n        /* \"#utility.yul\":17089:17320   */\n    tag_622:\n        /* \"#utility.yul\":17123:17129   */\n      dup2\n        /* \"#utility.yul\":17118:17121   */\n      dup2\n        /* \"#utility.yul\":17115:17130   */\n      lt\n        /* \"#utility.yul\":17089:17320   */\n      iszero\n      tag_624\n      jumpi\n        /* \"#utility.yul\":17198:17201   */\n      dup1\n        /* \"#utility.yul\":17227:17275   */\n      tag_625\n        /* \"#utility.yul\":17271:17274   */\n      dup9\n        /* \"#utility.yul\":17259:17269   */\n      dup3\n        /* \"#utility.yul\":17227:17275   */\n      tag_416\n      jump\t// in\n    tag_625:\n        /* \"#utility.yul\":17222:17225   */\n      dup5\n        /* \"#utility.yul\":17215:17276   */\n      mstore\n        /* \"#utility.yul\":17305:17309   */\n      0x20\n        /* \"#utility.yul\":17300:17303   */\n      dup5\n        /* \"#utility.yul\":17296:17310   */\n      add\n        /* \"#utility.yul\":17289:17310   */\n      swap4\n      pop\n        /* \"#utility.yul\":17165:17320   */\n      pop\n        /* \"#utility.yul\":17149:17153   */\n      0x20\n        /* \"#utility.yul\":17144:17147   */\n      dup2\n        /* \"#utility.yul\":17140:17154   */\n      add\n        /* \"#utility.yul\":17133:17154   */\n      swap1\n      pop\n        /* \"#utility.yul\":17089:17320   */\n      jump(tag_622)\n    tag_624:\n        /* \"#utility.yul\":17093:17114   */\n      pop\n        /* \"#utility.yul\":16707:17326   */\n      pop\n      pop\n        /* \"#utility.yul\":16594:17326   */\n      swap4\n      swap3\n      pop\n      pop\n      pop\n      jump\t// out\n        /* \"#utility.yul\":17349:17734   */\n    tag_418:\n        /* \"#utility.yul\":17431:17436   */\n      0x00\n        /* \"#utility.yul\":17480:17483   */\n      dup3\n        /* \"#utility.yul\":17473:17477   */\n      0x1f\n        /* \"#utility.yul\":17465:17471   */\n      dup4\n        /* \"#utility.yul\":17461:17478   */\n      add\n        /* \"#utility.yul\":17457:17484   */\n      slt\n        /* \"#utility.yul\":17447:17569   */\n      tag_627\n      jumpi\n        /* \"#utility.yul\":17488:17567   */\n      tag_628\n      tag_390\n      jump\t// in\n    tag_628:\n        /* \"#utility.yul\":17447:17569   */\n    tag_627:\n        /* \"#utility.yul\":17598:17604   */\n      dup2\n        /* \"#utility.yul\":17592:17605   */\n      mload\n        /* \"#utility.yul\":17623:17728   */\n      tag_629\n        /* \"#utility.yul\":17724:17727   */\n      dup5\n        /* \"#utility.yul\":17716:17722   */\n      dup3\n        /* \"#utility.yul\":17709:17713   */\n      0x20\n        /* \"#utility.yul\":17701:17707   */\n      dup7\n        /* \"#utility.yul\":17697:17714   */\n      add\n        /* \"#utility.yul\":17623:17728   */\n      tag_417\n      jump\t// in\n    tag_629:\n        /* \"#utility.yul\":17614:17728   */\n      swap2\n      pop\n        /* \"#utility.yul\":17437:17734   */\n      pop\n        /* \"#utility.yul\":17349:17734   */\n      swap3\n      swap2\n      pop\n      pop\n      jump\t// out\n        /* \"#utility.yul\":17740:18294   */\n    tag_234:\n        /* \"#utility.yul\":17835:17841   */\n      0x00\n        /* \"#utility.yul\":17884:17886   */\n      0x20\n        /* \"#utility.yul\":17872:17881   */\n      dup3\n        /* \"#utility.yul\":17863:17870   */\n      dup5\n        /* \"#utility.yul\":17859:17882   */\n      sub\n        /* \"#utility.yul\":17855:17887   */\n      slt\n        /* \"#utility.yul\":17852:17971   */\n      iszero\n      tag_631\n      jumpi\n        /* \"#utility.yul\":17890:17969   */\n      tag_632\n      tag_382\n      jump\t// in\n    tag_632:\n        /* \"#utility.yul\":17852:17971   */\n    tag_631:\n        /* \"#utility.yul\":18031:18032   */\n      0x00\n        /* \"#utility.yul\":18020:18029   */\n      dup3\n        /* \"#utility.yul\":18016:18033   */\n      add\n        /* \"#utility.yul\":18010:18034   */\n      mload\n        /* \"#utility.yul\":18061:18079   */\n      0xffffffffffffffff\n        /* \"#utility.yul\":18053:18059   */\n      dup2\n        /* \"#utility.yul\":18050:18080   */\n      gt\n        /* \"#utility.yul\":18047:18164   */\n      iszero\n      tag_633\n      jumpi\n        /* \"#utility.yul\":18083:18162   */\n      tag_634\n      tag_383\n      jump\t// in\n    tag_634:\n        /* \"#utility.yul\":18047:18164   */\n    tag_633:\n        /* \"#utility.yul\":18188:18277   */\n      tag_635\n        /* \"#utility.yul\":18269:18276   */\n      dup5\n        /* \"#utility.yul\":18260:18266   */\n      dup3\n        /* \"#utility.yul\":18249:18258   */\n      dup6\n        /* \"#utility.yul\":18245:18267   */\n      add\n        /* \"#utility.yul\":18188:18277   */\n      tag_418\n      jump\t// in\n    tag_635:\n        /* \"#utility.yul\":18178:18277   */\n      swap2\n      pop\n        /* \"#utility.yul\":17981:18287   */\n      pop\n        /* \"#utility.yul\":17740:18294   */\n      swap3\n      swap2\n      pop\n      pop\n      jump\t// out\n        /* \"#utility.yul\":18300:18525   */\n    tag_419:\n        /* \"#utility.yul\":18440:18474   */\n      0x4f776e61626c653a206e6577206f776e657220697320746865207a65726f2061\n        /* \"#utility.yul\":18436:18437   */\n      0x00\n        /* \"#utility.yul\":18428:18434   */\n      dup3\n        /* \"#utility.yul\":18424:18438   */\n      add\n        /* \"#utility.yul\":18417:18475   */\n      mstore\n        /* \"#utility.yul\":18509:18517   */\n      0x6464726573730000000000000000000000000000000000000000000000000000\n        /* \"#utility.yul\":18504:18506   */\n      0x20\n        /* \"#utility.yul\":18496:18502   */\n      dup3\n        /* \"#utility.yul\":18492:18507   */\n      add\n        /* \"#utility.yul\":18485:18518   */\n      mstore\n        /* \"#utility.yul\":18300:18525   */\n      pop\n      jump\t// out\n        /* \"#utility.yul\":18531:18897   */\n    tag_420:\n        /* \"#utility.yul\":18673:18676   */\n      0x00\n        /* \"#utility.yul\":18694:18761   */\n      tag_638\n        /* \"#utility.yul\":18758:18760   */\n      0x26\n        /* \"#utility.yul\":18753:18756   */\n      dup4\n        /* \"#utility.yul\":18694:18761   */\n      tag_403\n      jump\t// in\n    tag_638:\n        /* \"#utility.yul\":18687:18761   */\n      swap2\n      pop\n        /* \"#utility.yul\":18770:18863   */\n      tag_639\n        /* \"#utility.yul\":18859:18862   */\n      dup3\n        /* \"#utility.yul\":18770:18863   */\n      tag_419\n      jump\t// in\n    tag_639:\n        /* \"#utility.yul\":18888:18890   */\n      0x40\n        /* \"#utility.yul\":18883:18886   */\n      dup3\n        /* \"#utility.yul\":18879:18891   */\n      add\n        /* \"#utility.yul\":18872:18891   */\n      swap1\n      pop\n        /* \"#utility.yul\":18531:18897   */\n      swap2\n      swap1\n      pop\n      jump\t// out\n        /* \"#utility.yul\":18903:19322   */\n    tag_274:\n        /* \"#utility.yul\":19069:19073   */\n      0x00\n        /* \"#utility.yul\":19107:19109   */\n      0x20\n        /* \"#utility.yul\":19096:19105   */\n      dup3\n        /* \"#utility.yul\":19092:19110   */\n      add\n        /* \"#utility.yul\":19084:19110   */\n      swap1\n      pop\n        /* \"#utility.yul\":19156:19165   */\n      dup2\n        /* \"#utility.yul\":19150:19154   */\n      dup2\n        /* \"#utility.yul\":19146:19166   */\n      sub\n        /* \"#utility.yul\":19142:19143   */\n      0x00\n        /* \"#utility.yul\":19131:19140   */\n      dup4\n        /* \"#utility.yul\":19127:19144   */\n      add\n        /* \"#utility.yul\":19120:19167   */\n      mstore\n        /* \"#utility.yul\":19184:19315   */\n      tag_641\n        /* \"#utility.yul\":19310:19314   */\n      dup2\n        /* \"#utility.yul\":19184:19315   */\n      tag_420\n      jump\t// in\n    tag_641:\n        /* \"#utility.yul\":19176:19315   */\n      swap1\n      pop\n        /* \"#utility.yul\":18903:19322   */\n      swap2\n      swap1\n      pop\n      jump\t// out\n        /* \"#utility.yul\":19328:19660   */\n    tag_281:\n        /* \"#utility.yul\":19449:19453   */\n      0x00\n        /* \"#utility.yul\":19487:19489   */\n      0x40\n        /* \"#utility.yul\":19476:19485   */\n      dup3\n        /* \"#utility.yul\":19472:19490   */\n      add\n        /* \"#utility.yul\":19464:19490   */\n      swap1\n      pop\n        /* \"#utility.yul\":19500:19571   */\n      tag_643\n        /* \"#utility.yul\":19568:19569   */\n      0x00\n        /* \"#utility.yul\":19557:19566   */\n      dup4\n        /* \"#utility.yul\":19553:19570   */\n      add\n        /* \"#utility.yul\":19544:19550   */\n      dup6\n        /* \"#utility.yul\":19500:19571   */\n      tag_380\n      jump\t// in\n    tag_643:\n        /* \"#utility.yul\":19581:19653   */\n      tag_644\n        /* \"#utility.yul\":19649:19651   */\n      0x20\n        /* \"#utility.yul\":19638:19647   */\n      dup4\n        /* \"#utility.yul\":19634:19652   */\n      add\n        /* \"#utility.yul\":19625:19631   */\n      dup5\n        /* \"#utility.yul\":19581:19653   */\n      tag_389\n      jump\t// in\n    tag_644:\n        /* \"#utility.yul\":19328:19660   */\n      swap4\n      swap3\n      pop\n      pop\n      pop\n      jump\t// out\n        /* \"#utility.yul\":19666:19782   */\n    tag_421:\n        /* \"#utility.yul\":19736:19757   */\n      tag_646\n        /* \"#utility.yul\":19751:19756   */\n      dup2\n        /* \"#utility.yul\":19736:19757   */\n      tag_401\n      jump\t// in\n    tag_646:\n        /* \"#utility.yul\":19729:19734   */\n      dup2\n        /* \"#utility.yul\":19726:19758   */\n      eq\n        /* \"#utility.yul\":19716:19776   */\n      tag_647\n      jumpi\n        /* \"#utility.yul\":19772:19773   */\n      0x00\n        /* \"#utility.yul\":19769:19770   */\n      dup1\n        /* \"#utility.yul\":19762:19774   */\n      revert\n        /* \"#utility.yul\":19716:19776   */\n    tag_647:\n        /* \"#utility.yul\":19666:19782   */\n      pop\n      jump\t// out\n        /* \"#utility.yul\":19788:19925   */\n    tag_422:\n        /* \"#utility.yul\":19842:19847   */\n      0x00\n        /* \"#utility.yul\":19873:19879   */\n      dup2\n        /* \"#utility.yul\":19867:19880   */\n      mload\n        /* \"#utility.yul\":19858:19880   */\n      swap1\n      pop\n        /* \"#utility.yul\":19889:19919   */\n      tag_649\n        /* \"#utility.yul\":19913:19918   */\n      dup2\n        /* \"#utility.yul\":19889:19919   */\n      tag_421\n      jump\t// in\n    tag_649:\n        /* \"#utility.yul\":19788:19925   */\n      swap3\n      swap2\n      pop\n      pop\n      jump\t// out\n        /* \"#utility.yul\":19931:20276   */\n    tag_288:\n        /* \"#utility.yul\":19998:20004   */\n      0x00\n        /* \"#utility.yul\":20047:20049   */\n      0x20\n        /* \"#utility.yul\":20035:20044   */\n      dup3\n        /* \"#utility.yul\":20026:20033   */\n      dup5\n        /* \"#utility.yul\":20022:20045   */\n      sub\n        /* \"#utility.yul\":20018:20050   */\n      slt\n        /* \"#utility.yul\":20015:20134   */\n      iszero\n      tag_651\n      jumpi\n        /* \"#utility.yul\":20053:20132   */\n      tag_652\n      tag_382\n      jump\t// in\n    tag_652:\n        /* \"#utility.yul\":20015:20134   */\n    tag_651:\n        /* \"#utility.yul\":20173:20174   */\n      0x00\n        /* \"#utility.yul\":20198:20259   */\n      tag_653\n        /* \"#utility.yul\":20251:20258   */\n      dup5\n        /* \"#utility.yul\":20242:20248   */\n      dup3\n        /* \"#utility.yul\":20231:20240   */\n      dup6\n        /* \"#utility.yul\":20227:20249   */\n      add\n        /* \"#utility.yul\":20198:20259   */\n      tag_422\n      jump\t// in\n    tag_653:\n        /* \"#utility.yul\":20188:20259   */\n      swap2\n      pop\n        /* \"#utility.yul\":20144:20269   */\n      pop\n        /* \"#utility.yul\":19931:20276   */\n      swap3\n      swap2\n      pop\n      pop\n      jump\t// out\n        /* \"#utility.yul\":20282:20514   */\n    tag_423:\n        /* \"#utility.yul\":20422:20456   */\n      0x536f6c657269756d535741503a20616d6f756e74496e206d7573742062652067\n        /* \"#utility.yul\":20418:20419   */\n      0x00\n        /* \"#utility.yul\":20410:20416   */\n      dup3\n        /* \"#utility.yul\":20406:20420   */\n      add\n        /* \"#utility.yul\":20399:20457   */\n      mstore\n        /* \"#utility.yul\":20491:20506   */\n      0x726561746572207468616e203000000000000000000000000000000000000000\n        /* \"#utility.yul\":20486:20488   */\n      0x20\n        /* \"#utility.yul\":20478:20484   */\n      dup3\n        /* \"#utility.yul\":20474:20489   */\n      add\n        /* \"#utility.yul\":20467:20507   */\n      mstore\n        /* \"#utility.yul\":20282:20514   */\n      pop\n      jump\t// out\n        /* \"#utility.yul\":20520:20886   */\n    tag_424:\n        /* \"#utility.yul\":20662:20665   */\n      0x00\n        /* \"#utility.yul\":20683:20750   */\n      tag_656\n        /* \"#utility.yul\":20747:20749   */\n      0x2d\n        /* \"#utility.yul\":20742:20745   */\n      dup4\n        /* \"#utility.yul\":20683:20750   */\n      tag_403\n      jump\t// in\n    tag_656:\n        /* \"#utility.yul\":20676:20750   */\n      swap2\n      pop\n        /* \"#utility.yul\":20759:20852   */\n      tag_657\n        /* \"#utility.yul\":20848:20851   */\n      dup3\n        /* \"#utility.yul\":20759:20852   */\n      tag_423\n      jump\t// in\n    tag_657:\n        /* \"#utility.yul\":20877:20879   */\n      0x40\n        /* \"#utility.yul\":20872:20875   */\n      dup3\n        /* \"#utility.yul\":20868:20880   */\n      add\n        /* \"#utility.yul\":20861:20880   */\n      swap1\n      pop\n        /* \"#utility.yul\":20520:20886   */\n      swap2\n      swap1\n      pop\n      jump\t// out\n        /* \"#utility.yul\":20892:21311   */\n    tag_292:\n        /* \"#utility.yul\":21058:21062   */\n      0x00\n        /* \"#utility.yul\":21096:21098   */\n      0x20\n        /* \"#utility.yul\":21085:21094   */\n      dup3\n        /* \"#utility.yul\":21081:21099   */\n      add\n        /* \"#utility.yul\":21073:21099   */\n      swap1\n      pop\n        /* \"#utility.yul\":21145:21154   */\n      dup2\n        /* \"#utility.yul\":21139:21143   */\n      dup2\n        /* \"#utility.yul\":21135:21155   */\n      sub\n        /* \"#utility.yul\":21131:21132   */\n      0x00\n        /* \"#utility.yul\":21120:21129   */\n      dup4\n        /* \"#utility.yul\":21116:21133   */\n      add\n        /* \"#utility.yul\":21109:21156   */\n      mstore\n        /* \"#utility.yul\":21173:21304   */\n      tag_659\n        /* \"#utility.yul\":21299:21303   */\n      dup2\n        /* \"#utility.yul\":21173:21304   */\n      tag_424\n      jump\t// in\n    tag_659:\n        /* \"#utility.yul\":21165:21304   */\n      swap1\n      pop\n        /* \"#utility.yul\":20892:21311   */\n      swap2\n      swap1\n      pop\n      jump\t// out\n        /* \"#utility.yul\":21317:21543   */\n    tag_425:\n        /* \"#utility.yul\":21457:21491   */\n      0x536f6c657269756d535741503a20546f6b656e41206973206e6f742077686974\n        /* \"#utility.yul\":21453:21454   */\n      0x00\n        /* \"#utility.yul\":21445:21451   */\n      dup3\n        /* \"#utility.yul\":21441:21455   */\n      add\n        /* \"#utility.yul\":21434:21492   */\n      mstore\n        /* \"#utility.yul\":21526:21535   */\n      0x656c697374656400000000000000000000000000000000000000000000000000\n        /* \"#utility.yul\":21521:21523   */\n      0x20\n        /* \"#utility.yul\":21513:21519   */\n      dup3\n        /* \"#utility.yul\":21509:21524   */\n      add\n        /* \"#utility.yul\":21502:21536   */\n      mstore\n        /* \"#utility.yul\":21317:21543   */\n      pop\n      jump\t// out\n        /* \"#utility.yul\":21549:21915   */\n    tag_426:\n        /* \"#utility.yul\":21691:21694   */\n      0x00\n        /* \"#utility.yul\":21712:21779   */\n      tag_662\n        /* \"#utility.yul\":21776:21778   */\n      0x27\n        /* \"#utility.yul\":21771:21774   */\n      dup4\n        /* \"#utility.yul\":21712:21779   */\n      tag_403\n      jump\t// in\n    tag_662:\n        /* \"#utility.yul\":21705:21779   */\n      swap2\n      pop\n        /* \"#utility.yul\":21788:21881   */\n      tag_663\n        /* \"#utility.yul\":21877:21880   */\n      dup3\n        /* \"#utility.yul\":21788:21881   */\n      tag_425\n      jump\t// in\n    tag_663:\n        /* \"#utility.yul\":21906:21908   */\n      0x40\n        /* \"#utility.yul\":21901:21904   */\n      dup3\n        /* \"#utility.yul\":21897:21909   */\n      add\n        /* \"#utility.yul\":21890:21909   */\n      swap1\n      pop\n        /* \"#utility.yul\":21549:21915   */\n      swap2\n      swap1\n      pop\n      jump\t// out\n        /* \"#utility.yul\":21921:22340   */\n    tag_295:\n        /* \"#utility.yul\":22087:22091   */\n      0x00\n        /* \"#utility.yul\":22125:22127   */\n      0x20\n        /* \"#utility.yul\":22114:22123   */\n      dup3\n        /* \"#utility.yul\":22110:22128   */\n      add\n        /* \"#utility.yul\":22102:22128   */\n      swap1\n      pop\n        /* \"#utility.yul\":22174:22183   */\n      dup2\n        /* \"#utility.yul\":22168:22172   */\n      dup2\n        /* \"#utility.yul\":22164:22184   */\n      sub\n        /* \"#utility.yul\":22160:22161   */\n      0x00\n        /* \"#utility.yul\":22149:22158   */\n      dup4\n        /* \"#utility.yul\":22145:22162   */\n      add\n        /* \"#utility.yul\":22138:22185   */\n      mstore\n        /* \"#utility.yul\":22202:22333   */\n      tag_665\n        /* \"#utility.yul\":22328:22332   */\n      dup2\n        /* \"#utility.yul\":22202:22333   */\n      tag_426\n      jump\t// in\n    tag_665:\n        /* \"#utility.yul\":22194:22333   */\n      swap1\n      pop\n        /* \"#utility.yul\":21921:22340   */\n      swap2\n      swap1\n      pop\n      jump\t// out\n        /* \"#utility.yul\":22346:22526   */\n    tag_427:\n        /* \"#utility.yul\":22486:22518   */\n      0x536f6c657269756d535741503a20496e73756666696369656e74204554480000\n        /* \"#utility.yul\":22482:22483   */\n      0x00\n        /* \"#utility.yul\":22474:22480   */\n      dup3\n        /* \"#utility.yul\":22470:22484   */\n      add\n        /* \"#utility.yul\":22463:22519   */\n      mstore\n        /* \"#utility.yul\":22346:22526   */\n      pop\n      jump\t// out\n        /* \"#utility.yul\":22532:22898   */\n    tag_428:\n        /* \"#utility.yul\":22674:22677   */\n      0x00\n        /* \"#utility.yul\":22695:22762   */\n      tag_668\n        /* \"#utility.yul\":22759:22761   */\n      0x1e\n        /* \"#utility.yul\":22754:22757   */\n      dup4\n        /* \"#utility.yul\":22695:22762   */\n      tag_403\n      jump\t// in\n    tag_668:\n        /* \"#utility.yul\":22688:22762   */\n      swap2\n      pop\n        /* \"#utility.yul\":22771:22864   */\n      tag_669\n        /* \"#utility.yul\":22860:22863   */\n      dup3\n        /* \"#utility.yul\":22771:22864   */\n      tag_427\n      jump\t// in\n    tag_669:\n        /* \"#utility.yul\":22889:22891   */\n      0x20\n        /* \"#utility.yul\":22884:22887   */\n      dup3\n        /* \"#utility.yul\":22880:22892   */\n      add\n        /* \"#utility.yul\":22873:22892   */\n      swap1\n      pop\n        /* \"#utility.yul\":22532:22898   */\n      swap2\n      swap1\n      pop\n      jump\t// out\n        /* \"#utility.yul\":22904:23323   */\n    tag_299:\n        /* \"#utility.yul\":23070:23074   */\n      0x00\n        /* \"#utility.yul\":23108:23110   */\n      0x20\n        /* \"#utility.yul\":23097:23106   */\n      dup3\n        /* \"#utility.yul\":23093:23111   */\n      add\n        /* \"#utility.yul\":23085:23111   */\n      swap1\n      pop\n        /* \"#utility.yul\":23157:23166   */\n      dup2\n        /* \"#utility.yul\":23151:23155   */\n      dup2\n        /* \"#utility.yul\":23147:23167   */\n      sub\n        /* \"#utility.yul\":23143:23144   */\n      0x00\n        /* \"#utility.yul\":23132:23141   */\n      dup4\n        /* \"#utility.yul\":23128:23145   */\n      add\n        /* \"#utility.yul\":23121:23168   */\n      mstore\n        /* \"#utility.yul\":23185:23316   */\n      tag_671\n        /* \"#utility.yul\":23311:23315   */\n      dup2\n        /* \"#utility.yul\":23185:23316   */\n      tag_428\n      jump\t// in\n    tag_671:\n        /* \"#utility.yul\":23177:23316   */\n      swap1\n      pop\n        /* \"#utility.yul\":22904:23323   */\n      swap2\n      swap1\n      pop\n      jump\t// out\n        /* \"#utility.yul\":23329:23739   */\n    tag_301:\n        /* \"#utility.yul\":23369:23376   */\n      0x00\n        /* \"#utility.yul\":23392:23412   */\n      tag_673\n        /* \"#utility.yul\":23410:23411   */\n      dup3\n        /* \"#utility.yul\":23392:23412   */\n      tag_386\n      jump\t// in\n    tag_673:\n        /* \"#utility.yul\":23387:23412   */\n      swap2\n      pop\n        /* \"#utility.yul\":23426:23446   */\n      tag_674\n        /* \"#utility.yul\":23444:23445   */\n      dup4\n        /* \"#utility.yul\":23426:23446   */\n      tag_386\n      jump\t// in\n    tag_674:\n        /* \"#utility.yul\":23421:23446   */\n      swap3\n      pop\n        /* \"#utility.yul\":23481:23482   */\n      dup3\n        /* \"#utility.yul\":23478:23479   */\n      dup3\n        /* \"#utility.yul\":23474:23483   */\n      mul\n        /* \"#utility.yul\":23503:23533   */\n      tag_675\n        /* \"#utility.yul\":23521:23532   */\n      dup2\n        /* \"#utility.yul\":23503:23533   */\n      tag_386\n      jump\t// in\n    tag_675:\n        /* \"#utility.yul\":23492:23533   */\n      swap2\n      pop\n        /* \"#utility.yul\":23682:23683   */\n      dup3\n        /* \"#utility.yul\":23673:23680   */\n      dup3\n        /* \"#utility.yul\":23669:23684   */\n      div\n        /* \"#utility.yul\":23666:23667   */\n      dup5\n        /* \"#utility.yul\":23663:23685   */\n      eq\n        /* \"#utility.yul\":23643:23644   */\n      dup4\n        /* \"#utility.yul\":23636:23645   */\n      iszero\n        /* \"#utility.yul\":23616:23699   */\n      or\n        /* \"#utility.yul\":23593:23732   */\n      tag_676\n      jumpi\n        /* \"#utility.yul\":23712:23730   */\n      tag_677\n      tag_406\n      jump\t// in\n    tag_677:\n        /* \"#utility.yul\":23593:23732   */\n    tag_676:\n        /* \"#utility.yul\":23377:23739   */\n      pop\n        /* \"#utility.yul\":23329:23739   */\n      swap3\n      swap2\n      pop\n      pop\n      jump\t// out\n        /* \"#utility.yul\":23745:23925   */\n    tag_429:\n        /* \"#utility.yul\":23793:23870   */\n      0x4e487b7100000000000000000000000000000000000000000000000000000000\n        /* \"#utility.yul\":23790:23791   */\n      0x00\n        /* \"#utility.yul\":23783:23871   */\n      mstore\n        /* \"#utility.yul\":23890:23894   */\n      0x12\n        /* \"#utility.yul\":23887:23888   */\n      0x04\n        /* \"#utility.yul\":23880:23895   */\n      mstore\n        /* \"#utility.yul\":23914:23918   */\n      0x24\n        /* \"#utility.yul\":23911:23912   */\n      0x00\n        /* \"#utility.yul\":23904:23919   */\n      revert\n        /* \"#utility.yul\":23931:24116   */\n    tag_303:\n        /* \"#utility.yul\":23971:23972   */\n      0x00\n        /* \"#utility.yul\":23988:24008   */\n      tag_680\n        /* \"#utility.yul\":24006:24007   */\n      dup3\n        /* \"#utility.yul\":23988:24008   */\n      tag_386\n      jump\t// in\n    tag_680:\n        /* \"#utility.yul\":23983:24008   */\n      swap2\n      pop\n        /* \"#utility.yul\":24022:24042   */\n      tag_681\n        /* \"#utility.yul\":24040:24041   */\n      dup4\n        /* \"#utility.yul\":24022:24042   */\n      tag_386\n      jump\t// in\n    tag_681:\n        /* \"#utility.yul\":24017:24042   */\n      swap3\n      pop\n        /* \"#utility.yul\":24061:24062   */\n      dup3\n        /* \"#utility.yul\":24051:24086   */\n      tag_682\n      jumpi\n        /* \"#utility.yul\":24066:24084   */\n      tag_683\n      tag_429\n      jump\t// in\n    tag_683:\n        /* \"#utility.yul\":24051:24086   */\n    tag_682:\n        /* \"#utility.yul\":24108:24109   */\n      dup3\n        /* \"#utility.yul\":24105:24106   */\n      dup3\n        /* \"#utility.yul\":24101:24110   */\n      div\n        /* \"#utility.yul\":24096:24110   */\n      swap1\n      pop\n        /* \"#utility.yul\":23931:24116   */\n      swap3\n      swap2\n      pop\n      pop\n      jump\t// out\n        /* \"#utility.yul\":24122:24351   */\n    tag_430:\n        /* \"#utility.yul\":24262:24296   */\n      0x5361666545524332303a204552433230206f7065726174696f6e20646964206e\n        /* \"#utility.yul\":24258:24259   */\n      0x00\n        /* \"#utility.yul\":24250:24256   */\n      dup3\n        /* \"#utility.yul\":24246:24260   */\n      add\n        /* \"#utility.yul\":24239:24297   */\n      mstore\n        /* \"#utility.yul\":24331:24343   */\n      0x6f74207375636365656400000000000000000000000000000000000000000000\n        /* \"#utility.yul\":24326:24328   */\n      0x20\n        /* \"#utility.yul\":24318:24324   */\n      dup3\n        /* \"#utility.yul\":24314:24329   */\n      add\n        /* \"#utility.yul\":24307:24344   */\n      mstore\n        /* \"#utility.yul\":24122:24351   */\n      pop\n      jump\t// out\n        /* \"#utility.yul\":24357:24723   */\n    tag_431:\n        /* \"#utility.yul\":24499:24502   */\n      0x00\n        /* \"#utility.yul\":24520:24587   */\n      tag_686\n        /* \"#utility.yul\":24584:24586   */\n      0x2a\n        /* \"#utility.yul\":24579:24582   */\n      dup4\n        /* \"#utility.yul\":24520:24587   */\n      tag_403\n      jump\t// in\n    tag_686:\n        /* \"#utility.yul\":24513:24587   */\n      swap2\n      pop\n        /* \"#utility.yul\":24596:24689   */\n      tag_687\n        /* \"#utility.yul\":24685:24688   */\n      dup3\n        /* \"#utility.yul\":24596:24689   */\n      tag_430\n      jump\t// in\n    tag_687:\n        /* \"#utility.yul\":24714:24716   */\n      0x40\n        /* \"#utility.yul\":24709:24712   */\n      dup3\n        /* \"#utility.yul\":24705:24717   */\n      add\n        /* \"#utility.yul\":24698:24717   */\n      swap1\n      pop\n        /* \"#utility.yul\":24357:24723   */\n      swap2\n      swap1\n      pop\n      jump\t// out\n        /* \"#utility.yul\":24729:25148   */\n    tag_329:\n        /* \"#utility.yul\":24895:24899   */\n      0x00\n        /* \"#utility.yul\":24933:24935   */\n      0x20\n        /* \"#utility.yul\":24922:24931   */\n      dup3\n        /* \"#utility.yul\":24918:24936   */\n      add\n        /* \"#utility.yul\":24910:24936   */\n      swap1\n      pop\n        /* \"#utility.yul\":24982:24991   */\n      dup2\n        /* \"#utility.yul\":24976:24980   */\n      dup2\n        /* \"#utility.yul\":24972:24992   */\n      sub\n        /* \"#utility.yul\":24968:24969   */\n      0x00\n        /* \"#utility.yul\":24957:24966   */\n      dup4\n        /* \"#utility.yul\":24953:24970   */\n      add\n        /* \"#utility.yul\":24946:24993   */\n      mstore\n        /* \"#utility.yul\":25010:25141   */\n      tag_689\n        /* \"#utility.yul\":25136:25140   */\n      dup2\n        /* \"#utility.yul\":25010:25141   */\n      tag_431\n      jump\t// in\n    tag_689:\n        /* \"#utility.yul\":25002:25141   */\n      swap1\n      pop\n        /* \"#utility.yul\":24729:25148   */\n      swap2\n      swap1\n      pop\n      jump\t// out\n        /* \"#utility.yul\":25154:25239   */\n    tag_432:\n        /* \"#utility.yul\":25199:25206   */\n      0x00\n        /* \"#utility.yul\":25228:25233   */\n      dup2\n        /* \"#utility.yul\":25217:25233   */\n      swap1\n      pop\n        /* \"#utility.yul\":25154:25239   */\n      swap2\n      swap1\n      pop\n      jump\t// out\n        /* \"#utility.yul\":25245:25305   */\n    tag_433:\n        /* \"#utility.yul\":25273:25276   */\n      0x00\n        /* \"#utility.yul\":25294:25299   */\n      dup2\n        /* \"#utility.yul\":25287:25299   */\n      swap1\n      pop\n        /* \"#utility.yul\":25245:25305   */\n      swap2\n      swap1\n      pop\n      jump\t// out\n        /* \"#utility.yul\":25311:25469   */\n    tag_434:\n        /* \"#utility.yul\":25369:25378   */\n      0x00\n        /* \"#utility.yul\":25402:25463   */\n      tag_693\n        /* \"#utility.yul\":25420:25462   */\n      tag_694\n        /* \"#utility.yul\":25429:25461   */\n      tag_695\n        /* \"#utility.yul\":25455:25460   */\n      dup5\n        /* \"#utility.yul\":25429:25461   */\n      tag_432\n      jump\t// in\n    tag_695:\n        /* \"#utility.yul\":25420:25462   */\n      tag_433\n      jump\t// in\n    tag_694:\n        /* \"#utility.yul\":25402:25463   */\n      tag_386\n      jump\t// in\n    tag_693:\n        /* \"#utility.yul\":25389:25463   */\n      swap1\n      pop\n        /* \"#utility.yul\":25311:25469   */\n      swap2\n      swap1\n      pop\n      jump\t// out\n        /* \"#utility.yul\":25475:25622   */\n    tag_435:\n        /* \"#utility.yul\":25570:25615   */\n      tag_697\n        /* \"#utility.yul\":25609:25614   */\n      dup2\n        /* \"#utility.yul\":25570:25615   */\n      tag_434\n      jump\t// in\n    tag_697:\n        /* \"#utility.yul\":25565:25568   */\n      dup3\n        /* \"#utility.yul\":25558:25616   */\n      mstore\n        /* \"#utility.yul\":25475:25622   */\n      pop\n      pop\n      jump\t// out\n        /* \"#utility.yul\":25628:26348   */\n    tag_332:\n        /* \"#utility.yul\":25863:25867   */\n      0x00\n        /* \"#utility.yul\":25901:25904   */\n      0x80\n        /* \"#utility.yul\":25890:25899   */\n      dup3\n        /* \"#utility.yul\":25886:25905   */\n      add\n        /* \"#utility.yul\":25878:25905   */\n      swap1\n      pop\n        /* \"#utility.yul\":25915:25994   */\n      tag_699\n        /* \"#utility.yul\":25991:25992   */\n      0x00\n        /* \"#utility.yul\":25980:25989   */\n      dup4\n        /* \"#utility.yul\":25976:25993   */\n      add\n        /* \"#utility.yul\":25967:25973   */\n      dup8\n        /* \"#utility.yul\":25915:25994   */\n      tag_435\n      jump\t// in\n    tag_699:\n        /* \"#utility.yul\":26041:26050   */\n      dup2\n        /* \"#utility.yul\":26035:26039   */\n      dup2\n        /* \"#utility.yul\":26031:26051   */\n      sub\n        /* \"#utility.yul\":26026:26028   */\n      0x20\n        /* \"#utility.yul\":26015:26024   */\n      dup4\n        /* \"#utility.yul\":26011:26029   */\n      add\n        /* \"#utility.yul\":26004:26052   */\n      mstore\n        /* \"#utility.yul\":26069:26177   */\n      tag_700\n        /* \"#utility.yul\":26172:26176   */\n      dup2\n        /* \"#utility.yul\":26163:26169   */\n      dup7\n        /* \"#utility.yul\":26069:26177   */\n      tag_415\n      jump\t// in\n    tag_700:\n        /* \"#utility.yul\":26061:26177   */\n      swap1\n      pop\n        /* \"#utility.yul\":26187:26259   */\n      tag_701\n        /* \"#utility.yul\":26255:26257   */\n      0x40\n        /* \"#utility.yul\":26244:26253   */\n      dup4\n        /* \"#utility.yul\":26240:26258   */\n      add\n        /* \"#utility.yul\":26231:26237   */\n      dup6\n        /* \"#utility.yul\":26187:26259   */\n      tag_380\n      jump\t// in\n    tag_701:\n        /* \"#utility.yul\":26269:26341   */\n      tag_702\n        /* \"#utility.yul\":26337:26339   */\n      0x60\n        /* \"#utility.yul\":26326:26335   */\n      dup4\n        /* \"#utility.yul\":26322:26340   */\n      add\n        /* \"#utility.yul\":26313:26319   */\n      dup5\n        /* \"#utility.yul\":26269:26341   */\n      tag_389\n      jump\t// in\n    tag_702:\n        /* \"#utility.yul\":25628:26348   */\n      swap6\n      swap5\n      pop\n      pop\n      pop\n      pop\n      pop\n      jump\t// out\n        /* \"#utility.yul\":26354:26796   */\n    tag_339:\n        /* \"#utility.yul\":26503:26507   */\n      0x00\n        /* \"#utility.yul\":26541:26543   */\n      0x60\n        /* \"#utility.yul\":26530:26539   */\n      dup3\n        /* \"#utility.yul\":26526:26544   */\n      add\n        /* \"#utility.yul\":26518:26544   */\n      swap1\n      pop\n        /* \"#utility.yul\":26554:26625   */\n      tag_704\n        /* \"#utility.yul\":26622:26623   */\n      0x00\n        /* \"#utility.yul\":26611:26620   */\n      dup4\n        /* \"#utility.yul\":26607:26624   */\n      add\n        /* \"#utility.yul\":26598:26604   */\n      dup7\n        /* \"#utility.yul\":26554:26625   */\n      tag_380\n      jump\t// in\n    tag_704:\n        /* \"#utility.yul\":26635:26707   */\n      tag_705\n        /* \"#utility.yul\":26703:26705   */\n      0x20\n        /* \"#utility.yul\":26692:26701   */\n      dup4\n        /* \"#utility.yul\":26688:26706   */\n      add\n        /* \"#utility.yul\":26679:26685   */\n      dup6\n        /* \"#utility.yul\":26635:26707   */\n      tag_380\n      jump\t// in\n    tag_705:\n        /* \"#utility.yul\":26717:26789   */\n      tag_706\n        /* \"#utility.yul\":26785:26787   */\n      0x40\n        /* \"#utility.yul\":26774:26783   */\n      dup4\n        /* \"#utility.yul\":26770:26788   */\n      add\n        /* \"#utility.yul\":26761:26767   */\n      dup5\n        /* \"#utility.yul\":26717:26789   */\n      tag_389\n      jump\t// in\n    tag_706:\n        /* \"#utility.yul\":26354:26796   */\n      swap5\n      swap4\n      pop\n      pop\n      pop\n      pop\n      jump\t// out\n        /* \"#utility.yul\":26802:27633   */\n    tag_342:\n        /* \"#utility.yul\":27065:27069   */\n      0x00\n        /* \"#utility.yul\":27103:27106   */\n      0xa0\n        /* \"#utility.yul\":27092:27101   */\n      dup3\n        /* \"#utility.yul\":27088:27107   */\n      add\n        /* \"#utility.yul\":27080:27107   */\n      swap1\n      pop\n        /* \"#utility.yul\":27117:27188   */\n      tag_708\n        /* \"#utility.yul\":27185:27186   */\n      0x00\n        /* \"#utility.yul\":27174:27183   */\n      dup4\n        /* \"#utility.yul\":27170:27187   */\n      add\n        /* \"#utility.yul\":27161:27167   */\n      dup9\n        /* \"#utility.yul\":27117:27188   */\n      tag_389\n      jump\t// in\n    tag_708:\n        /* \"#utility.yul\":27198:27278   */\n      tag_709\n        /* \"#utility.yul\":27274:27276   */\n      0x20\n        /* \"#utility.yul\":27263:27272   */\n      dup4\n        /* \"#utility.yul\":27259:27277   */\n      add\n        /* \"#utility.yul\":27250:27256   */\n      dup8\n        /* \"#utility.yul\":27198:27278   */\n      tag_435\n      jump\t// in\n    tag_709:\n        /* \"#utility.yul\":27325:27334   */\n      dup2\n        /* \"#utility.yul\":27319:27323   */\n      dup2\n        /* \"#utility.yul\":27315:27335   */\n      sub\n        /* \"#utility.yul\":27310:27312   */\n      0x40\n        /* \"#utility.yul\":27299:27308   */\n      dup4\n        /* \"#utility.yul\":27295:27313   */\n      add\n        /* \"#utility.yul\":27288:27336   */\n      mstore\n        /* \"#utility.yul\":27353:27461   */\n      tag_710\n        /* \"#utility.yul\":27456:27460   */\n      dup2\n        /* \"#utility.yul\":27447:27453   */\n      dup7\n        /* \"#utility.yul\":27353:27461   */\n      tag_415\n      jump\t// in\n    tag_710:\n        /* \"#utility.yul\":27345:27461   */\n      swap1\n      pop\n        /* \"#utility.yul\":27471:27543   */\n      tag_711\n        /* \"#utility.yul\":27539:27541   */\n      0x60\n        /* \"#utility.yul\":27528:27537   */\n      dup4\n        /* \"#utility.yul\":27524:27542   */\n      add\n        /* \"#utility.yul\":27515:27521   */\n      dup6\n        /* \"#utility.yul\":27471:27543   */\n      tag_380\n      jump\t// in\n    tag_711:\n        /* \"#utility.yul\":27553:27626   */\n      tag_712\n        /* \"#utility.yul\":27621:27624   */\n      0x80\n        /* \"#utility.yul\":27610:27619   */\n      dup4\n        /* \"#utility.yul\":27606:27625   */\n      add\n        /* \"#utility.yul\":27597:27603   */\n      dup5\n        /* \"#utility.yul\":27553:27626   */\n      tag_389\n      jump\t// in\n    tag_712:\n        /* \"#utility.yul\":26802:27633   */\n      swap7\n      swap6\n      pop\n      pop\n      pop\n      pop\n      pop\n      pop\n      jump\t// out\n        /* \"#utility.yul\":27639:27864   */\n    tag_436:\n        /* \"#utility.yul\":27779:27813   */\n      0x416464726573733a20696e73756666696369656e742062616c616e636520666f\n        /* \"#utility.yul\":27775:27776   */\n      0x00\n        /* \"#utility.yul\":27767:27773   */\n      dup3\n        /* \"#utility.yul\":27763:27777   */\n      add\n        /* \"#utility.yul\":27756:27814   */\n      mstore\n        /* \"#utility.yul\":27848:27856   */\n      0x722063616c6c0000000000000000000000000000000000000000000000000000\n        /* \"#utility.yul\":27843:27845   */\n      0x20\n        /* \"#utility.yul\":27835:27841   */\n      dup3\n        /* \"#utility.yul\":27831:27846   */\n      add\n        /* \"#utility.yul\":27824:27857   */\n      mstore\n        /* \"#utility.yul\":27639:27864   */\n      pop\n      jump\t// out\n        /* \"#utility.yul\":27870:28236   */\n    tag_437:\n        /* \"#utility.yul\":28012:28015   */\n      0x00\n        /* \"#utility.yul\":28033:28100   */\n      tag_715\n        /* \"#utility.yul\":28097:28099   */\n      0x26\n        /* \"#utility.yul\":28092:28095   */\n      dup4\n        /* \"#utility.yul\":28033:28100   */\n      tag_403\n      jump\t// in\n    tag_715:\n        /* \"#utility.yul\":28026:28100   */\n      swap2\n      pop\n        /* \"#utility.yul\":28109:28202   */\n      tag_716\n        /* \"#utility.yul\":28198:28201   */\n      dup3\n        /* \"#utility.yul\":28109:28202   */\n      tag_436\n      jump\t// in\n    tag_716:\n        /* \"#utility.yul\":28227:28229   */\n      0x40\n        /* \"#utility.yul\":28222:28225   */\n      dup3\n        /* \"#utility.yul\":28218:28230   */\n      add\n        /* \"#utility.yul\":28211:28230   */\n      swap1\n      pop\n        /* \"#utility.yul\":27870:28236   */\n      swap2\n      swap1\n      pop\n      jump\t// out\n        /* \"#utility.yul\":28242:28661   */\n    tag_357:\n        /* \"#utility.yul\":28408:28412   */\n      0x00\n        /* \"#utility.yul\":28446:28448   */\n      0x20\n        /* \"#utility.yul\":28435:28444   */\n      dup3\n        /* \"#utility.yul\":28431:28449   */\n      add\n        /* \"#utility.yul\":28423:28449   */\n      swap1\n      pop\n        /* \"#utility.yul\":28495:28504   */\n      dup2\n        /* \"#utility.yul\":28489:28493   */\n      dup2\n        /* \"#utility.yul\":28485:28505   */\n      sub\n        /* \"#utility.yul\":28481:28482   */\n      0x00\n        /* \"#utility.yul\":28470:28479   */\n      dup4\n        /* \"#utility.yul\":28466:28483   */\n      add\n        /* \"#utility.yul\":28459:28506   */\n      mstore\n        /* \"#utility.yul\":28523:28654   */\n      tag_718\n        /* \"#utility.yul\":28649:28653   */\n      dup2\n        /* \"#utility.yul\":28523:28654   */\n      tag_437\n      jump\t// in\n    tag_718:\n        /* \"#utility.yul\":28515:28654   */\n      swap1\n      pop\n        /* \"#utility.yul\":28242:28661   */\n      swap2\n      swap1\n      pop\n      jump\t// out\n        /* \"#utility.yul\":28667:28846   */\n    tag_438:\n        /* \"#utility.yul\":28807:28838   */\n      0x416464726573733a2063616c6c20746f206e6f6e2d636f6e7472616374000000\n        /* \"#utility.yul\":28803:28804   */\n      0x00\n        /* \"#utility.yul\":28795:28801   */\n      dup3\n        /* \"#utility.yul\":28791:28805   */\n      add\n        /* \"#utility.yul\":28784:28839   */\n      mstore\n        /* \"#utility.yul\":28667:28846   */\n      pop\n      jump\t// out\n        /* \"#utility.yul\":28852:29218   */\n    tag_439:\n        /* \"#utility.yul\":28994:28997   */\n      0x00\n        /* \"#utility.yul\":29015:29082   */\n      tag_721\n        /* \"#utility.yul\":29079:29081   */\n      0x1d\n        /* \"#utility.yul\":29074:29077   */\n      dup4\n        /* \"#utility.yul\":29015:29082   */\n      tag_403\n      jump\t// in\n    tag_721:\n        /* \"#utility.yul\":29008:29082   */\n      swap2\n      pop\n        /* \"#utility.yul\":29091:29184   */\n      tag_722\n        /* \"#utility.yul\":29180:29183   */\n      dup3\n        /* \"#utility.yul\":29091:29184   */\n      tag_438\n      jump\t// in\n    tag_722:\n        /* \"#utility.yul\":29209:29211   */\n      0x20\n        /* \"#utility.yul\":29204:29207   */\n      dup3\n        /* \"#utility.yul\":29200:29212   */\n      add\n        /* \"#utility.yul\":29193:29212   */\n      swap1\n      pop\n        /* \"#utility.yul\":28852:29218   */\n      swap2\n      swap1\n      pop\n      jump\t// out\n        /* \"#utility.yul\":29224:29643   */\n    tag_362:\n        /* \"#utility.yul\":29390:29394   */\n      0x00\n        /* \"#utility.yul\":29428:29430   */\n      0x20\n        /* \"#utility.yul\":29417:29426   */\n      dup3\n        /* \"#utility.yul\":29413:29431   */\n      add\n        /* \"#utility.yul\":29405:29431   */\n      swap1\n      pop\n        /* \"#utility.yul\":29477:29486   */\n      dup2\n        /* \"#utility.yul\":29471:29475   */\n      dup2\n        /* \"#utility.yul\":29467:29487   */\n      sub\n        /* \"#utility.yul\":29463:29464   */\n      0x00\n        /* \"#utility.yul\":29452:29461   */\n      dup4\n        /* \"#utility.yul\":29448:29465   */\n      add\n        /* \"#utility.yul\":29441:29488   */\n      mstore\n        /* \"#utility.yul\":29505:29636   */\n      tag_724\n        /* \"#utility.yul\":29631:29635   */\n      dup2\n        /* \"#utility.yul\":29505:29636   */\n      tag_439\n      jump\t// in\n    tag_724:\n        /* \"#utility.yul\":29497:29636   */\n      swap1\n      pop\n        /* \"#utility.yul\":29224:29643   */\n      swap2\n      swap1\n      pop\n      jump\t// out\n        /* \"#utility.yul\":29649:29747   */\n    tag_440:\n        /* \"#utility.yul\":29700:29706   */\n      0x00\n        /* \"#utility.yul\":29734:29739   */\n      dup2\n        /* \"#utility.yul\":29728:29740   */\n      mload\n        /* \"#utility.yul\":29718:29740   */\n      swap1\n      pop\n        /* \"#utility.yul\":29649:29747   */\n      swap2\n      swap1\n      pop\n      jump\t// out\n        /* \"#utility.yul\":29753:29900   */\n    tag_441:\n        /* \"#utility.yul\":29854:29865   */\n      0x00\n        /* \"#utility.yul\":29891:29894   */\n      dup2\n        /* \"#utility.yul\":29876:29894   */\n      swap1\n      pop\n        /* \"#utility.yul\":29753:29900   */\n      swap3\n      swap2\n      pop\n      pop\n      jump\t// out\n        /* \"#utility.yul\":29906:30045   */\n    tag_442:\n        /* \"#utility.yul\":29995:30001   */\n      dup3\n        /* \"#utility.yul\":29990:29993   */\n      dup2\n        /* \"#utility.yul\":29985:29988   */\n      dup4\n        /* \"#utility.yul\":29979:30002   */\n      mcopy\n        /* \"#utility.yul\":30036:30037   */\n      0x00\n        /* \"#utility.yul\":30027:30033   */\n      dup4\n        /* \"#utility.yul\":30022:30025   */\n      dup4\n        /* \"#utility.yul\":30018:30034   */\n      add\n        /* \"#utility.yul\":30011:30038   */\n      mstore\n        /* \"#utility.yul\":29906:30045   */\n      pop\n      pop\n      pop\n      jump\t// out\n        /* \"#utility.yul\":30051:30437   */\n    tag_443:\n        /* \"#utility.yul\":30155:30158   */\n      0x00\n        /* \"#utility.yul\":30183:30221   */\n      tag_729\n        /* \"#utility.yul\":30215:30220   */\n      dup3\n        /* \"#utility.yul\":30183:30221   */\n      tag_440\n      jump\t// in\n    tag_729:\n        /* \"#utility.yul\":30237:30325   */\n      tag_730\n        /* \"#utility.yul\":30318:30324   */\n      dup2\n        /* \"#utility.yul\":30313:30316   */\n      dup6\n        /* \"#utility.yul\":30237:30325   */\n      tag_441\n      jump\t// in\n    tag_730:\n        /* \"#utility.yul\":30230:30325   */\n      swap4\n      pop\n        /* \"#utility.yul\":30334:30399   */\n      tag_731\n        /* \"#utility.yul\":30392:30398   */\n      dup2\n        /* \"#utility.yul\":30387:30390   */\n      dup6\n        /* \"#utility.yul\":30380:30384   */\n      0x20\n        /* \"#utility.yul\":30373:30378   */\n      dup7\n        /* \"#utility.yul\":30369:30385   */\n      add\n        /* \"#utility.yul\":30334:30399   */\n      tag_442\n      jump\t// in\n    tag_731:\n        /* \"#utility.yul\":30424:30430   */\n      dup1\n        /* \"#utility.yul\":30419:30422   */\n      dup5\n        /* \"#utility.yul\":30415:30431   */\n      add\n        /* \"#utility.yul\":30408:30431   */\n      swap2\n      pop\n        /* \"#utility.yul\":30159:30437   */\n      pop\n        /* \"#utility.yul\":30051:30437   */\n      swap3\n      swap2\n      pop\n      pop\n      jump\t// out\n        /* \"#utility.yul\":30443:30714   */\n    tag_364:\n        /* \"#utility.yul\":30573:30576   */\n      0x00\n        /* \"#utility.yul\":30595:30688   */\n      tag_733\n        /* \"#utility.yul\":30684:30687   */\n      dup3\n        /* \"#utility.yul\":30675:30681   */\n      dup5\n        /* \"#utility.yul\":30595:30688   */\n      tag_443\n      jump\t// in\n    tag_733:\n        /* \"#utility.yul\":30588:30688   */\n      swap2\n      pop\n        /* \"#utility.yul\":30705:30708   */\n      dup2\n        /* \"#utility.yul\":30698:30708   */\n      swap1\n      pop\n        /* \"#utility.yul\":30443:30714   */\n      swap3\n      swap2\n      pop\n      pop\n      jump\t// out\n        /* \"#utility.yul\":30720:30819   */\n    tag_444:\n        /* \"#utility.yul\":30772:30778   */\n      0x00\n        /* \"#utility.yul\":30806:30811   */\n      dup2\n        /* \"#utility.yul\":30800:30812   */\n      mload\n        /* \"#utility.yul\":30790:30812   */\n      swap1\n      pop\n        /* \"#utility.yul\":30720:30819   */\n      swap2\n      swap1\n      pop\n      jump\t// out\n        /* \"#utility.yul\":30825:31202   */\n    tag_445:\n        /* \"#utility.yul\":30913:30916   */\n      0x00\n        /* \"#utility.yul\":30941:30980   */\n      tag_736\n        /* \"#utility.yul\":30974:30979   */\n      dup3\n        /* \"#utility.yul\":30941:30980   */\n      tag_444\n      jump\t// in\n    tag_736:\n        /* \"#utility.yul\":30996:31067   */\n      tag_737\n        /* \"#utility.yul\":31060:31066   */\n      dup2\n        /* \"#utility.yul\":31055:31058   */\n      dup6\n        /* \"#utility.yul\":30996:31067   */\n      tag_403\n      jump\t// in\n    tag_737:\n        /* \"#utility.yul\":30989:31067   */\n      swap4\n      pop\n        /* \"#utility.yul\":31076:31141   */\n      tag_738\n        /* \"#utility.yul\":31134:31140   */\n      dup2\n        /* \"#utility.yul\":31129:31132   */\n      dup6\n        /* \"#utility.yul\":31122:31126   */\n      0x20\n        /* \"#utility.yul\":31115:31120   */\n      dup7\n        /* \"#utility.yul\":31111:31127   */\n      add\n        /* \"#utility.yul\":31076:31141   */\n      tag_442\n      jump\t// in\n    tag_738:\n        /* \"#utility.yul\":31166:31195   */\n      tag_739\n        /* \"#utility.yul\":31188:31194   */\n      dup2\n        /* \"#utility.yul\":31166:31195   */\n      tag_391\n      jump\t// in\n    tag_739:\n        /* \"#utility.yul\":31161:31164   */\n      dup5\n        /* \"#utility.yul\":31157:31196   */\n      add\n        /* \"#utility.yul\":31150:31196   */\n      swap2\n      pop\n        /* \"#utility.yul\":30917:31202   */\n      pop\n        /* \"#utility.yul\":30825:31202   */\n      swap3\n      swap2\n      pop\n      pop\n      jump\t// out\n        /* \"#utility.yul\":31208:31521   */\n    tag_377:\n        /* \"#utility.yul\":31321:31325   */\n      0x00\n        /* \"#utility.yul\":31359:31361   */\n      0x20\n        /* \"#utility.yul\":31348:31357   */\n      dup3\n        /* \"#utility.yul\":31344:31362   */\n      add\n        /* \"#utility.yul\":31336:31362   */\n      swap1\n      pop\n        /* \"#utility.yul\":31408:31417   */\n      dup2\n        /* \"#utility.yul\":31402:31406   */\n      dup2\n        /* \"#utility.yul\":31398:31418   */\n      sub\n        /* \"#utility.yul\":31394:31395   */\n      0x00\n        /* \"#utility.yul\":31383:31392   */\n      dup4\n        /* \"#utility.yul\":31379:31396   */\n      add\n        /* \"#utility.yul\":31372:31419   */\n      mstore\n        /* \"#utility.yul\":31436:31514   */\n      tag_741\n        /* \"#utility.yul\":31509:31513   */\n      dup2\n        /* \"#utility.yul\":31500:31506   */\n      dup5\n        /* \"#utility.yul\":31436:31514   */\n      tag_445\n      jump\t// in\n    tag_741:\n        /* \"#utility.yul\":31428:31514   */\n      swap1\n      pop\n        /* \"#utility.yul\":31208:31521   */\n      swap3\n      swap2\n      pop\n      pop\n      jump\t// out\n\n    auxdata: 0xa2646970667358221220479c1aa50384e7f5b9c8f74806ada9408d35ac5a8eedc21c53ec01b653640c8f64736f6c634300081a0033\n}\n",
				"bytecode": {
					"linkReferences": {},
					"object": "60806040526019600155348015610014575f80fd5b5060405161313438038061313483398181016040528101906100369190610240565b61005261004761011a60201b60201c565b61012160201b60201c565b8260025f6101000a81548173ffffffffffffffffffffffffffffffffffffffff021916908373ffffffffffffffffffffffffffffffffffffffff1602179055508160035f6101000a81548173ffffffffffffffffffffffffffffffffffffffff021916908373ffffffffffffffffffffffffffffffffffffffff1602179055508060045f6101000a81548173ffffffffffffffffffffffffffffffffffffffff021916908373ffffffffffffffffffffffffffffffffffffffff160217905550505050610290565b5f33905090565b5f805f9054906101000a900473ffffffffffffffffffffffffffffffffffffffff169050815f806101000a81548173ffffffffffffffffffffffffffffffffffffffff021916908373ffffffffffffffffffffffffffffffffffffffff1602179055508173ffffffffffffffffffffffffffffffffffffffff168173ffffffffffffffffffffffffffffffffffffffff167f8be0079c531659141344cd1fd0a4f28419497f9722a3daafe3b4186f6b6457e060405160405180910390a35050565b5f80fd5b5f73ffffffffffffffffffffffffffffffffffffffff82169050919050565b5f61020f826101e6565b9050919050565b61021f81610205565b8114610229575f80fd5b50565b5f8151905061023a81610216565b92915050565b5f805f60608486031215610257576102566101e2565b5b5f6102648682870161022c565b93505060206102758682870161022c565b92505060406102868682870161022c565b9150509250925092565b612e978061029d5f395ff3fe608060405260043610610113575f3560e01c80639c833fa71161009f578063daf9c21011610063578063daf9c21014610345578063ebcf905314610381578063ec6cc0cc146103a9578063f2fde38b146103c5578063f887ea40146103ed57610113565b80639c833fa7146102755780639de2827b1461029d578063bcec454f146102b9578063cd698e69146102e1578063d654e9a41461030957610113565b8063715018a6116100e6578063715018a6146101bb5780637ce3489b146101d15780637fd6f15c146101f95780638da5cb5b1461022357806395ccea671461024d57610113565b80633fc8cef3146101175780634b023cf81461014157806365e17c9d146101695780636b792c4b14610193575b5f80fd5b348015610122575f80fd5b5061012b610417565b6040516101389190611ebb565b60405180910390f35b34801561014c575f80fd5b5061016760048036038101906101629190611f0f565b61043c565b005b348015610174575f80fd5b5061017d6104fb565b60405161018a9190611ebb565b60405180910390f35b34801561019e575f80fd5b506101b960048036038101906101b49190611f6d565b610520565b005b3480156101c6575f80fd5b506101cf6105ea565b005b3480156101dc575f80fd5b506101f760048036038101906101f29190611f6d565b610671565b005b348015610204575f80fd5b5061020d6106f7565b60405161021a9190611fa7565b60405180910390f35b34801561022e575f80fd5b506102376106fd565b6040516102449190611ebb565b60405180910390f35b348015610258575f80fd5b50610273600480360381019061026e9190611fc0565b610724565b005b348015610280575f80fd5b5061029b6004803603810190610296919061220e565b6107cf565b005b6102b760048036038101906102b29190612284565b6108a6565b005b3480156102c4575f80fd5b506102df60048036038101906102da9190612304565b610c1e565b005b3480156102ec575f80fd5b5061030760048036038101906103029190612304565b610d24565b005b348015610314575f80fd5b5061032f600480360381019061032a919061234b565b610ebd565b60405161033c9190611fa7565b60405180910390f35b348015610350575f80fd5b5061036b60048036038101906103669190611f0f565b610f90565b60405161037891906123bf565b60405180910390f35b34801561038c575f80fd5b506103a760048036038101906103a291906123d8565b610fad565b005b6103c360048036038101906103be9190612416565b6110ad565b005b3480156103d0575f80fd5b506103eb60048036038101906103e69190611f0f565b611397565b005b3480156103f8575f80fd5b5061040161148d565b60405161040e9190611ebb565b60405180910390f35b60045f9054906101000a900473ffffffffffffffffffffffffffffffffffffffff1681565b6104446114b2565b73ffffffffffffffffffffffffffffffffffffffff166104626106fd565b73ffffffffffffffffffffffffffffffffffffffff16146104b8576040517f08c379a00000000000000000000000000000000000000000000000000000000081526004016104af906124c0565b60405180910390fd5b8060025f6101000a81548173ffffffffffffffffffffffffffffffffffffffff021916908373ffffffffffffffffffffffffffffffffffffffff16021790555050565b60025f9054906101000a900473ffffffffffffffffffffffffffffffffffffffff1681565b6105286114b2565b73ffffffffffffffffffffffffffffffffffffffff166105466106fd565b73ffffffffffffffffffffffffffffffffffffffff161461059c576040517f08c379a0000000000000000000000000000000000000000000000000000000008152600401610593906124c0565b60405180910390fd5b6105a46106fd565b73ffffffffffffffffffffffffffffffffffffffff166108fc8290811502906040515f60405180830381858888f193505050501580156105e6573d5f803e3d5ffd5b5050565b6105f26114b2565b73ffffffffffffffffffffffffffffffffffffffff166106106106fd565b73ffffffffffffffffffffffffffffffffffffffff1614610666576040517f08c379a000000000000000000000000000000000000000000000000000000000815260040161065d906124c0565b60405180910390fd5b61066f5f6114b9565b565b6106796114b2565b73ffffffffffffffffffffffffffffffffffffffff166106976106fd565b73ffffffffffffffffffffffffffffffffffffffff16146106ed576040517f08c379a00000000000000000000000000000000000000000000000000000000081526004016106e4906124c0565b60405180910390fd5b8060018190555050565b60015481565b5f805f9054906101000a900473ffffffffffffffffffffffffffffffffffffffff16905090565b61072c6114b2565b73ffffffffffffffffffffffffffffffffffffffff1661074a6106fd565b73ffffffffffffffffffffffffffffffffffffffff16146107a0576040517f08c379a0000000000000000000000000000000000000000000000000000000008152600401610797906124c0565b60405180910390fd5b6107cb33828473ffffffffffffffffffffffffffffffffffffffff1661157a9092919063ffffffff16565b5050565b6107d76114b2565b73ffffffffffffffffffffffffffffffffffffffff166107f56106fd565b73ffffffffffffffffffffffffffffffffffffffff161461084b576040517f08c379a0000000000000000000000000000000000000000000000000000000008152600401610842906124c0565b60405180910390fd5b5f5b82518110156108a15761089483828151811061086c5761086b6124de565b5b6020026020010151838381518110610887576108866124de565b5b6020026020010151611600565b808060010191505061084d565b505050565b5f73ffffffffffffffffffffffffffffffffffffffff168473ffffffffffffffffffffffffffffffffffffffff16036109e557805f815181106108ec576108eb6124de565b5b602002602001015173ffffffffffffffffffffffffffffffffffffffff1660045f9054906101000a900473ffffffffffffffffffffffffffffffffffffffff1673ffffffffffffffffffffffffffffffffffffffff161480156109a1575080600182516109599190612538565b8151811061096a576109696124de565b5b602002602001015173ffffffffffffffffffffffffffffffffffffffff168373ffffffffffffffffffffffffffffffffffffffff16145b6109e0576040517f08c379a00000000000000000000000000000000000000000000000000000000081526004016109d7906125db565b60405180910390fd5b610c0c565b5f73ffffffffffffffffffffffffffffffffffffffff168373ffffffffffffffffffffffffffffffffffffffff1603610b2457805f81518110610a2b57610a2a6124de565b5b602002602001015173ffffffffffffffffffffffffffffffffffffffff168473ffffffffffffffffffffffffffffffffffffffff16148015610ae057508060018251610a779190612538565b81518110610a8857610a876124de565b5b602002602001015173ffffffffffffffffffffffffffffffffffffffff1660045f9054906101000a900473ffffffffffffffffffffffffffffffffffffffff1673ffffffffffffffffffffffffffffffffffffffff16145b610b1f576040517f08c379a0000000000000000000000000000000000000000000000000000000008152600401610b16906125db565b60405180910390fd5b610c0b565b805f81518110610b3757610b366124de565b5b602002602001015173ffffffffffffffffffffffffffffffffffffffff168473ffffffffffffffffffffffffffffffffffffffff16148015610bcb57508060018251610b839190612538565b81518110610b9457610b936124de565b5b602002602001015173ffffffffffffffffffffffffffffffffffffffff168373ffffffffffffffffffffffffffffffffffffffff16145b610c0a576040517f08c379a0000000000000000000000000000000000000000000000000000000008152600401610c01906125db565b60405180910390fd5b5b5b610c18848484846116a1565b50505050565b610c266114b2565b73ffffffffffffffffffffffffffffffffffffffff16610c446106fd565b73ffffffffffffffffffffffffffffffffffffffff1614610c9a576040517f08c379a0000000000000000000000000000000000000000000000000000000008152600401610c91906124c0565b60405180910390fd5b5f5b8151811015610d20575f60055f848481518110610cbc57610cbb6124de565b5b602002602001015173ffffffffffffffffffffffffffffffffffffffff1673ffffffffffffffffffffffffffffffffffffffff1681526020019081526020015f205f6101000a81548160ff0219169083151502179055508080600101915050610c9c565b5050565b610d2c6114b2565b73ffffffffffffffffffffffffffffffffffffffff16610d4a6106fd565b73ffffffffffffffffffffffffffffffffffffffff1614610da0576040517f08c379a0000000000000000000000000000000000000000000000000000000008152600401610d97906124c0565b60405180910390fd5b5f5b8151811015610eb957600160055f848481518110610dc357610dc26124de565b5b602002602001015173ffffffffffffffffffffffffffffffffffffffff1673ffffffffffffffffffffffffffffffffffffffff1681526020019081526020015f205f6101000a81548160ff0219169083151502179055505f73ffffffffffffffffffffffffffffffffffffffff16828281518110610e4457610e436124de565b5b602002602001015173ffffffffffffffffffffffffffffffffffffffff1614610eac57610eab828281518110610e7d57610e7c6124de565b5b60200260200101517fffffffffffffffffffffffffffffffffffffffffffffffffffffffffffffffff611600565b5b8080600101915050610da2565b5050565b5f8060035f9054906101000a900473ffffffffffffffffffffffffffffffffffffffff1673ffffffffffffffffffffffffffffffffffffffff1663d06ca61f85856040518363ffffffff1660e01b8152600401610f1b9291906126b0565b5f60405180830381865afa158015610f35573d5f803e3d5ffd5b505050506040513d5f823e3d601f19601f82011682018060405250810190610f5d9190612787565b90508060018251610f6e9190612538565b81518110610f7f57610f7e6124de565b5b602002602001015191505092915050565b6005602052805f5260405f205f915054906101000a900460ff1681565b610fb56114b2565b73ffffffffffffffffffffffffffffffffffffffff16610fd36106fd565b73ffffffffffffffffffffffffffffffffffffffff1614611029576040517f08c379a0000000000000000000000000000000000000000000000000000000008152600401611020906124c0565b60405180910390fd5b8160035f6101000a81548173ffffffffffffffffffffffffffffffffffffffff021916908373ffffffffffffffffffffffffffffffffffffffff1602179055508060045f6101000a81548173ffffffffffffffffffffffffffffffffffffffff021916908373ffffffffffffffffffffffffffffffffffffffff1602179055505050565b5f600267ffffffffffffffff8111156110c9576110c8612012565b5b6040519080825280602002602001820160405280156110f75781602001602082028036833780820191505090505b5090505f73ffffffffffffffffffffffffffffffffffffffff168473ffffffffffffffffffffffffffffffffffffffff16036111f05760045f9054906101000a900473ffffffffffffffffffffffffffffffffffffffff16815f81518110611162576111616124de565b5b602002602001019073ffffffffffffffffffffffffffffffffffffffff16908173ffffffffffffffffffffffffffffffffffffffff168152505082816001815181106111b1576111b06124de565b5b602002602001019073ffffffffffffffffffffffffffffffffffffffff16908173ffffffffffffffffffffffffffffffffffffffff1681525050611385565b5f73ffffffffffffffffffffffffffffffffffffffff168373ffffffffffffffffffffffffffffffffffffffff16036112e65783815f81518110611237576112366124de565b5b602002602001019073ffffffffffffffffffffffffffffffffffffffff16908173ffffffffffffffffffffffffffffffffffffffff168152505060045f9054906101000a900473ffffffffffffffffffffffffffffffffffffffff16816001815181106112a7576112a66124de565b5b602002602001019073ffffffffffffffffffffffffffffffffffffffff16908173ffffffffffffffffffffffffffffffffffffffff1681525050611384565b83815f815181106112fa576112f96124de565b5b602002602001019073ffffffffffffffffffffffffffffffffffffffff16908173ffffffffffffffffffffffffffffffffffffffff16815250508281600181518110611349576113486124de565b5b602002602001019073ffffffffffffffffffffffffffffffffffffffff16908173ffffffffffffffffffffffffffffffffffffffff16815250505b5b611391848484846116a1565b50505050565b61139f6114b2565b73ffffffffffffffffffffffffffffffffffffffff166113bd6106fd565b73ffffffffffffffffffffffffffffffffffffffff1614611413576040517f08c379a000000000000000000000000000000000000000000000000000000000815260040161140a906124c0565b60405180910390fd5b5f73ffffffffffffffffffffffffffffffffffffffff168173ffffffffffffffffffffffffffffffffffffffff1603611481576040517f08c379a00000000000000000000000000000000000000000000000000000000081526004016114789061283e565b60405180910390fd5b61148a816114b9565b50565b60035f9054906101000a900473ffffffffffffffffffffffffffffffffffffffff1681565b5f33905090565b5f805f9054906101000a900473ffffffffffffffffffffffffffffffffffffffff169050815f806101000a81548173ffffffffffffffffffffffffffffffffffffffff021916908373ffffffffffffffffffffffffffffffffffffffff1602179055508173ffffffffffffffffffffffffffffffffffffffff168173ffffffffffffffffffffffffffffffffffffffff167f8be0079c531659141344cd1fd0a4f28419497f9722a3daafe3b4186f6b6457e060405160405180910390a35050565b6115fb8363a9059cbb60e01b848460405160240161159992919061285c565b604051602081830303815290604052907bffffffffffffffffffffffffffffffffffffffffffffffffffffffff19166020820180517bffffffffffffffffffffffffffffffffffffffffffffffffffffffff8381831617835250505050611981565b505050565b8173ffffffffffffffffffffffffffffffffffffffff1663095ea7b360035f9054906101000a900473ffffffffffffffffffffffffffffffffffffffff16836040518363ffffffff1660e01b815260040161165c92919061285c565b6020604051808303815f875af1158015611678573d5f803e3d5ffd5b505050506040513d601f19601f8201168201806040525081019061169c91906128ad565b505050565b5f82116116e3576040517f08c379a00000000000000000000000000000000000000000000000000000000081526004016116da90612948565b60405180910390fd5b60055f8573ffffffffffffffffffffffffffffffffffffffff1673ffffffffffffffffffffffffffffffffffffffff1681526020019081526020015f205f9054906101000a900460ff1661176c576040517f08c379a0000000000000000000000000000000000000000000000000000000008152600401611763906129d6565b60405180910390fd5b5f73ffffffffffffffffffffffffffffffffffffffff168473ffffffffffffffffffffffffffffffffffffffff160361188557348210156117e2576040517f08c379a00000000000000000000000000000000000000000000000000000000081526004016117d990612a3e565b60405180910390fd5b5f612710600154846117f49190612a5c565b6117fe9190612aca565b905060025f9054906101000a900473ffffffffffffffffffffffffffffffffffffffff1673ffffffffffffffffffffffffffffffffffffffff166108fc8290811502906040515f60405180830381858888f19350505050158015611864573d5f803e3d5ffd5b505f81846118729190612538565b905061187e8184611a46565b505061197b565b6118b23330848773ffffffffffffffffffffffffffffffffffffffff16611af0909392919063ffffffff16565b5f612710600154846118c49190612a5c565b6118ce9190612aca565b905061191c60025f9054906101000a900473ffffffffffffffffffffffffffffffffffffffff16828773ffffffffffffffffffffffffffffffffffffffff1661157a9092919063ffffffff16565b5f81846119299190612538565b90505f73ffffffffffffffffffffffffffffffffffffffff168573ffffffffffffffffffffffffffffffffffffffff160361196d576119688184611b79565b611978565b6119778184611c23565b5b50505b50505050565b5f6119e2826040518060400160405280602081526020017f5361666545524332303a206c6f772d6c6576656c2063616c6c206661696c65648152508573ffffffffffffffffffffffffffffffffffffffff16611ccd9092919063ffffffff16565b90505f81511115611a415780806020019051810190611a0191906128ad565b611a40576040517f08c379a0000000000000000000000000000000000000000000000000000000008152600401611a3790612b6a565b60405180910390fd5b5b505050565b60035f9054906101000a900473ffffffffffffffffffffffffffffffffffffffff1673ffffffffffffffffffffffffffffffffffffffff16637ff36ab5835f8433426040518663ffffffff1660e01b8152600401611aa79493929190612bca565b5f6040518083038185885af1158015611ac2573d5f803e3d5ffd5b50505050506040513d5f823e3d601f19601f82011682018060405250810190611aeb9190612787565b505050565b611b73846323b872dd60e01b858585604051602401611b1193929190612c14565b604051602081830303815290604052907bffffffffffffffffffffffffffffffffffffffffffffffffffffffff19166020820180517bffffffffffffffffffffffffffffffffffffffffffffffffffffffff8381831617835250505050611981565b50505050565b60035f9054906101000a900473ffffffffffffffffffffffffffffffffffffffff1673ffffffffffffffffffffffffffffffffffffffff166318cbafe5835f8433426040518663ffffffff1660e01b8152600401611bdb959493929190612c49565b5f604051808303815f875af1158015611bf6573d5f803e3d5ffd5b505050506040513d5f823e3d601f19601f82011682018060405250810190611c1e9190612787565b505050565b60035f9054906101000a900473ffffffffffffffffffffffffffffffffffffffff1673ffffffffffffffffffffffffffffffffffffffff166338ed1739835f8433426040518663ffffffff1660e01b8152600401611c85959493929190612c49565b5f604051808303815f875af1158015611ca0573d5f803e3d5ffd5b505050506040513d5f823e3d601f19601f82011682018060405250810190611cc89190612787565b505050565b6060611cdb84845f85611ce4565b90509392505050565b606082471015611d29576040517f08c379a0000000000000000000000000000000000000000000000000000000008152600401611d2090612d11565b60405180910390fd5b611d3285611df4565b611d71576040517f08c379a0000000000000000000000000000000000000000000000000000000008152600401611d6890612d79565b60405180910390fd5b5f808673ffffffffffffffffffffffffffffffffffffffff168587604051611d999190612de9565b5f6040518083038185875af1925050503d805f8114611dd3576040519150601f19603f3d011682016040523d82523d5f602084013e611dd8565b606091505b5091509150611de8828286611e16565b92505050949350505050565b5f808273ffffffffffffffffffffffffffffffffffffffff163b119050919050565b60608315611e2657829050611e75565b5f83511115611e385782518084602001fd5b816040517f08c379a0000000000000000000000000000000000000000000000000000000008152600401611e6c9190612e41565b60405180910390fd5b9392505050565b5f73ffffffffffffffffffffffffffffffffffffffff82169050919050565b5f611ea582611e7c565b9050919050565b611eb581611e9b565b82525050565b5f602082019050611ece5f830184611eac565b92915050565b5f604051905090565b5f80fd5b5f80fd5b611eee81611e9b565b8114611ef8575f80fd5b50565b5f81359050611f0981611ee5565b92915050565b5f60208284031215611f2457611f23611edd565b5b5f611f3184828501611efb565b91505092915050565b5f819050919050565b611f4c81611f3a565b8114611f56575f80fd5b50565b5f81359050611f6781611f43565b92915050565b5f60208284031215611f8257611f81611edd565b5b5f611f8f84828501611f59565b91505092915050565b611fa181611f3a565b82525050565b5f602082019050611fba5f830184611f98565b92915050565b5f8060408385031215611fd657611fd5611edd565b5b5f611fe385828601611efb565b9250506020611ff485828601611f59565b9150509250929050565b5f80fd5b5f601f19601f8301169050919050565b7f4e487b71000000000000000000000000000000000000000000000000000000005f52604160045260245ffd5b61204882612002565b810181811067ffffffffffffffff8211171561206757612066612012565b5b80604052505050565b5f612079611ed4565b9050612085828261203f565b919050565b5f67ffffffffffffffff8211156120a4576120a3612012565b5b602082029050602081019050919050565b5f80fd5b5f6120cb6120c68461208a565b612070565b905080838252602082019050602084028301858111156120ee576120ed6120b5565b5b835b8181101561211757806121038882611efb565b8452602084019350506020810190506120f0565b5050509392505050565b5f82601f83011261213557612134611ffe565b5b81356121458482602086016120b9565b91505092915050565b5f67ffffffffffffffff82111561216857612167612012565b5b602082029050602081019050919050565b5f61218b6121868461214e565b612070565b905080838252602082019050602084028301858111156121ae576121ad6120b5565b5b835b818110156121d757806121c38882611f59565b8452602084019350506020810190506121b0565b5050509392505050565b5f82601f8301126121f5576121f4611ffe565b5b8135612205848260208601612179565b91505092915050565b5f806040838503121561222457612223611edd565b5b5f83013567ffffffffffffffff81111561224157612240611ee1565b5b61224d85828601612121565b925050602083013567ffffffffffffffff81111561226e5761226d611ee1565b5b61227a858286016121e1565b9150509250929050565b5f805f806080858703121561229c5761229b611edd565b5b5f6122a987828801611efb565b94505060206122ba87828801611efb565b93505060406122cb87828801611f59565b925050606085013567ffffffffffffffff8111156122ec576122eb611ee1565b5b6122f887828801612121565b91505092959194509250565b5f6020828403121561231957612318611edd565b5b5f82013567ffffffffffffffff81111561233657612335611ee1565b5b61234284828501612121565b91505092915050565b5f806040838503121561236157612360611edd565b5b5f61236e85828601611f59565b925050602083013567ffffffffffffffff81111561238f5761238e611ee1565b5b61239b85828601612121565b9150509250929050565b5f8115159050919050565b6123b9816123a5565b82525050565b5f6020820190506123d25f8301846123b0565b92915050565b5f80604083850312156123ee576123ed611edd565b5b5f6123fb85828601611efb565b925050602061240c85828601611efb565b9150509250929050565b5f805f6060848603121561242d5761242c611edd565b5b5f61243a86828701611efb565b935050602061244b86828701611efb565b925050604061245c86828701611f59565b9150509250925092565b5f82825260208201905092915050565b7f4f776e61626c653a2063616c6c6572206973206e6f7420746865206f776e65725f82015250565b5f6124aa602083612466565b91506124b582612476565b602082019050919050565b5f6020820190508181035f8301526124d78161249e565b9050919050565b7f4e487b71000000000000000000000000000000000000000000000000000000005f52603260045260245ffd5b7f4e487b71000000000000000000000000000000000000000000000000000000005f52601160045260245ffd5b5f61254282611f3a565b915061254d83611f3a565b92508282039050818111156125655761256461250b565b5b92915050565b7f536f6c657269756d535741503a2050617468206d7573742062652073706563695f8201527f6669656400000000000000000000000000000000000000000000000000000000602082015250565b5f6125c5602483612466565b91506125d08261256b565b604082019050919050565b5f6020820190508181035f8301526125f2816125b9565b9050919050565b5f81519050919050565b5f82825260208201905092915050565b5f819050602082019050919050565b61262b81611e9b565b82525050565b5f61263c8383612622565b60208301905092915050565b5f602082019050919050565b5f61265e826125f9565b6126688185612603565b935061267383612613565b805f5b838110156126a357815161268a8882612631565b975061269583612648565b925050600181019050612676565b5085935050505092915050565b5f6040820190506126c35f830185611f98565b81810360208301526126d58184612654565b90509392505050565b5f815190506126ec81611f43565b92915050565b5f6127046126ff8461214e565b612070565b90508083825260208201905060208402830185811115612727576127266120b5565b5b835b81811015612750578061273c88826126de565b845260208401935050602081019050612729565b5050509392505050565b5f82601f83011261276e5761276d611ffe565b5b815161277e8482602086016126f2565b91505092915050565b5f6020828403121561279c5761279b611edd565b5b5f82015167ffffffffffffffff8111156127b9576127b8611ee1565b5b6127c58482850161275a565b91505092915050565b7f4f776e61626c653a206e6577206f776e657220697320746865207a65726f20615f8201527f6464726573730000000000000000000000000000000000000000000000000000602082015250565b5f612828602683612466565b9150612833826127ce565b604082019050919050565b5f6020820190508181035f8301526128558161281c565b9050919050565b5f60408201905061286f5f830185611eac565b61287c6020830184611f98565b9392505050565b61288c816123a5565b8114612896575f80fd5b50565b5f815190506128a781612883565b92915050565b5f602082840312156128c2576128c1611edd565b5b5f6128cf84828501612899565b91505092915050565b7f536f6c657269756d535741503a20616d6f756e74496e206d75737420626520675f8201527f726561746572207468616e203000000000000000000000000000000000000000602082015250565b5f612932602d83612466565b915061293d826128d8565b604082019050919050565b5f6020820190508181035f83015261295f81612926565b9050919050565b7f536f6c657269756d535741503a20546f6b656e41206973206e6f7420776869745f8201527f656c697374656400000000000000000000000000000000000000000000000000602082015250565b5f6129c0602783612466565b91506129cb82612966565b604082019050919050565b5f6020820190508181035f8301526129ed816129b4565b9050919050565b7f536f6c657269756d535741503a20496e73756666696369656e742045544800005f82015250565b5f612a28601e83612466565b9150612a33826129f4565b602082019050919050565b5f6020820190508181035f830152612a5581612a1c565b9050919050565b5f612a6682611f3a565b9150612a7183611f3a565b9250828202612a7f81611f3a565b91508282048414831517612a9657612a9561250b565b5b5092915050565b7f4e487b71000000000000000000000000000000000000000000000000000000005f52601260045260245ffd5b5f612ad482611f3a565b9150612adf83611f3a565b925082612aef57612aee612a9d565b5b828204905092915050565b7f5361666545524332303a204552433230206f7065726174696f6e20646964206e5f8201527f6f74207375636365656400000000000000000000000000000000000000000000602082015250565b5f612b54602a83612466565b9150612b5f82612afa565b604082019050919050565b5f6020820190508181035f830152612b8181612b48565b9050919050565b5f819050919050565b5f819050919050565b5f612bb4612baf612baa84612b88565b612b91565b611f3a565b9050919050565b612bc481612b9a565b82525050565b5f608082019050612bdd5f830187612bbb565b8181036020830152612bef8186612654565b9050612bfe6040830185611eac565b612c0b6060830184611f98565b95945050505050565b5f606082019050612c275f830186611eac565b612c346020830185611eac565b612c416040830184611f98565b949350505050565b5f60a082019050612c5c5f830188611f98565b612c696020830187612bbb565b8181036040830152612c7b8186612654565b9050612c8a6060830185611eac565b612c976080830184611f98565b9695505050505050565b7f416464726573733a20696e73756666696369656e742062616c616e636520666f5f8201527f722063616c6c0000000000000000000000000000000000000000000000000000602082015250565b5f612cfb602683612466565b9150612d0682612ca1565b604082019050919050565b5f6020820190508181035f830152612d2881612cef565b9050919050565b7f416464726573733a2063616c6c20746f206e6f6e2d636f6e74726163740000005f82015250565b5f612d63601d83612466565b9150612d6e82612d2f565b602082019050919050565b5f6020820190508181035f830152612d9081612d57565b9050919050565b5f81519050919050565b5f81905092915050565b8281835e5f83830152505050565b5f612dc382612d97565b612dcd8185612da1565b9350612ddd818560208601612dab565b80840191505092915050565b5f612df48284612db9565b915081905092915050565b5f81519050919050565b5f612e1382612dff565b612e1d8185612466565b9350612e2d818560208601612dab565b612e3681612002565b840191505092915050565b5f6020820190508181035f830152612e598184612e09565b90509291505056fea2646970667358221220479c1aa50384e7f5b9c8f74806ada9408d35ac5a8eedc21c53ec01b653640c8f64736f6c634300081a0033",
					"opcodes": "PUSH1 0x80 PUSH1 0x40 MSTORE PUSH1 0x19 PUSH1 0x1 SSTORE CALLVALUE DUP1 ISZERO PUSH2 0x14 JUMPI PUSH0 DUP1 REVERT JUMPDEST POP PUSH1 0x40 MLOAD PUSH2 0x3134 CODESIZE SUB DUP1 PUSH2 0x3134 DUP4 CODECOPY DUP2 DUP2 ADD PUSH1 0x40 MSTORE DUP2 ADD SWAP1 PUSH2 0x36 SWAP2 SWAP1 PUSH2 0x240 JUMP JUMPDEST PUSH2 0x52 PUSH2 0x47 PUSH2 0x11A PUSH1 0x20 SHL PUSH1 0x20 SHR JUMP JUMPDEST PUSH2 0x121 PUSH1 0x20 SHL PUSH1 0x20 SHR JUMP JUMPDEST DUP3 PUSH1 0x2 PUSH0 PUSH2 0x100 EXP DUP2 SLOAD DUP2 PUSH20 0xFFFFFFFFFFFFFFFFFFFFFFFFFFFFFFFFFFFFFFFF MUL NOT AND SWAP1 DUP4 PUSH20 0xFFFFFFFFFFFFFFFFFFFFFFFFFFFFFFFFFFFFFFFF AND MUL OR SWAP1 SSTORE POP DUP2 PUSH1 0x3 PUSH0 PUSH2 0x100 EXP DUP2 SLOAD DUP2 PUSH20 0xFFFFFFFFFFFFFFFFFFFFFFFFFFFFFFFFFFFFFFFF MUL NOT AND SWAP1 DUP4 PUSH20 0xFFFFFFFFFFFFFFFFFFFFFFFFFFFFFFFFFFFFFFFF AND MUL OR SWAP1 SSTORE POP DUP1 PUSH1 0x4 PUSH0 PUSH2 0x100 EXP DUP2 SLOAD DUP2 PUSH20 0xFFFFFFFFFFFFFFFFFFFFFFFFFFFFFFFFFFFFFFFF MUL NOT AND SWAP1 DUP4 PUSH20 0xFFFFFFFFFFFFFFFFFFFFFFFFFFFFFFFFFFFFFFFF AND MUL OR SWAP1 SSTORE POP POP POP POP PUSH2 0x290 JUMP JUMPDEST PUSH0 CALLER SWAP1 POP SWAP1 JUMP JUMPDEST PUSH0 DUP1 PUSH0 SWAP1 SLOAD SWAP1 PUSH2 0x100 EXP SWAP1 DIV PUSH20 0xFFFFFFFFFFFFFFFFFFFFFFFFFFFFFFFFFFFFFFFF AND SWAP1 POP DUP2 PUSH0 DUP1 PUSH2 0x100 EXP DUP2 SLOAD DUP2 PUSH20 0xFFFFFFFFFFFFFFFFFFFFFFFFFFFFFFFFFFFFFFFF MUL NOT AND SWAP1 DUP4 PUSH20 0xFFFFFFFFFFFFFFFFFFFFFFFFFFFFFFFFFFFFFFFF AND MUL OR SWAP1 SSTORE POP DUP2 PUSH20 0xFFFFFFFFFFFFFFFFFFFFFFFFFFFFFFFFFFFFFFFF AND DUP2 PUSH20 0xFFFFFFFFFFFFFFFFFFFFFFFFFFFFFFFFFFFFFFFF AND PUSH32 0x8BE0079C531659141344CD1FD0A4F28419497F9722A3DAAFE3B4186F6B6457E0 PUSH1 0x40 MLOAD PUSH1 0x40 MLOAD DUP1 SWAP2 SUB SWAP1 LOG3 POP POP JUMP JUMPDEST PUSH0 DUP1 REVERT JUMPDEST PUSH0 PUSH20 0xFFFFFFFFFFFFFFFFFFFFFFFFFFFFFFFFFFFFFFFF DUP3 AND SWAP1 POP SWAP2 SWAP1 POP JUMP JUMPDEST PUSH0 PUSH2 0x20F DUP3 PUSH2 0x1E6 JUMP JUMPDEST SWAP1 POP SWAP2 SWAP1 POP JUMP JUMPDEST PUSH2 0x21F DUP2 PUSH2 0x205 JUMP JUMPDEST DUP2 EQ PUSH2 0x229 JUMPI PUSH0 DUP1 REVERT JUMPDEST POP JUMP JUMPDEST PUSH0 DUP2 MLOAD SWAP1 POP PUSH2 0x23A DUP2 PUSH2 0x216 JUMP JUMPDEST SWAP3 SWAP2 POP POP JUMP JUMPDEST PUSH0 DUP1 PUSH0 PUSH1 0x60 DUP5 DUP7 SUB SLT ISZERO PUSH2 0x257 JUMPI PUSH2 0x256 PUSH2 0x1E2 JUMP JUMPDEST JUMPDEST PUSH0 PUSH2 0x264 DUP7 DUP3 DUP8 ADD PUSH2 0x22C JUMP JUMPDEST SWAP4 POP POP PUSH1 0x20 PUSH2 0x275 DUP7 DUP3 DUP8 ADD PUSH2 0x22C JUMP JUMPDEST SWAP3 POP POP PUSH1 0x40 PUSH2 0x286 DUP7 DUP3 DUP8 ADD PUSH2 0x22C JUMP JUMPDEST SWAP2 POP POP SWAP3 POP SWAP3 POP SWAP3 JUMP JUMPDEST PUSH2 0x2E97 DUP1 PUSH2 0x29D PUSH0 CODECOPY PUSH0 RETURN INVALID PUSH1 0x80 PUSH1 0x40 MSTORE PUSH1 0x4 CALLDATASIZE LT PUSH2 0x113 JUMPI PUSH0 CALLDATALOAD PUSH1 0xE0 SHR DUP1 PUSH4 0x9C833FA7 GT PUSH2 0x9F JUMPI DUP1 PUSH4 0xDAF9C210 GT PUSH2 0x63 JUMPI DUP1 PUSH4 0xDAF9C210 EQ PUSH2 0x345 JUMPI DUP1 PUSH4 0xEBCF9053 EQ PUSH2 0x381 JUMPI DUP1 PUSH4 0xEC6CC0CC EQ PUSH2 0x3A9 JUMPI DUP1 PUSH4 0xF2FDE38B EQ PUSH2 0x3C5 JUMPI DUP1 PUSH4 0xF887EA40 EQ PUSH2 0x3ED JUMPI PUSH2 0x113 JUMP JUMPDEST DUP1 PUSH4 0x9C833FA7 EQ PUSH2 0x275 JUMPI DUP1 PUSH4 0x9DE2827B EQ PUSH2 0x29D JUMPI DUP1 PUSH4 0xBCEC454F EQ PUSH2 0x2B9 JUMPI DUP1 PUSH4 0xCD698E69 EQ PUSH2 0x2E1 JUMPI DUP1 PUSH4 0xD654E9A4 EQ PUSH2 0x309 JUMPI PUSH2 0x113 JUMP JUMPDEST DUP1 PUSH4 0x715018A6 GT PUSH2 0xE6 JUMPI DUP1 PUSH4 0x715018A6 EQ PUSH2 0x1BB JUMPI DUP1 PUSH4 0x7CE3489B EQ PUSH2 0x1D1 JUMPI DUP1 PUSH4 0x7FD6F15C EQ PUSH2 0x1F9 JUMPI DUP1 PUSH4 0x8DA5CB5B EQ PUSH2 0x223 JUMPI DUP1 PUSH4 0x95CCEA67 EQ PUSH2 0x24D JUMPI PUSH2 0x113 JUMP JUMPDEST DUP1 PUSH4 0x3FC8CEF3 EQ PUSH2 0x117 JUMPI DUP1 PUSH4 0x4B023CF8 EQ PUSH2 0x141 JUMPI DUP1 PUSH4 0x65E17C9D EQ PUSH2 0x169 JUMPI DUP1 PUSH4 0x6B792C4B EQ PUSH2 0x193 JUMPI JUMPDEST PUSH0 DUP1 REVERT JUMPDEST CALLVALUE DUP1 ISZERO PUSH2 0x122 JUMPI PUSH0 DUP1 REVERT JUMPDEST POP PUSH2 0x12B PUSH2 0x417 JUMP JUMPDEST PUSH1 0x40 MLOAD PUSH2 0x138 SWAP2 SWAP1 PUSH2 0x1EBB JUMP JUMPDEST PUSH1 0x40 MLOAD DUP1 SWAP2 SUB SWAP1 RETURN JUMPDEST CALLVALUE DUP1 ISZERO PUSH2 0x14C JUMPI PUSH0 DUP1 REVERT JUMPDEST POP PUSH2 0x167 PUSH1 0x4 DUP1 CALLDATASIZE SUB DUP2 ADD SWAP1 PUSH2 0x162 SWAP2 SWAP1 PUSH2 0x1F0F JUMP JUMPDEST PUSH2 0x43C JUMP JUMPDEST STOP JUMPDEST CALLVALUE DUP1 ISZERO PUSH2 0x174 JUMPI PUSH0 DUP1 REVERT JUMPDEST POP PUSH2 0x17D PUSH2 0x4FB JUMP JUMPDEST PUSH1 0x40 MLOAD PUSH2 0x18A SWAP2 SWAP1 PUSH2 0x1EBB JUMP JUMPDEST PUSH1 0x40 MLOAD DUP1 SWAP2 SUB SWAP1 RETURN JUMPDEST CALLVALUE DUP1 ISZERO PUSH2 0x19E JUMPI PUSH0 DUP1 REVERT JUMPDEST POP PUSH2 0x1B9 PUSH1 0x4 DUP1 CALLDATASIZE SUB DUP2 ADD SWAP1 PUSH2 0x1B4 SWAP2 SWAP1 PUSH2 0x1F6D JUMP JUMPDEST PUSH2 0x520 JUMP JUMPDEST STOP JUMPDEST CALLVALUE DUP1 ISZERO PUSH2 0x1C6 JUMPI PUSH0 DUP1 REVERT JUMPDEST POP PUSH2 0x1CF PUSH2 0x5EA JUMP JUMPDEST STOP JUMPDEST CALLVALUE DUP1 ISZERO PUSH2 0x1DC JUMPI PUSH0 DUP1 REVERT JUMPDEST POP PUSH2 0x1F7 PUSH1 0x4 DUP1 CALLDATASIZE SUB DUP2 ADD SWAP1 PUSH2 0x1F2 SWAP2 SWAP1 PUSH2 0x1F6D JUMP JUMPDEST PUSH2 0x671 JUMP JUMPDEST STOP JUMPDEST CALLVALUE DUP1 ISZERO PUSH2 0x204 JUMPI PUSH0 DUP1 REVERT JUMPDEST POP PUSH2 0x20D PUSH2 0x6F7 JUMP JUMPDEST PUSH1 0x40 MLOAD PUSH2 0x21A SWAP2 SWAP1 PUSH2 0x1FA7 JUMP JUMPDEST PUSH1 0x40 MLOAD DUP1 SWAP2 SUB SWAP1 RETURN JUMPDEST CALLVALUE DUP1 ISZERO PUSH2 0x22E JUMPI PUSH0 DUP1 REVERT JUMPDEST POP PUSH2 0x237 PUSH2 0x6FD JUMP JUMPDEST PUSH1 0x40 MLOAD PUSH2 0x244 SWAP2 SWAP1 PUSH2 0x1EBB JUMP JUMPDEST PUSH1 0x40 MLOAD DUP1 SWAP2 SUB SWAP1 RETURN JUMPDEST CALLVALUE DUP1 ISZERO PUSH2 0x258 JUMPI PUSH0 DUP1 REVERT JUMPDEST POP PUSH2 0x273 PUSH1 0x4 DUP1 CALLDATASIZE SUB DUP2 ADD SWAP1 PUSH2 0x26E SWAP2 SWAP1 PUSH2 0x1FC0 JUMP JUMPDEST PUSH2 0x724 JUMP JUMPDEST STOP JUMPDEST CALLVALUE DUP1 ISZERO PUSH2 0x280 JUMPI PUSH0 DUP1 REVERT JUMPDEST POP PUSH2 0x29B PUSH1 0x4 DUP1 CALLDATASIZE SUB DUP2 ADD SWAP1 PUSH2 0x296 SWAP2 SWAP1 PUSH2 0x220E JUMP JUMPDEST PUSH2 0x7CF JUMP JUMPDEST STOP JUMPDEST PUSH2 0x2B7 PUSH1 0x4 DUP1 CALLDATASIZE SUB DUP2 ADD SWAP1 PUSH2 0x2B2 SWAP2 SWAP1 PUSH2 0x2284 JUMP JUMPDEST PUSH2 0x8A6 JUMP JUMPDEST STOP JUMPDEST CALLVALUE DUP1 ISZERO PUSH2 0x2C4 JUMPI PUSH0 DUP1 REVERT JUMPDEST POP PUSH2 0x2DF PUSH1 0x4 DUP1 CALLDATASIZE SUB DUP2 ADD SWAP1 PUSH2 0x2DA SWAP2 SWAP1 PUSH2 0x2304 JUMP JUMPDEST PUSH2 0xC1E JUMP JUMPDEST STOP JUMPDEST CALLVALUE DUP1 ISZERO PUSH2 0x2EC JUMPI PUSH0 DUP1 REVERT JUMPDEST POP PUSH2 0x307 PUSH1 0x4 DUP1 CALLDATASIZE SUB DUP2 ADD SWAP1 PUSH2 0x302 SWAP2 SWAP1 PUSH2 0x2304 JUMP JUMPDEST PUSH2 0xD24 JUMP JUMPDEST STOP JUMPDEST CALLVALUE DUP1 ISZERO PUSH2 0x314 JUMPI PUSH0 DUP1 REVERT JUMPDEST POP PUSH2 0x32F PUSH1 0x4 DUP1 CALLDATASIZE SUB DUP2 ADD SWAP1 PUSH2 0x32A SWAP2 SWAP1 PUSH2 0x234B JUMP JUMPDEST PUSH2 0xEBD JUMP JUMPDEST PUSH1 0x40 MLOAD PUSH2 0x33C SWAP2 SWAP1 PUSH2 0x1FA7 JUMP JUMPDEST PUSH1 0x40 MLOAD DUP1 SWAP2 SUB SWAP1 RETURN JUMPDEST CALLVALUE DUP1 ISZERO PUSH2 0x350 JUMPI PUSH0 DUP1 REVERT JUMPDEST POP PUSH2 0x36B PUSH1 0x4 DUP1 CALLDATASIZE SUB DUP2 ADD SWAP1 PUSH2 0x366 SWAP2 SWAP1 PUSH2 0x1F0F JUMP JUMPDEST PUSH2 0xF90 JUMP JUMPDEST PUSH1 0x40 MLOAD PUSH2 0x378 SWAP2 SWAP1 PUSH2 0x23BF JUMP JUMPDEST PUSH1 0x40 MLOAD DUP1 SWAP2 SUB SWAP1 RETURN JUMPDEST CALLVALUE DUP1 ISZERO PUSH2 0x38C JUMPI PUSH0 DUP1 REVERT JUMPDEST POP PUSH2 0x3A7 PUSH1 0x4 DUP1 CALLDATASIZE SUB DUP2 ADD SWAP1 PUSH2 0x3A2 SWAP2 SWAP1 PUSH2 0x23D8 JUMP JUMPDEST PUSH2 0xFAD JUMP JUMPDEST STOP JUMPDEST PUSH2 0x3C3 PUSH1 0x4 DUP1 CALLDATASIZE SUB DUP2 ADD SWAP1 PUSH2 0x3BE SWAP2 SWAP1 PUSH2 0x2416 JUMP JUMPDEST PUSH2 0x10AD JUMP JUMPDEST STOP JUMPDEST CALLVALUE DUP1 ISZERO PUSH2 0x3D0 JUMPI PUSH0 DUP1 REVERT JUMPDEST POP PUSH2 0x3EB PUSH1 0x4 DUP1 CALLDATASIZE SUB DUP2 ADD SWAP1 PUSH2 0x3E6 SWAP2 SWAP1 PUSH2 0x1F0F JUMP JUMPDEST PUSH2 0x1397 JUMP JUMPDEST STOP JUMPDEST CALLVALUE DUP1 ISZERO PUSH2 0x3F8 JUMPI PUSH0 DUP1 REVERT JUMPDEST POP PUSH2 0x401 PUSH2 0x148D JUMP JUMPDEST PUSH1 0x40 MLOAD PUSH2 0x40E SWAP2 SWAP1 PUSH2 0x1EBB JUMP JUMPDEST PUSH1 0x40 MLOAD DUP1 SWAP2 SUB SWAP1 RETURN JUMPDEST PUSH1 0x4 PUSH0 SWAP1 SLOAD SWAP1 PUSH2 0x100 EXP SWAP1 DIV PUSH20 0xFFFFFFFFFFFFFFFFFFFFFFFFFFFFFFFFFFFFFFFF AND DUP2 JUMP JUMPDEST PUSH2 0x444 PUSH2 0x14B2 JUMP JUMPDEST PUSH20 0xFFFFFFFFFFFFFFFFFFFFFFFFFFFFFFFFFFFFFFFF AND PUSH2 0x462 PUSH2 0x6FD JUMP JUMPDEST PUSH20 0xFFFFFFFFFFFFFFFFFFFFFFFFFFFFFFFFFFFFFFFF AND EQ PUSH2 0x4B8 JUMPI PUSH1 0x40 MLOAD PUSH32 0x8C379A000000000000000000000000000000000000000000000000000000000 DUP2 MSTORE PUSH1 0x4 ADD PUSH2 0x4AF SWAP1 PUSH2 0x24C0 JUMP JUMPDEST PUSH1 0x40 MLOAD DUP1 SWAP2 SUB SWAP1 REVERT JUMPDEST DUP1 PUSH1 0x2 PUSH0 PUSH2 0x100 EXP DUP2 SLOAD DUP2 PUSH20 0xFFFFFFFFFFFFFFFFFFFFFFFFFFFFFFFFFFFFFFFF MUL NOT AND SWAP1 DUP4 PUSH20 0xFFFFFFFFFFFFFFFFFFFFFFFFFFFFFFFFFFFFFFFF AND MUL OR SWAP1 SSTORE POP POP JUMP JUMPDEST PUSH1 0x2 PUSH0 SWAP1 SLOAD SWAP1 PUSH2 0x100 EXP SWAP1 DIV PUSH20 0xFFFFFFFFFFFFFFFFFFFFFFFFFFFFFFFFFFFFFFFF AND DUP2 JUMP JUMPDEST PUSH2 0x528 PUSH2 0x14B2 JUMP JUMPDEST PUSH20 0xFFFFFFFFFFFFFFFFFFFFFFFFFFFFFFFFFFFFFFFF AND PUSH2 0x546 PUSH2 0x6FD JUMP JUMPDEST PUSH20 0xFFFFFFFFFFFFFFFFFFFFFFFFFFFFFFFFFFFFFFFF AND EQ PUSH2 0x59C JUMPI PUSH1 0x40 MLOAD PUSH32 0x8C379A000000000000000000000000000000000000000000000000000000000 DUP2 MSTORE PUSH1 0x4 ADD PUSH2 0x593 SWAP1 PUSH2 0x24C0 JUMP JUMPDEST PUSH1 0x40 MLOAD DUP1 SWAP2 SUB SWAP1 REVERT JUMPDEST PUSH2 0x5A4 PUSH2 0x6FD JUMP JUMPDEST PUSH20 0xFFFFFFFFFFFFFFFFFFFFFFFFFFFFFFFFFFFFFFFF AND PUSH2 0x8FC DUP3 SWAP1 DUP2 ISZERO MUL SWAP1 PUSH1 0x40 MLOAD PUSH0 PUSH1 0x40 MLOAD DUP1 DUP4 SUB DUP2 DUP6 DUP9 DUP9 CALL SWAP4 POP POP POP POP ISZERO DUP1 ISZERO PUSH2 0x5E6 JUMPI RETURNDATASIZE PUSH0 DUP1 RETURNDATACOPY RETURNDATASIZE PUSH0 REVERT JUMPDEST POP POP JUMP JUMPDEST PUSH2 0x5F2 PUSH2 0x14B2 JUMP JUMPDEST PUSH20 0xFFFFFFFFFFFFFFFFFFFFFFFFFFFFFFFFFFFFFFFF AND PUSH2 0x610 PUSH2 0x6FD JUMP JUMPDEST PUSH20 0xFFFFFFFFFFFFFFFFFFFFFFFFFFFFFFFFFFFFFFFF AND EQ PUSH2 0x666 JUMPI PUSH1 0x40 MLOAD PUSH32 0x8C379A000000000000000000000000000000000000000000000000000000000 DUP2 MSTORE PUSH1 0x4 ADD PUSH2 0x65D SWAP1 PUSH2 0x24C0 JUMP JUMPDEST PUSH1 0x40 MLOAD DUP1 SWAP2 SUB SWAP1 REVERT JUMPDEST PUSH2 0x66F PUSH0 PUSH2 0x14B9 JUMP JUMPDEST JUMP JUMPDEST PUSH2 0x679 PUSH2 0x14B2 JUMP JUMPDEST PUSH20 0xFFFFFFFFFFFFFFFFFFFFFFFFFFFFFFFFFFFFFFFF AND PUSH2 0x697 PUSH2 0x6FD JUMP JUMPDEST PUSH20 0xFFFFFFFFFFFFFFFFFFFFFFFFFFFFFFFFFFFFFFFF AND EQ PUSH2 0x6ED JUMPI PUSH1 0x40 MLOAD PUSH32 0x8C379A000000000000000000000000000000000000000000000000000000000 DUP2 MSTORE PUSH1 0x4 ADD PUSH2 0x6E4 SWAP1 PUSH2 0x24C0 JUMP JUMPDEST PUSH1 0x40 MLOAD DUP1 SWAP2 SUB SWAP1 REVERT JUMPDEST DUP1 PUSH1 0x1 DUP2 SWAP1 SSTORE POP POP JUMP JUMPDEST PUSH1 0x1 SLOAD DUP2 JUMP JUMPDEST PUSH0 DUP1 PUSH0 SWAP1 SLOAD SWAP1 PUSH2 0x100 EXP SWAP1 DIV PUSH20 0xFFFFFFFFFFFFFFFFFFFFFFFFFFFFFFFFFFFFFFFF AND SWAP1 POP SWAP1 JUMP JUMPDEST PUSH2 0x72C PUSH2 0x14B2 JUMP JUMPDEST PUSH20 0xFFFFFFFFFFFFFFFFFFFFFFFFFFFFFFFFFFFFFFFF AND PUSH2 0x74A PUSH2 0x6FD JUMP JUMPDEST PUSH20 0xFFFFFFFFFFFFFFFFFFFFFFFFFFFFFFFFFFFFFFFF AND EQ PUSH2 0x7A0 JUMPI PUSH1 0x40 MLOAD PUSH32 0x8C379A000000000000000000000000000000000000000000000000000000000 DUP2 MSTORE PUSH1 0x4 ADD PUSH2 0x797 SWAP1 PUSH2 0x24C0 JUMP JUMPDEST PUSH1 0x40 MLOAD DUP1 SWAP2 SUB SWAP1 REVERT JUMPDEST PUSH2 0x7CB CALLER DUP3 DUP5 PUSH20 0xFFFFFFFFFFFFFFFFFFFFFFFFFFFFFFFFFFFFFFFF AND PUSH2 0x157A SWAP1 SWAP3 SWAP2 SWAP1 PUSH4 0xFFFFFFFF AND JUMP JUMPDEST POP POP JUMP JUMPDEST PUSH2 0x7D7 PUSH2 0x14B2 JUMP JUMPDEST PUSH20 0xFFFFFFFFFFFFFFFFFFFFFFFFFFFFFFFFFFFFFFFF AND PUSH2 0x7F5 PUSH2 0x6FD JUMP JUMPDEST PUSH20 0xFFFFFFFFFFFFFFFFFFFFFFFFFFFFFFFFFFFFFFFF AND EQ PUSH2 0x84B JUMPI PUSH1 0x40 MLOAD PUSH32 0x8C379A000000000000000000000000000000000000000000000000000000000 DUP2 MSTORE PUSH1 0x4 ADD PUSH2 0x842 SWAP1 PUSH2 0x24C0 JUMP JUMPDEST PUSH1 0x40 MLOAD DUP1 SWAP2 SUB SWAP1 REVERT JUMPDEST PUSH0 JUMPDEST DUP3 MLOAD DUP2 LT ISZERO PUSH2 0x8A1 JUMPI PUSH2 0x894 DUP4 DUP3 DUP2 MLOAD DUP2 LT PUSH2 0x86C JUMPI PUSH2 0x86B PUSH2 0x24DE JUMP JUMPDEST JUMPDEST PUSH1 0x20 MUL PUSH1 0x20 ADD ADD MLOAD DUP4 DUP4 DUP2 MLOAD DUP2 LT PUSH2 0x887 JUMPI PUSH2 0x886 PUSH2 0x24DE JUMP JUMPDEST JUMPDEST PUSH1 0x20 MUL PUSH1 0x20 ADD ADD MLOAD PUSH2 0x1600 JUMP JUMPDEST DUP1 DUP1 PUSH1 0x1 ADD SWAP2 POP POP PUSH2 0x84D JUMP JUMPDEST POP POP POP JUMP JUMPDEST PUSH0 PUSH20 0xFFFFFFFFFFFFFFFFFFFFFFFFFFFFFFFFFFFFFFFF AND DUP5 PUSH20 0xFFFFFFFFFFFFFFFFFFFFFFFFFFFFFFFFFFFFFFFF AND SUB PUSH2 0x9E5 JUMPI DUP1 PUSH0 DUP2 MLOAD DUP2 LT PUSH2 0x8EC JUMPI PUSH2 0x8EB PUSH2 0x24DE JUMP JUMPDEST JUMPDEST PUSH1 0x20 MUL PUSH1 0x20 ADD ADD MLOAD PUSH20 0xFFFFFFFFFFFFFFFFFFFFFFFFFFFFFFFFFFFFFFFF AND PUSH1 0x4 PUSH0 SWAP1 SLOAD SWAP1 PUSH2 0x100 EXP SWAP1 DIV PUSH20 0xFFFFFFFFFFFFFFFFFFFFFFFFFFFFFFFFFFFFFFFF AND PUSH20 0xFFFFFFFFFFFFFFFFFFFFFFFFFFFFFFFFFFFFFFFF AND EQ DUP1 ISZERO PUSH2 0x9A1 JUMPI POP DUP1 PUSH1 0x1 DUP3 MLOAD PUSH2 0x959 SWAP2 SWAP1 PUSH2 0x2538 JUMP JUMPDEST DUP2 MLOAD DUP2 LT PUSH2 0x96A JUMPI PUSH2 0x969 PUSH2 0x24DE JUMP JUMPDEST JUMPDEST PUSH1 0x20 MUL PUSH1 0x20 ADD ADD MLOAD PUSH20 0xFFFFFFFFFFFFFFFFFFFFFFFFFFFFFFFFFFFFFFFF AND DUP4 PUSH20 0xFFFFFFFFFFFFFFFFFFFFFFFFFFFFFFFFFFFFFFFF AND EQ JUMPDEST PUSH2 0x9E0 JUMPI PUSH1 0x40 MLOAD PUSH32 0x8C379A000000000000000000000000000000000000000000000000000000000 DUP2 MSTORE PUSH1 0x4 ADD PUSH2 0x9D7 SWAP1 PUSH2 0x25DB JUMP JUMPDEST PUSH1 0x40 MLOAD DUP1 SWAP2 SUB SWAP1 REVERT JUMPDEST PUSH2 0xC0C JUMP JUMPDEST PUSH0 PUSH20 0xFFFFFFFFFFFFFFFFFFFFFFFFFFFFFFFFFFFFFFFF AND DUP4 PUSH20 0xFFFFFFFFFFFFFFFFFFFFFFFFFFFFFFFFFFFFFFFF AND SUB PUSH2 0xB24 JUMPI DUP1 PUSH0 DUP2 MLOAD DUP2 LT PUSH2 0xA2B JUMPI PUSH2 0xA2A PUSH2 0x24DE JUMP JUMPDEST JUMPDEST PUSH1 0x20 MUL PUSH1 0x20 ADD ADD MLOAD PUSH20 0xFFFFFFFFFFFFFFFFFFFFFFFFFFFFFFFFFFFFFFFF AND DUP5 PUSH20 0xFFFFFFFFFFFFFFFFFFFFFFFFFFFFFFFFFFFFFFFF AND EQ DUP1 ISZERO PUSH2 0xAE0 JUMPI POP DUP1 PUSH1 0x1 DUP3 MLOAD PUSH2 0xA77 SWAP2 SWAP1 PUSH2 0x2538 JUMP JUMPDEST DUP2 MLOAD DUP2 LT PUSH2 0xA88 JUMPI PUSH2 0xA87 PUSH2 0x24DE JUMP JUMPDEST JUMPDEST PUSH1 0x20 MUL PUSH1 0x20 ADD ADD MLOAD PUSH20 0xFFFFFFFFFFFFFFFFFFFFFFFFFFFFFFFFFFFFFFFF AND PUSH1 0x4 PUSH0 SWAP1 SLOAD SWAP1 PUSH2 0x100 EXP SWAP1 DIV PUSH20 0xFFFFFFFFFFFFFFFFFFFFFFFFFFFFFFFFFFFFFFFF AND PUSH20 0xFFFFFFFFFFFFFFFFFFFFFFFFFFFFFFFFFFFFFFFF AND EQ JUMPDEST PUSH2 0xB1F JUMPI PUSH1 0x40 MLOAD PUSH32 0x8C379A000000000000000000000000000000000000000000000000000000000 DUP2 MSTORE PUSH1 0x4 ADD PUSH2 0xB16 SWAP1 PUSH2 0x25DB JUMP JUMPDEST PUSH1 0x40 MLOAD DUP1 SWAP2 SUB SWAP1 REVERT JUMPDEST PUSH2 0xC0B JUMP JUMPDEST DUP1 PUSH0 DUP2 MLOAD DUP2 LT PUSH2 0xB37 JUMPI PUSH2 0xB36 PUSH2 0x24DE JUMP JUMPDEST JUMPDEST PUSH1 0x20 MUL PUSH1 0x20 ADD ADD MLOAD PUSH20 0xFFFFFFFFFFFFFFFFFFFFFFFFFFFFFFFFFFFFFFFF AND DUP5 PUSH20 0xFFFFFFFFFFFFFFFFFFFFFFFFFFFFFFFFFFFFFFFF AND EQ DUP1 ISZERO PUSH2 0xBCB JUMPI POP DUP1 PUSH1 0x1 DUP3 MLOAD PUSH2 0xB83 SWAP2 SWAP1 PUSH2 0x2538 JUMP JUMPDEST DUP2 MLOAD DUP2 LT PUSH2 0xB94 JUMPI PUSH2 0xB93 PUSH2 0x24DE JUMP JUMPDEST JUMPDEST PUSH1 0x20 MUL PUSH1 0x20 ADD ADD MLOAD PUSH20 0xFFFFFFFFFFFFFFFFFFFFFFFFFFFFFFFFFFFFFFFF AND DUP4 PUSH20 0xFFFFFFFFFFFFFFFFFFFFFFFFFFFFFFFFFFFFFFFF AND EQ JUMPDEST PUSH2 0xC0A JUMPI PUSH1 0x40 MLOAD PUSH32 0x8C379A000000000000000000000000000000000000000000000000000000000 DUP2 MSTORE PUSH1 0x4 ADD PUSH2 0xC01 SWAP1 PUSH2 0x25DB JUMP JUMPDEST PUSH1 0x40 MLOAD DUP1 SWAP2 SUB SWAP1 REVERT JUMPDEST JUMPDEST JUMPDEST PUSH2 0xC18 DUP5 DUP5 DUP5 DUP5 PUSH2 0x16A1 JUMP JUMPDEST POP POP POP POP JUMP JUMPDEST PUSH2 0xC26 PUSH2 0x14B2 JUMP JUMPDEST PUSH20 0xFFFFFFFFFFFFFFFFFFFFFFFFFFFFFFFFFFFFFFFF AND PUSH2 0xC44 PUSH2 0x6FD JUMP JUMPDEST PUSH20 0xFFFFFFFFFFFFFFFFFFFFFFFFFFFFFFFFFFFFFFFF AND EQ PUSH2 0xC9A JUMPI PUSH1 0x40 MLOAD PUSH32 0x8C379A000000000000000000000000000000000000000000000000000000000 DUP2 MSTORE PUSH1 0x4 ADD PUSH2 0xC91 SWAP1 PUSH2 0x24C0 JUMP JUMPDEST PUSH1 0x40 MLOAD DUP1 SWAP2 SUB SWAP1 REVERT JUMPDEST PUSH0 JUMPDEST DUP2 MLOAD DUP2 LT ISZERO PUSH2 0xD20 JUMPI PUSH0 PUSH1 0x5 PUSH0 DUP5 DUP5 DUP2 MLOAD DUP2 LT PUSH2 0xCBC JUMPI PUSH2 0xCBB PUSH2 0x24DE JUMP JUMPDEST JUMPDEST PUSH1 0x20 MUL PUSH1 0x20 ADD ADD MLOAD PUSH20 0xFFFFFFFFFFFFFFFFFFFFFFFFFFFFFFFFFFFFFFFF AND PUSH20 0xFFFFFFFFFFFFFFFFFFFFFFFFFFFFFFFFFFFFFFFF AND DUP2 MSTORE PUSH1 0x20 ADD SWAP1 DUP2 MSTORE PUSH1 0x20 ADD PUSH0 KECCAK256 PUSH0 PUSH2 0x100 EXP DUP2 SLOAD DUP2 PUSH1 0xFF MUL NOT AND SWAP1 DUP4 ISZERO ISZERO MUL OR SWAP1 SSTORE POP DUP1 DUP1 PUSH1 0x1 ADD SWAP2 POP POP PUSH2 0xC9C JUMP JUMPDEST POP POP JUMP JUMPDEST PUSH2 0xD2C PUSH2 0x14B2 JUMP JUMPDEST PUSH20 0xFFFFFFFFFFFFFFFFFFFFFFFFFFFFFFFFFFFFFFFF AND PUSH2 0xD4A PUSH2 0x6FD JUMP JUMPDEST PUSH20 0xFFFFFFFFFFFFFFFFFFFFFFFFFFFFFFFFFFFFFFFF AND EQ PUSH2 0xDA0 JUMPI PUSH1 0x40 MLOAD PUSH32 0x8C379A000000000000000000000000000000000000000000000000000000000 DUP2 MSTORE PUSH1 0x4 ADD PUSH2 0xD97 SWAP1 PUSH2 0x24C0 JUMP JUMPDEST PUSH1 0x40 MLOAD DUP1 SWAP2 SUB SWAP1 REVERT JUMPDEST PUSH0 JUMPDEST DUP2 MLOAD DUP2 LT ISZERO PUSH2 0xEB9 JUMPI PUSH1 0x1 PUSH1 0x5 PUSH0 DUP5 DUP5 DUP2 MLOAD DUP2 LT PUSH2 0xDC3 JUMPI PUSH2 0xDC2 PUSH2 0x24DE JUMP JUMPDEST JUMPDEST PUSH1 0x20 MUL PUSH1 0x20 ADD ADD MLOAD PUSH20 0xFFFFFFFFFFFFFFFFFFFFFFFFFFFFFFFFFFFFFFFF AND PUSH20 0xFFFFFFFFFFFFFFFFFFFFFFFFFFFFFFFFFFFFFFFF AND DUP2 MSTORE PUSH1 0x20 ADD SWAP1 DUP2 MSTORE PUSH1 0x20 ADD PUSH0 KECCAK256 PUSH0 PUSH2 0x100 EXP DUP2 SLOAD DUP2 PUSH1 0xFF MUL NOT AND SWAP1 DUP4 ISZERO ISZERO MUL OR SWAP1 SSTORE POP PUSH0 PUSH20 0xFFFFFFFFFFFFFFFFFFFFFFFFFFFFFFFFFFFFFFFF AND DUP3 DUP3 DUP2 MLOAD DUP2 LT PUSH2 0xE44 JUMPI PUSH2 0xE43 PUSH2 0x24DE JUMP JUMPDEST JUMPDEST PUSH1 0x20 MUL PUSH1 0x20 ADD ADD MLOAD PUSH20 0xFFFFFFFFFFFFFFFFFFFFFFFFFFFFFFFFFFFFFFFF AND EQ PUSH2 0xEAC JUMPI PUSH2 0xEAB DUP3 DUP3 DUP2 MLOAD DUP2 LT PUSH2 0xE7D JUMPI PUSH2 0xE7C PUSH2 0x24DE JUMP JUMPDEST JUMPDEST PUSH1 0x20 MUL PUSH1 0x20 ADD ADD MLOAD PUSH32 0xFFFFFFFFFFFFFFFFFFFFFFFFFFFFFFFFFFFFFFFFFFFFFFFFFFFFFFFFFFFFFFFF PUSH2 0x1600 JUMP JUMPDEST JUMPDEST DUP1 DUP1 PUSH1 0x1 ADD SWAP2 POP POP PUSH2 0xDA2 JUMP JUMPDEST POP POP JUMP JUMPDEST PUSH0 DUP1 PUSH1 0x3 PUSH0 SWAP1 SLOAD SWAP1 PUSH2 0x100 EXP SWAP1 DIV PUSH20 0xFFFFFFFFFFFFFFFFFFFFFFFFFFFFFFFFFFFFFFFF AND PUSH20 0xFFFFFFFFFFFFFFFFFFFFFFFFFFFFFFFFFFFFFFFF AND PUSH4 0xD06CA61F DUP6 DUP6 PUSH1 0x40 MLOAD DUP4 PUSH4 0xFFFFFFFF AND PUSH1 0xE0 SHL DUP2 MSTORE PUSH1 0x4 ADD PUSH2 0xF1B SWAP3 SWAP2 SWAP1 PUSH2 0x26B0 JUMP JUMPDEST PUSH0 PUSH1 0x40 MLOAD DUP1 DUP4 SUB DUP2 DUP7 GAS STATICCALL ISZERO DUP1 ISZERO PUSH2 0xF35 JUMPI RETURNDATASIZE PUSH0 DUP1 RETURNDATACOPY RETURNDATASIZE PUSH0 REVERT JUMPDEST POP POP POP POP PUSH1 0x40 MLOAD RETURNDATASIZE PUSH0 DUP3 RETURNDATACOPY RETURNDATASIZE PUSH1 0x1F NOT PUSH1 0x1F DUP3 ADD AND DUP3 ADD DUP1 PUSH1 0x40 MSTORE POP DUP2 ADD SWAP1 PUSH2 0xF5D SWAP2 SWAP1 PUSH2 0x2787 JUMP JUMPDEST SWAP1 POP DUP1 PUSH1 0x1 DUP3 MLOAD PUSH2 0xF6E SWAP2 SWAP1 PUSH2 0x2538 JUMP JUMPDEST DUP2 MLOAD DUP2 LT PUSH2 0xF7F JUMPI PUSH2 0xF7E PUSH2 0x24DE JUMP JUMPDEST JUMPDEST PUSH1 0x20 MUL PUSH1 0x20 ADD ADD MLOAD SWAP2 POP POP SWAP3 SWAP2 POP POP JUMP JUMPDEST PUSH1 0x5 PUSH1 0x20 MSTORE DUP1 PUSH0 MSTORE PUSH1 0x40 PUSH0 KECCAK256 PUSH0 SWAP2 POP SLOAD SWAP1 PUSH2 0x100 EXP SWAP1 DIV PUSH1 0xFF AND DUP2 JUMP JUMPDEST PUSH2 0xFB5 PUSH2 0x14B2 JUMP JUMPDEST PUSH20 0xFFFFFFFFFFFFFFFFFFFFFFFFFFFFFFFFFFFFFFFF AND PUSH2 0xFD3 PUSH2 0x6FD JUMP JUMPDEST PUSH20 0xFFFFFFFFFFFFFFFFFFFFFFFFFFFFFFFFFFFFFFFF AND EQ PUSH2 0x1029 JUMPI PUSH1 0x40 MLOAD PUSH32 0x8C379A000000000000000000000000000000000000000000000000000000000 DUP2 MSTORE PUSH1 0x4 ADD PUSH2 0x1020 SWAP1 PUSH2 0x24C0 JUMP JUMPDEST PUSH1 0x40 MLOAD DUP1 SWAP2 SUB SWAP1 REVERT JUMPDEST DUP2 PUSH1 0x3 PUSH0 PUSH2 0x100 EXP DUP2 SLOAD DUP2 PUSH20 0xFFFFFFFFFFFFFFFFFFFFFFFFFFFFFFFFFFFFFFFF MUL NOT AND SWAP1 DUP4 PUSH20 0xFFFFFFFFFFFFFFFFFFFFFFFFFFFFFFFFFFFFFFFF AND MUL OR SWAP1 SSTORE POP DUP1 PUSH1 0x4 PUSH0 PUSH2 0x100 EXP DUP2 SLOAD DUP2 PUSH20 0xFFFFFFFFFFFFFFFFFFFFFFFFFFFFFFFFFFFFFFFF MUL NOT AND SWAP1 DUP4 PUSH20 0xFFFFFFFFFFFFFFFFFFFFFFFFFFFFFFFFFFFFFFFF AND MUL OR SWAP1 SSTORE POP POP POP JUMP JUMPDEST PUSH0 PUSH1 0x2 PUSH8 0xFFFFFFFFFFFFFFFF DUP2 GT ISZERO PUSH2 0x10C9 JUMPI PUSH2 0x10C8 PUSH2 0x2012 JUMP JUMPDEST JUMPDEST PUSH1 0x40 MLOAD SWAP1 DUP1 DUP3 MSTORE DUP1 PUSH1 0x20 MUL PUSH1 0x20 ADD DUP3 ADD PUSH1 0x40 MSTORE DUP1 ISZERO PUSH2 0x10F7 JUMPI DUP2 PUSH1 0x20 ADD PUSH1 0x20 DUP3 MUL DUP1 CALLDATASIZE DUP4 CALLDATACOPY DUP1 DUP3 ADD SWAP2 POP POP SWAP1 POP JUMPDEST POP SWAP1 POP PUSH0 PUSH20 0xFFFFFFFFFFFFFFFFFFFFFFFFFFFFFFFFFFFFFFFF AND DUP5 PUSH20 0xFFFFFFFFFFFFFFFFFFFFFFFFFFFFFFFFFFFFFFFF AND SUB PUSH2 0x11F0 JUMPI PUSH1 0x4 PUSH0 SWAP1 SLOAD SWAP1 PUSH2 0x100 EXP SWAP1 DIV PUSH20 0xFFFFFFFFFFFFFFFFFFFFFFFFFFFFFFFFFFFFFFFF AND DUP2 PUSH0 DUP2 MLOAD DUP2 LT PUSH2 0x1162 JUMPI PUSH2 0x1161 PUSH2 0x24DE JUMP JUMPDEST JUMPDEST PUSH1 0x20 MUL PUSH1 0x20 ADD ADD SWAP1 PUSH20 0xFFFFFFFFFFFFFFFFFFFFFFFFFFFFFFFFFFFFFFFF AND SWAP1 DUP2 PUSH20 0xFFFFFFFFFFFFFFFFFFFFFFFFFFFFFFFFFFFFFFFF AND DUP2 MSTORE POP POP DUP3 DUP2 PUSH1 0x1 DUP2 MLOAD DUP2 LT PUSH2 0x11B1 JUMPI PUSH2 0x11B0 PUSH2 0x24DE JUMP JUMPDEST JUMPDEST PUSH1 0x20 MUL PUSH1 0x20 ADD ADD SWAP1 PUSH20 0xFFFFFFFFFFFFFFFFFFFFFFFFFFFFFFFFFFFFFFFF AND SWAP1 DUP2 PUSH20 0xFFFFFFFFFFFFFFFFFFFFFFFFFFFFFFFFFFFFFFFF AND DUP2 MSTORE POP POP PUSH2 0x1385 JUMP JUMPDEST PUSH0 PUSH20 0xFFFFFFFFFFFFFFFFFFFFFFFFFFFFFFFFFFFFFFFF AND DUP4 PUSH20 0xFFFFFFFFFFFFFFFFFFFFFFFFFFFFFFFFFFFFFFFF AND SUB PUSH2 0x12E6 JUMPI DUP4 DUP2 PUSH0 DUP2 MLOAD DUP2 LT PUSH2 0x1237 JUMPI PUSH2 0x1236 PUSH2 0x24DE JUMP JUMPDEST JUMPDEST PUSH1 0x20 MUL PUSH1 0x20 ADD ADD SWAP1 PUSH20 0xFFFFFFFFFFFFFFFFFFFFFFFFFFFFFFFFFFFFFFFF AND SWAP1 DUP2 PUSH20 0xFFFFFFFFFFFFFFFFFFFFFFFFFFFFFFFFFFFFFFFF AND DUP2 MSTORE POP POP PUSH1 0x4 PUSH0 SWAP1 SLOAD SWAP1 PUSH2 0x100 EXP SWAP1 DIV PUSH20 0xFFFFFFFFFFFFFFFFFFFFFFFFFFFFFFFFFFFFFFFF AND DUP2 PUSH1 0x1 DUP2 MLOAD DUP2 LT PUSH2 0x12A7 JUMPI PUSH2 0x12A6 PUSH2 0x24DE JUMP JUMPDEST JUMPDEST PUSH1 0x20 MUL PUSH1 0x20 ADD ADD SWAP1 PUSH20 0xFFFFFFFFFFFFFFFFFFFFFFFFFFFFFFFFFFFFFFFF AND SWAP1 DUP2 PUSH20 0xFFFFFFFFFFFFFFFFFFFFFFFFFFFFFFFFFFFFFFFF AND DUP2 MSTORE POP POP PUSH2 0x1384 JUMP JUMPDEST DUP4 DUP2 PUSH0 DUP2 MLOAD DUP2 LT PUSH2 0x12FA JUMPI PUSH2 0x12F9 PUSH2 0x24DE JUMP JUMPDEST JUMPDEST PUSH1 0x20 MUL PUSH1 0x20 ADD ADD SWAP1 PUSH20 0xFFFFFFFFFFFFFFFFFFFFFFFFFFFFFFFFFFFFFFFF AND SWAP1 DUP2 PUSH20 0xFFFFFFFFFFFFFFFFFFFFFFFFFFFFFFFFFFFFFFFF AND DUP2 MSTORE POP POP DUP3 DUP2 PUSH1 0x1 DUP2 MLOAD DUP2 LT PUSH2 0x1349 JUMPI PUSH2 0x1348 PUSH2 0x24DE JUMP JUMPDEST JUMPDEST PUSH1 0x20 MUL PUSH1 0x20 ADD ADD SWAP1 PUSH20 0xFFFFFFFFFFFFFFFFFFFFFFFFFFFFFFFFFFFFFFFF AND SWAP1 DUP2 PUSH20 0xFFFFFFFFFFFFFFFFFFFFFFFFFFFFFFFFFFFFFFFF AND DUP2 MSTORE POP POP JUMPDEST JUMPDEST PUSH2 0x1391 DUP5 DUP5 DUP5 DUP5 PUSH2 0x16A1 JUMP JUMPDEST POP POP POP POP JUMP JUMPDEST PUSH2 0x139F PUSH2 0x14B2 JUMP JUMPDEST PUSH20 0xFFFFFFFFFFFFFFFFFFFFFFFFFFFFFFFFFFFFFFFF AND PUSH2 0x13BD PUSH2 0x6FD JUMP JUMPDEST PUSH20 0xFFFFFFFFFFFFFFFFFFFFFFFFFFFFFFFFFFFFFFFF AND EQ PUSH2 0x1413 JUMPI PUSH1 0x40 MLOAD PUSH32 0x8C379A000000000000000000000000000000000000000000000000000000000 DUP2 MSTORE PUSH1 0x4 ADD PUSH2 0x140A SWAP1 PUSH2 0x24C0 JUMP JUMPDEST PUSH1 0x40 MLOAD DUP1 SWAP2 SUB SWAP1 REVERT JUMPDEST PUSH0 PUSH20 0xFFFFFFFFFFFFFFFFFFFFFFFFFFFFFFFFFFFFFFFF AND DUP2 PUSH20 0xFFFFFFFFFFFFFFFFFFFFFFFFFFFFFFFFFFFFFFFF AND SUB PUSH2 0x1481 JUMPI PUSH1 0x40 MLOAD PUSH32 0x8C379A000000000000000000000000000000000000000000000000000000000 DUP2 MSTORE PUSH1 0x4 ADD PUSH2 0x1478 SWAP1 PUSH2 0x283E JUMP JUMPDEST PUSH1 0x40 MLOAD DUP1 SWAP2 SUB SWAP1 REVERT JUMPDEST PUSH2 0x148A DUP2 PUSH2 0x14B9 JUMP JUMPDEST POP JUMP JUMPDEST PUSH1 0x3 PUSH0 SWAP1 SLOAD SWAP1 PUSH2 0x100 EXP SWAP1 DIV PUSH20 0xFFFFFFFFFFFFFFFFFFFFFFFFFFFFFFFFFFFFFFFF AND DUP2 JUMP JUMPDEST PUSH0 CALLER SWAP1 POP SWAP1 JUMP JUMPDEST PUSH0 DUP1 PUSH0 SWAP1 SLOAD SWAP1 PUSH2 0x100 EXP SWAP1 DIV PUSH20 0xFFFFFFFFFFFFFFFFFFFFFFFFFFFFFFFFFFFFFFFF AND SWAP1 POP DUP2 PUSH0 DUP1 PUSH2 0x100 EXP DUP2 SLOAD DUP2 PUSH20 0xFFFFFFFFFFFFFFFFFFFFFFFFFFFFFFFFFFFFFFFF MUL NOT AND SWAP1 DUP4 PUSH20 0xFFFFFFFFFFFFFFFFFFFFFFFFFFFFFFFFFFFFFFFF AND MUL OR SWAP1 SSTORE POP DUP2 PUSH20 0xFFFFFFFFFFFFFFFFFFFFFFFFFFFFFFFFFFFFFFFF AND DUP2 PUSH20 0xFFFFFFFFFFFFFFFFFFFFFFFFFFFFFFFFFFFFFFFF AND PUSH32 0x8BE0079C531659141344CD1FD0A4F28419497F9722A3DAAFE3B4186F6B6457E0 PUSH1 0x40 MLOAD PUSH1 0x40 MLOAD DUP1 SWAP2 SUB SWAP1 LOG3 POP POP JUMP JUMPDEST PUSH2 0x15FB DUP4 PUSH4 0xA9059CBB PUSH1 0xE0 SHL DUP5 DUP5 PUSH1 0x40 MLOAD PUSH1 0x24 ADD PUSH2 0x1599 SWAP3 SWAP2 SWAP1 PUSH2 0x285C JUMP JUMPDEST PUSH1 0x40 MLOAD PUSH1 0x20 DUP2 DUP4 SUB SUB DUP2 MSTORE SWAP1 PUSH1 0x40 MSTORE SWAP1 PUSH28 0xFFFFFFFFFFFFFFFFFFFFFFFFFFFFFFFFFFFFFFFFFFFFFFFFFFFFFFFF NOT AND PUSH1 0x20 DUP3 ADD DUP1 MLOAD PUSH28 0xFFFFFFFFFFFFFFFFFFFFFFFFFFFFFFFFFFFFFFFFFFFFFFFFFFFFFFFF DUP4 DUP2 DUP4 AND OR DUP4 MSTORE POP POP POP POP PUSH2 0x1981 JUMP JUMPDEST POP POP POP JUMP JUMPDEST DUP2 PUSH20 0xFFFFFFFFFFFFFFFFFFFFFFFFFFFFFFFFFFFFFFFF AND PUSH4 0x95EA7B3 PUSH1 0x3 PUSH0 SWAP1 SLOAD SWAP1 PUSH2 0x100 EXP SWAP1 DIV PUSH20 0xFFFFFFFFFFFFFFFFFFFFFFFFFFFFFFFFFFFFFFFF AND DUP4 PUSH1 0x40 MLOAD DUP4 PUSH4 0xFFFFFFFF AND PUSH1 0xE0 SHL DUP2 MSTORE PUSH1 0x4 ADD PUSH2 0x165C SWAP3 SWAP2 SWAP1 PUSH2 0x285C JUMP JUMPDEST PUSH1 0x20 PUSH1 0x40 MLOAD DUP1 DUP4 SUB DUP2 PUSH0 DUP8 GAS CALL ISZERO DUP1 ISZERO PUSH2 0x1678 JUMPI RETURNDATASIZE PUSH0 DUP1 RETURNDATACOPY RETURNDATASIZE PUSH0 REVERT JUMPDEST POP POP POP POP PUSH1 0x40 MLOAD RETURNDATASIZE PUSH1 0x1F NOT PUSH1 0x1F DUP3 ADD AND DUP3 ADD DUP1 PUSH1 0x40 MSTORE POP DUP2 ADD SWAP1 PUSH2 0x169C SWAP2 SWAP1 PUSH2 0x28AD JUMP JUMPDEST POP POP POP JUMP JUMPDEST PUSH0 DUP3 GT PUSH2 0x16E3 JUMPI PUSH1 0x40 MLOAD PUSH32 0x8C379A000000000000000000000000000000000000000000000000000000000 DUP2 MSTORE PUSH1 0x4 ADD PUSH2 0x16DA SWAP1 PUSH2 0x2948 JUMP JUMPDEST PUSH1 0x40 MLOAD DUP1 SWAP2 SUB SWAP1 REVERT JUMPDEST PUSH1 0x5 PUSH0 DUP6 PUSH20 0xFFFFFFFFFFFFFFFFFFFFFFFFFFFFFFFFFFFFFFFF AND PUSH20 0xFFFFFFFFFFFFFFFFFFFFFFFFFFFFFFFFFFFFFFFF AND DUP2 MSTORE PUSH1 0x20 ADD SWAP1 DUP2 MSTORE PUSH1 0x20 ADD PUSH0 KECCAK256 PUSH0 SWAP1 SLOAD SWAP1 PUSH2 0x100 EXP SWAP1 DIV PUSH1 0xFF AND PUSH2 0x176C JUMPI PUSH1 0x40 MLOAD PUSH32 0x8C379A000000000000000000000000000000000000000000000000000000000 DUP2 MSTORE PUSH1 0x4 ADD PUSH2 0x1763 SWAP1 PUSH2 0x29D6 JUMP JUMPDEST PUSH1 0x40 MLOAD DUP1 SWAP2 SUB SWAP1 REVERT JUMPDEST PUSH0 PUSH20 0xFFFFFFFFFFFFFFFFFFFFFFFFFFFFFFFFFFFFFFFF AND DUP5 PUSH20 0xFFFFFFFFFFFFFFFFFFFFFFFFFFFFFFFFFFFFFFFF AND SUB PUSH2 0x1885 JUMPI CALLVALUE DUP3 LT ISZERO PUSH2 0x17E2 JUMPI PUSH1 0x40 MLOAD PUSH32 0x8C379A000000000000000000000000000000000000000000000000000000000 DUP2 MSTORE PUSH1 0x4 ADD PUSH2 0x17D9 SWAP1 PUSH2 0x2A3E JUMP JUMPDEST PUSH1 0x40 MLOAD DUP1 SWAP2 SUB SWAP1 REVERT JUMPDEST PUSH0 PUSH2 0x2710 PUSH1 0x1 SLOAD DUP5 PUSH2 0x17F4 SWAP2 SWAP1 PUSH2 0x2A5C JUMP JUMPDEST PUSH2 0x17FE SWAP2 SWAP1 PUSH2 0x2ACA JUMP JUMPDEST SWAP1 POP PUSH1 0x2 PUSH0 SWAP1 SLOAD SWAP1 PUSH2 0x100 EXP SWAP1 DIV PUSH20 0xFFFFFFFFFFFFFFFFFFFFFFFFFFFFFFFFFFFFFFFF AND PUSH20 0xFFFFFFFFFFFFFFFFFFFFFFFFFFFFFFFFFFFFFFFF AND PUSH2 0x8FC DUP3 SWAP1 DUP2 ISZERO MUL SWAP1 PUSH1 0x40 MLOAD PUSH0 PUSH1 0x40 MLOAD DUP1 DUP4 SUB DUP2 DUP6 DUP9 DUP9 CALL SWAP4 POP POP POP POP ISZERO DUP1 ISZERO PUSH2 0x1864 JUMPI RETURNDATASIZE PUSH0 DUP1 RETURNDATACOPY RETURNDATASIZE PUSH0 REVERT JUMPDEST POP PUSH0 DUP2 DUP5 PUSH2 0x1872 SWAP2 SWAP1 PUSH2 0x2538 JUMP JUMPDEST SWAP1 POP PUSH2 0x187E DUP2 DUP5 PUSH2 0x1A46 JUMP JUMPDEST POP POP PUSH2 0x197B JUMP JUMPDEST PUSH2 0x18B2 CALLER ADDRESS DUP5 DUP8 PUSH20 0xFFFFFFFFFFFFFFFFFFFFFFFFFFFFFFFFFFFFFFFF AND PUSH2 0x1AF0 SWAP1 SWAP4 SWAP3 SWAP2 SWAP1 PUSH4 0xFFFFFFFF AND JUMP JUMPDEST PUSH0 PUSH2 0x2710 PUSH1 0x1 SLOAD DUP5 PUSH2 0x18C4 SWAP2 SWAP1 PUSH2 0x2A5C JUMP JUMPDEST PUSH2 0x18CE SWAP2 SWAP1 PUSH2 0x2ACA JUMP JUMPDEST SWAP1 POP PUSH2 0x191C PUSH1 0x2 PUSH0 SWAP1 SLOAD SWAP1 PUSH2 0x100 EXP SWAP1 DIV PUSH20 0xFFFFFFFFFFFFFFFFFFFFFFFFFFFFFFFFFFFFFFFF AND DUP3 DUP8 PUSH20 0xFFFFFFFFFFFFFFFFFFFFFFFFFFFFFFFFFFFFFFFF AND PUSH2 0x157A SWAP1 SWAP3 SWAP2 SWAP1 PUSH4 0xFFFFFFFF AND JUMP JUMPDEST PUSH0 DUP2 DUP5 PUSH2 0x1929 SWAP2 SWAP1 PUSH2 0x2538 JUMP JUMPDEST SWAP1 POP PUSH0 PUSH20 0xFFFFFFFFFFFFFFFFFFFFFFFFFFFFFFFFFFFFFFFF AND DUP6 PUSH20 0xFFFFFFFFFFFFFFFFFFFFFFFFFFFFFFFFFFFFFFFF AND SUB PUSH2 0x196D JUMPI PUSH2 0x1968 DUP2 DUP5 PUSH2 0x1B79 JUMP JUMPDEST PUSH2 0x1978 JUMP JUMPDEST PUSH2 0x1977 DUP2 DUP5 PUSH2 0x1C23 JUMP JUMPDEST JUMPDEST POP POP JUMPDEST POP POP POP POP JUMP JUMPDEST PUSH0 PUSH2 0x19E2 DUP3 PUSH1 0x40 MLOAD DUP1 PUSH1 0x40 ADD PUSH1 0x40 MSTORE DUP1 PUSH1 0x20 DUP2 MSTORE PUSH1 0x20 ADD PUSH32 0x5361666545524332303A206C6F772D6C6576656C2063616C6C206661696C6564 DUP2 MSTORE POP DUP6 PUSH20 0xFFFFFFFFFFFFFFFFFFFFFFFFFFFFFFFFFFFFFFFF AND PUSH2 0x1CCD SWAP1 SWAP3 SWAP2 SWAP1 PUSH4 0xFFFFFFFF AND JUMP JUMPDEST SWAP1 POP PUSH0 DUP2 MLOAD GT ISZERO PUSH2 0x1A41 JUMPI DUP1 DUP1 PUSH1 0x20 ADD SWAP1 MLOAD DUP2 ADD SWAP1 PUSH2 0x1A01 SWAP2 SWAP1 PUSH2 0x28AD JUMP JUMPDEST PUSH2 0x1A40 JUMPI PUSH1 0x40 MLOAD PUSH32 0x8C379A000000000000000000000000000000000000000000000000000000000 DUP2 MSTORE PUSH1 0x4 ADD PUSH2 0x1A37 SWAP1 PUSH2 0x2B6A JUMP JUMPDEST PUSH1 0x40 MLOAD DUP1 SWAP2 SUB SWAP1 REVERT JUMPDEST JUMPDEST POP POP POP JUMP JUMPDEST PUSH1 0x3 PUSH0 SWAP1 SLOAD SWAP1 PUSH2 0x100 EXP SWAP1 DIV PUSH20 0xFFFFFFFFFFFFFFFFFFFFFFFFFFFFFFFFFFFFFFFF AND PUSH20 0xFFFFFFFFFFFFFFFFFFFFFFFFFFFFFFFFFFFFFFFF AND PUSH4 0x7FF36AB5 DUP4 PUSH0 DUP5 CALLER TIMESTAMP PUSH1 0x40 MLOAD DUP7 PUSH4 0xFFFFFFFF AND PUSH1 0xE0 SHL DUP2 MSTORE PUSH1 0x4 ADD PUSH2 0x1AA7 SWAP5 SWAP4 SWAP3 SWAP2 SWAP1 PUSH2 0x2BCA JUMP JUMPDEST PUSH0 PUSH1 0x40 MLOAD DUP1 DUP4 SUB DUP2 DUP6 DUP9 GAS CALL ISZERO DUP1 ISZERO PUSH2 0x1AC2 JUMPI RETURNDATASIZE PUSH0 DUP1 RETURNDATACOPY RETURNDATASIZE PUSH0 REVERT JUMPDEST POP POP POP POP POP PUSH1 0x40 MLOAD RETURNDATASIZE PUSH0 DUP3 RETURNDATACOPY RETURNDATASIZE PUSH1 0x1F NOT PUSH1 0x1F DUP3 ADD AND DUP3 ADD DUP1 PUSH1 0x40 MSTORE POP DUP2 ADD SWAP1 PUSH2 0x1AEB SWAP2 SWAP1 PUSH2 0x2787 JUMP JUMPDEST POP POP POP JUMP JUMPDEST PUSH2 0x1B73 DUP5 PUSH4 0x23B872DD PUSH1 0xE0 SHL DUP6 DUP6 DUP6 PUSH1 0x40 MLOAD PUSH1 0x24 ADD PUSH2 0x1B11 SWAP4 SWAP3 SWAP2 SWAP1 PUSH2 0x2C14 JUMP JUMPDEST PUSH1 0x40 MLOAD PUSH1 0x20 DUP2 DUP4 SUB SUB DUP2 MSTORE SWAP1 PUSH1 0x40 MSTORE SWAP1 PUSH28 0xFFFFFFFFFFFFFFFFFFFFFFFFFFFFFFFFFFFFFFFFFFFFFFFFFFFFFFFF NOT AND PUSH1 0x20 DUP3 ADD DUP1 MLOAD PUSH28 0xFFFFFFFFFFFFFFFFFFFFFFFFFFFFFFFFFFFFFFFFFFFFFFFFFFFFFFFF DUP4 DUP2 DUP4 AND OR DUP4 MSTORE POP POP POP POP PUSH2 0x1981 JUMP JUMPDEST POP POP POP POP JUMP JUMPDEST PUSH1 0x3 PUSH0 SWAP1 SLOAD SWAP1 PUSH2 0x100 EXP SWAP1 DIV PUSH20 0xFFFFFFFFFFFFFFFFFFFFFFFFFFFFFFFFFFFFFFFF AND PUSH20 0xFFFFFFFFFFFFFFFFFFFFFFFFFFFFFFFFFFFFFFFF AND PUSH4 0x18CBAFE5 DUP4 PUSH0 DUP5 CALLER TIMESTAMP PUSH1 0x40 MLOAD DUP7 PUSH4 0xFFFFFFFF AND PUSH1 0xE0 SHL DUP2 MSTORE PUSH1 0x4 ADD PUSH2 0x1BDB SWAP6 SWAP5 SWAP4 SWAP3 SWAP2 SWAP1 PUSH2 0x2C49 JUMP JUMPDEST PUSH0 PUSH1 0x40 MLOAD DUP1 DUP4 SUB DUP2 PUSH0 DUP8 GAS CALL ISZERO DUP1 ISZERO PUSH2 0x1BF6 JUMPI RETURNDATASIZE PUSH0 DUP1 RETURNDATACOPY RETURNDATASIZE PUSH0 REVERT JUMPDEST POP POP POP POP PUSH1 0x40 MLOAD RETURNDATASIZE PUSH0 DUP3 RETURNDATACOPY RETURNDATASIZE PUSH1 0x1F NOT PUSH1 0x1F DUP3 ADD AND DUP3 ADD DUP1 PUSH1 0x40 MSTORE POP DUP2 ADD SWAP1 PUSH2 0x1C1E SWAP2 SWAP1 PUSH2 0x2787 JUMP JUMPDEST POP POP POP JUMP JUMPDEST PUSH1 0x3 PUSH0 SWAP1 SLOAD SWAP1 PUSH2 0x100 EXP SWAP1 DIV PUSH20 0xFFFFFFFFFFFFFFFFFFFFFFFFFFFFFFFFFFFFFFFF AND PUSH20 0xFFFFFFFFFFFFFFFFFFFFFFFFFFFFFFFFFFFFFFFF AND PUSH4 0x38ED1739 DUP4 PUSH0 DUP5 CALLER TIMESTAMP PUSH1 0x40 MLOAD DUP7 PUSH4 0xFFFFFFFF AND PUSH1 0xE0 SHL DUP2 MSTORE PUSH1 0x4 ADD PUSH2 0x1C85 SWAP6 SWAP5 SWAP4 SWAP3 SWAP2 SWAP1 PUSH2 0x2C49 JUMP JUMPDEST PUSH0 PUSH1 0x40 MLOAD DUP1 DUP4 SUB DUP2 PUSH0 DUP8 GAS CALL ISZERO DUP1 ISZERO PUSH2 0x1CA0 JUMPI RETURNDATASIZE PUSH0 DUP1 RETURNDATACOPY RETURNDATASIZE PUSH0 REVERT JUMPDEST POP POP POP POP PUSH1 0x40 MLOAD RETURNDATASIZE PUSH0 DUP3 RETURNDATACOPY RETURNDATASIZE PUSH1 0x1F NOT PUSH1 0x1F DUP3 ADD AND DUP3 ADD DUP1 PUSH1 0x40 MSTORE POP DUP2 ADD SWAP1 PUSH2 0x1CC8 SWAP2 SWAP1 PUSH2 0x2787 JUMP JUMPDEST POP POP POP JUMP JUMPDEST PUSH1 0x60 PUSH2 0x1CDB DUP5 DUP5 PUSH0 DUP6 PUSH2 0x1CE4 JUMP JUMPDEST SWAP1 POP SWAP4 SWAP3 POP POP POP JUMP JUMPDEST PUSH1 0x60 DUP3 SELFBALANCE LT ISZERO PUSH2 0x1D29 JUMPI PUSH1 0x40 MLOAD PUSH32 0x8C379A000000000000000000000000000000000000000000000000000000000 DUP2 MSTORE PUSH1 0x4 ADD PUSH2 0x1D20 SWAP1 PUSH2 0x2D11 JUMP JUMPDEST PUSH1 0x40 MLOAD DUP1 SWAP2 SUB SWAP1 REVERT JUMPDEST PUSH2 0x1D32 DUP6 PUSH2 0x1DF4 JUMP JUMPDEST PUSH2 0x1D71 JUMPI PUSH1 0x40 MLOAD PUSH32 0x8C379A000000000000000000000000000000000000000000000000000000000 DUP2 MSTORE PUSH1 0x4 ADD PUSH2 0x1D68 SWAP1 PUSH2 0x2D79 JUMP JUMPDEST PUSH1 0x40 MLOAD DUP1 SWAP2 SUB SWAP1 REVERT JUMPDEST PUSH0 DUP1 DUP7 PUSH20 0xFFFFFFFFFFFFFFFFFFFFFFFFFFFFFFFFFFFFFFFF AND DUP6 DUP8 PUSH1 0x40 MLOAD PUSH2 0x1D99 SWAP2 SWAP1 PUSH2 0x2DE9 JUMP JUMPDEST PUSH0 PUSH1 0x40 MLOAD DUP1 DUP4 SUB DUP2 DUP6 DUP8 GAS CALL SWAP3 POP POP POP RETURNDATASIZE DUP1 PUSH0 DUP2 EQ PUSH2 0x1DD3 JUMPI PUSH1 0x40 MLOAD SWAP2 POP PUSH1 0x1F NOT PUSH1 0x3F RETURNDATASIZE ADD AND DUP3 ADD PUSH1 0x40 MSTORE RETURNDATASIZE DUP3 MSTORE RETURNDATASIZE PUSH0 PUSH1 0x20 DUP5 ADD RETURNDATACOPY PUSH2 0x1DD8 JUMP JUMPDEST PUSH1 0x60 SWAP2 POP JUMPDEST POP SWAP2 POP SWAP2 POP PUSH2 0x1DE8 DUP3 DUP3 DUP7 PUSH2 0x1E16 JUMP JUMPDEST SWAP3 POP POP POP SWAP5 SWAP4 POP POP POP POP JUMP JUMPDEST PUSH0 DUP1 DUP3 PUSH20 0xFFFFFFFFFFFFFFFFFFFFFFFFFFFFFFFFFFFFFFFF AND EXTCODESIZE GT SWAP1 POP SWAP2 SWAP1 POP JUMP JUMPDEST PUSH1 0x60 DUP4 ISZERO PUSH2 0x1E26 JUMPI DUP3 SWAP1 POP PUSH2 0x1E75 JUMP JUMPDEST PUSH0 DUP4 MLOAD GT ISZERO PUSH2 0x1E38 JUMPI DUP3 MLOAD DUP1 DUP5 PUSH1 0x20 ADD REVERT JUMPDEST DUP2 PUSH1 0x40 MLOAD PUSH32 0x8C379A000000000000000000000000000000000000000000000000000000000 DUP2 MSTORE PUSH1 0x4 ADD PUSH2 0x1E6C SWAP2 SWAP1 PUSH2 0x2E41 JUMP JUMPDEST PUSH1 0x40 MLOAD DUP1 SWAP2 SUB SWAP1 REVERT JUMPDEST SWAP4 SWAP3 POP POP POP JUMP JUMPDEST PUSH0 PUSH20 0xFFFFFFFFFFFFFFFFFFFFFFFFFFFFFFFFFFFFFFFF DUP3 AND SWAP1 POP SWAP2 SWAP1 POP JUMP JUMPDEST PUSH0 PUSH2 0x1EA5 DUP3 PUSH2 0x1E7C JUMP JUMPDEST SWAP1 POP SWAP2 SWAP1 POP JUMP JUMPDEST PUSH2 0x1EB5 DUP2 PUSH2 0x1E9B JUMP JUMPDEST DUP3 MSTORE POP POP JUMP JUMPDEST PUSH0 PUSH1 0x20 DUP3 ADD SWAP1 POP PUSH2 0x1ECE PUSH0 DUP4 ADD DUP5 PUSH2 0x1EAC JUMP JUMPDEST SWAP3 SWAP2 POP POP JUMP JUMPDEST PUSH0 PUSH1 0x40 MLOAD SWAP1 POP SWAP1 JUMP JUMPDEST PUSH0 DUP1 REVERT JUMPDEST PUSH0 DUP1 REVERT JUMPDEST PUSH2 0x1EEE DUP2 PUSH2 0x1E9B JUMP JUMPDEST DUP2 EQ PUSH2 0x1EF8 JUMPI PUSH0 DUP1 REVERT JUMPDEST POP JUMP JUMPDEST PUSH0 DUP2 CALLDATALOAD SWAP1 POP PUSH2 0x1F09 DUP2 PUSH2 0x1EE5 JUMP JUMPDEST SWAP3 SWAP2 POP POP JUMP JUMPDEST PUSH0 PUSH1 0x20 DUP3 DUP5 SUB SLT ISZERO PUSH2 0x1F24 JUMPI PUSH2 0x1F23 PUSH2 0x1EDD JUMP JUMPDEST JUMPDEST PUSH0 PUSH2 0x1F31 DUP5 DUP3 DUP6 ADD PUSH2 0x1EFB JUMP JUMPDEST SWAP2 POP POP SWAP3 SWAP2 POP POP JUMP JUMPDEST PUSH0 DUP2 SWAP1 POP SWAP2 SWAP1 POP JUMP JUMPDEST PUSH2 0x1F4C DUP2 PUSH2 0x1F3A JUMP JUMPDEST DUP2 EQ PUSH2 0x1F56 JUMPI PUSH0 DUP1 REVERT JUMPDEST POP JUMP JUMPDEST PUSH0 DUP2 CALLDATALOAD SWAP1 POP PUSH2 0x1F67 DUP2 PUSH2 0x1F43 JUMP JUMPDEST SWAP3 SWAP2 POP POP JUMP JUMPDEST PUSH0 PUSH1 0x20 DUP3 DUP5 SUB SLT ISZERO PUSH2 0x1F82 JUMPI PUSH2 0x1F81 PUSH2 0x1EDD JUMP JUMPDEST JUMPDEST PUSH0 PUSH2 0x1F8F DUP5 DUP3 DUP6 ADD PUSH2 0x1F59 JUMP JUMPDEST SWAP2 POP POP SWAP3 SWAP2 POP POP JUMP JUMPDEST PUSH2 0x1FA1 DUP2 PUSH2 0x1F3A JUMP JUMPDEST DUP3 MSTORE POP POP JUMP JUMPDEST PUSH0 PUSH1 0x20 DUP3 ADD SWAP1 POP PUSH2 0x1FBA PUSH0 DUP4 ADD DUP5 PUSH2 0x1F98 JUMP JUMPDEST SWAP3 SWAP2 POP POP JUMP JUMPDEST PUSH0 DUP1 PUSH1 0x40 DUP4 DUP6 SUB SLT ISZERO PUSH2 0x1FD6 JUMPI PUSH2 0x1FD5 PUSH2 0x1EDD JUMP JUMPDEST JUMPDEST PUSH0 PUSH2 0x1FE3 DUP6 DUP3 DUP7 ADD PUSH2 0x1EFB JUMP JUMPDEST SWAP3 POP POP PUSH1 0x20 PUSH2 0x1FF4 DUP6 DUP3 DUP7 ADD PUSH2 0x1F59 JUMP JUMPDEST SWAP2 POP POP SWAP3 POP SWAP3 SWAP1 POP JUMP JUMPDEST PUSH0 DUP1 REVERT JUMPDEST PUSH0 PUSH1 0x1F NOT PUSH1 0x1F DUP4 ADD AND SWAP1 POP SWAP2 SWAP1 POP JUMP JUMPDEST PUSH32 0x4E487B7100000000000000000000000000000000000000000000000000000000 PUSH0 MSTORE PUSH1 0x41 PUSH1 0x4 MSTORE PUSH1 0x24 PUSH0 REVERT JUMPDEST PUSH2 0x2048 DUP3 PUSH2 0x2002 JUMP JUMPDEST DUP2 ADD DUP2 DUP2 LT PUSH8 0xFFFFFFFFFFFFFFFF DUP3 GT OR ISZERO PUSH2 0x2067 JUMPI PUSH2 0x2066 PUSH2 0x2012 JUMP JUMPDEST JUMPDEST DUP1 PUSH1 0x40 MSTORE POP POP POP JUMP JUMPDEST PUSH0 PUSH2 0x2079 PUSH2 0x1ED4 JUMP JUMPDEST SWAP1 POP PUSH2 0x2085 DUP3 DUP3 PUSH2 0x203F JUMP JUMPDEST SWAP2 SWAP1 POP JUMP JUMPDEST PUSH0 PUSH8 0xFFFFFFFFFFFFFFFF DUP3 GT ISZERO PUSH2 0x20A4 JUMPI PUSH2 0x20A3 PUSH2 0x2012 JUMP JUMPDEST JUMPDEST PUSH1 0x20 DUP3 MUL SWAP1 POP PUSH1 0x20 DUP2 ADD SWAP1 POP SWAP2 SWAP1 POP JUMP JUMPDEST PUSH0 DUP1 REVERT JUMPDEST PUSH0 PUSH2 0x20CB PUSH2 0x20C6 DUP5 PUSH2 0x208A JUMP JUMPDEST PUSH2 0x2070 JUMP JUMPDEST SWAP1 POP DUP1 DUP4 DUP3 MSTORE PUSH1 0x20 DUP3 ADD SWAP1 POP PUSH1 0x20 DUP5 MUL DUP4 ADD DUP6 DUP2 GT ISZERO PUSH2 0x20EE JUMPI PUSH2 0x20ED PUSH2 0x20B5 JUMP JUMPDEST JUMPDEST DUP4 JUMPDEST DUP2 DUP2 LT ISZERO PUSH2 0x2117 JUMPI DUP1 PUSH2 0x2103 DUP9 DUP3 PUSH2 0x1EFB JUMP JUMPDEST DUP5 MSTORE PUSH1 0x20 DUP5 ADD SWAP4 POP POP PUSH1 0x20 DUP2 ADD SWAP1 POP PUSH2 0x20F0 JUMP JUMPDEST POP POP POP SWAP4 SWAP3 POP POP POP JUMP JUMPDEST PUSH0 DUP3 PUSH1 0x1F DUP4 ADD SLT PUSH2 0x2135 JUMPI PUSH2 0x2134 PUSH2 0x1FFE JUMP JUMPDEST JUMPDEST DUP2 CALLDATALOAD PUSH2 0x2145 DUP5 DUP3 PUSH1 0x20 DUP7 ADD PUSH2 0x20B9 JUMP JUMPDEST SWAP2 POP POP SWAP3 SWAP2 POP POP JUMP JUMPDEST PUSH0 PUSH8 0xFFFFFFFFFFFFFFFF DUP3 GT ISZERO PUSH2 0x2168 JUMPI PUSH2 0x2167 PUSH2 0x2012 JUMP JUMPDEST JUMPDEST PUSH1 0x20 DUP3 MUL SWAP1 POP PUSH1 0x20 DUP2 ADD SWAP1 POP SWAP2 SWAP1 POP JUMP JUMPDEST PUSH0 PUSH2 0x218B PUSH2 0x2186 DUP5 PUSH2 0x214E JUMP JUMPDEST PUSH2 0x2070 JUMP JUMPDEST SWAP1 POP DUP1 DUP4 DUP3 MSTORE PUSH1 0x20 DUP3 ADD SWAP1 POP PUSH1 0x20 DUP5 MUL DUP4 ADD DUP6 DUP2 GT ISZERO PUSH2 0x21AE JUMPI PUSH2 0x21AD PUSH2 0x20B5 JUMP JUMPDEST JUMPDEST DUP4 JUMPDEST DUP2 DUP2 LT ISZERO PUSH2 0x21D7 JUMPI DUP1 PUSH2 0x21C3 DUP9 DUP3 PUSH2 0x1F59 JUMP JUMPDEST DUP5 MSTORE PUSH1 0x20 DUP5 ADD SWAP4 POP POP PUSH1 0x20 DUP2 ADD SWAP1 POP PUSH2 0x21B0 JUMP JUMPDEST POP POP POP SWAP4 SWAP3 POP POP POP JUMP JUMPDEST PUSH0 DUP3 PUSH1 0x1F DUP4 ADD SLT PUSH2 0x21F5 JUMPI PUSH2 0x21F4 PUSH2 0x1FFE JUMP JUMPDEST JUMPDEST DUP2 CALLDATALOAD PUSH2 0x2205 DUP5 DUP3 PUSH1 0x20 DUP7 ADD PUSH2 0x2179 JUMP JUMPDEST SWAP2 POP POP SWAP3 SWAP2 POP POP JUMP JUMPDEST PUSH0 DUP1 PUSH1 0x40 DUP4 DUP6 SUB SLT ISZERO PUSH2 0x2224 JUMPI PUSH2 0x2223 PUSH2 0x1EDD JUMP JUMPDEST JUMPDEST PUSH0 DUP4 ADD CALLDATALOAD PUSH8 0xFFFFFFFFFFFFFFFF DUP2 GT ISZERO PUSH2 0x2241 JUMPI PUSH2 0x2240 PUSH2 0x1EE1 JUMP JUMPDEST JUMPDEST PUSH2 0x224D DUP6 DUP3 DUP7 ADD PUSH2 0x2121 JUMP JUMPDEST SWAP3 POP POP PUSH1 0x20 DUP4 ADD CALLDATALOAD PUSH8 0xFFFFFFFFFFFFFFFF DUP2 GT ISZERO PUSH2 0x226E JUMPI PUSH2 0x226D PUSH2 0x1EE1 JUMP JUMPDEST JUMPDEST PUSH2 0x227A DUP6 DUP3 DUP7 ADD PUSH2 0x21E1 JUMP JUMPDEST SWAP2 POP POP SWAP3 POP SWAP3 SWAP1 POP JUMP JUMPDEST PUSH0 DUP1 PUSH0 DUP1 PUSH1 0x80 DUP6 DUP8 SUB SLT ISZERO PUSH2 0x229C JUMPI PUSH2 0x229B PUSH2 0x1EDD JUMP JUMPDEST JUMPDEST PUSH0 PUSH2 0x22A9 DUP8 DUP3 DUP9 ADD PUSH2 0x1EFB JUMP JUMPDEST SWAP5 POP POP PUSH1 0x20 PUSH2 0x22BA DUP8 DUP3 DUP9 ADD PUSH2 0x1EFB JUMP JUMPDEST SWAP4 POP POP PUSH1 0x40 PUSH2 0x22CB DUP8 DUP3 DUP9 ADD PUSH2 0x1F59 JUMP JUMPDEST SWAP3 POP POP PUSH1 0x60 DUP6 ADD CALLDATALOAD PUSH8 0xFFFFFFFFFFFFFFFF DUP2 GT ISZERO PUSH2 0x22EC JUMPI PUSH2 0x22EB PUSH2 0x1EE1 JUMP JUMPDEST JUMPDEST PUSH2 0x22F8 DUP8 DUP3 DUP9 ADD PUSH2 0x2121 JUMP JUMPDEST SWAP2 POP POP SWAP3 SWAP6 SWAP2 SWAP5 POP SWAP3 POP JUMP JUMPDEST PUSH0 PUSH1 0x20 DUP3 DUP5 SUB SLT ISZERO PUSH2 0x2319 JUMPI PUSH2 0x2318 PUSH2 0x1EDD JUMP JUMPDEST JUMPDEST PUSH0 DUP3 ADD CALLDATALOAD PUSH8 0xFFFFFFFFFFFFFFFF DUP2 GT ISZERO PUSH2 0x2336 JUMPI PUSH2 0x2335 PUSH2 0x1EE1 JUMP JUMPDEST JUMPDEST PUSH2 0x2342 DUP5 DUP3 DUP6 ADD PUSH2 0x2121 JUMP JUMPDEST SWAP2 POP POP SWAP3 SWAP2 POP POP JUMP JUMPDEST PUSH0 DUP1 PUSH1 0x40 DUP4 DUP6 SUB SLT ISZERO PUSH2 0x2361 JUMPI PUSH2 0x2360 PUSH2 0x1EDD JUMP JUMPDEST JUMPDEST PUSH0 PUSH2 0x236E DUP6 DUP3 DUP7 ADD PUSH2 0x1F59 JUMP JUMPDEST SWAP3 POP POP PUSH1 0x20 DUP4 ADD CALLDATALOAD PUSH8 0xFFFFFFFFFFFFFFFF DUP2 GT ISZERO PUSH2 0x238F JUMPI PUSH2 0x238E PUSH2 0x1EE1 JUMP JUMPDEST JUMPDEST PUSH2 0x239B DUP6 DUP3 DUP7 ADD PUSH2 0x2121 JUMP JUMPDEST SWAP2 POP POP SWAP3 POP SWAP3 SWAP1 POP JUMP JUMPDEST PUSH0 DUP2 ISZERO ISZERO SWAP1 POP SWAP2 SWAP1 POP JUMP JUMPDEST PUSH2 0x23B9 DUP2 PUSH2 0x23A5 JUMP JUMPDEST DUP3 MSTORE POP POP JUMP JUMPDEST PUSH0 PUSH1 0x20 DUP3 ADD SWAP1 POP PUSH2 0x23D2 PUSH0 DUP4 ADD DUP5 PUSH2 0x23B0 JUMP JUMPDEST SWAP3 SWAP2 POP POP JUMP JUMPDEST PUSH0 DUP1 PUSH1 0x40 DUP4 DUP6 SUB SLT ISZERO PUSH2 0x23EE JUMPI PUSH2 0x23ED PUSH2 0x1EDD JUMP JUMPDEST JUMPDEST PUSH0 PUSH2 0x23FB DUP6 DUP3 DUP7 ADD PUSH2 0x1EFB JUMP JUMPDEST SWAP3 POP POP PUSH1 0x20 PUSH2 0x240C DUP6 DUP3 DUP7 ADD PUSH2 0x1EFB JUMP JUMPDEST SWAP2 POP POP SWAP3 POP SWAP3 SWAP1 POP JUMP JUMPDEST PUSH0 DUP1 PUSH0 PUSH1 0x60 DUP5 DUP7 SUB SLT ISZERO PUSH2 0x242D JUMPI PUSH2 0x242C PUSH2 0x1EDD JUMP JUMPDEST JUMPDEST PUSH0 PUSH2 0x243A DUP7 DUP3 DUP8 ADD PUSH2 0x1EFB JUMP JUMPDEST SWAP4 POP POP PUSH1 0x20 PUSH2 0x244B DUP7 DUP3 DUP8 ADD PUSH2 0x1EFB JUMP JUMPDEST SWAP3 POP POP PUSH1 0x40 PUSH2 0x245C DUP7 DUP3 DUP8 ADD PUSH2 0x1F59 JUMP JUMPDEST SWAP2 POP POP SWAP3 POP SWAP3 POP SWAP3 JUMP JUMPDEST PUSH0 DUP3 DUP3 MSTORE PUSH1 0x20 DUP3 ADD SWAP1 POP SWAP3 SWAP2 POP POP JUMP JUMPDEST PUSH32 0x4F776E61626C653A2063616C6C6572206973206E6F7420746865206F776E6572 PUSH0 DUP3 ADD MSTORE POP JUMP JUMPDEST PUSH0 PUSH2 0x24AA PUSH1 0x20 DUP4 PUSH2 0x2466 JUMP JUMPDEST SWAP2 POP PUSH2 0x24B5 DUP3 PUSH2 0x2476 JUMP JUMPDEST PUSH1 0x20 DUP3 ADD SWAP1 POP SWAP2 SWAP1 POP JUMP JUMPDEST PUSH0 PUSH1 0x20 DUP3 ADD SWAP1 POP DUP2 DUP2 SUB PUSH0 DUP4 ADD MSTORE PUSH2 0x24D7 DUP2 PUSH2 0x249E JUMP JUMPDEST SWAP1 POP SWAP2 SWAP1 POP JUMP JUMPDEST PUSH32 0x4E487B7100000000000000000000000000000000000000000000000000000000 PUSH0 MSTORE PUSH1 0x32 PUSH1 0x4 MSTORE PUSH1 0x24 PUSH0 REVERT JUMPDEST PUSH32 0x4E487B7100000000000000000000000000000000000000000000000000000000 PUSH0 MSTORE PUSH1 0x11 PUSH1 0x4 MSTORE PUSH1 0x24 PUSH0 REVERT JUMPDEST PUSH0 PUSH2 0x2542 DUP3 PUSH2 0x1F3A JUMP JUMPDEST SWAP2 POP PUSH2 0x254D DUP4 PUSH2 0x1F3A JUMP JUMPDEST SWAP3 POP DUP3 DUP3 SUB SWAP1 POP DUP2 DUP2 GT ISZERO PUSH2 0x2565 JUMPI PUSH2 0x2564 PUSH2 0x250B JUMP JUMPDEST JUMPDEST SWAP3 SWAP2 POP POP JUMP JUMPDEST PUSH32 0x536F6C657269756D535741503A2050617468206D757374206265207370656369 PUSH0 DUP3 ADD MSTORE PUSH32 0x6669656400000000000000000000000000000000000000000000000000000000 PUSH1 0x20 DUP3 ADD MSTORE POP JUMP JUMPDEST PUSH0 PUSH2 0x25C5 PUSH1 0x24 DUP4 PUSH2 0x2466 JUMP JUMPDEST SWAP2 POP PUSH2 0x25D0 DUP3 PUSH2 0x256B JUMP JUMPDEST PUSH1 0x40 DUP3 ADD SWAP1 POP SWAP2 SWAP1 POP JUMP JUMPDEST PUSH0 PUSH1 0x20 DUP3 ADD SWAP1 POP DUP2 DUP2 SUB PUSH0 DUP4 ADD MSTORE PUSH2 0x25F2 DUP2 PUSH2 0x25B9 JUMP JUMPDEST SWAP1 POP SWAP2 SWAP1 POP JUMP JUMPDEST PUSH0 DUP2 MLOAD SWAP1 POP SWAP2 SWAP1 POP JUMP JUMPDEST PUSH0 DUP3 DUP3 MSTORE PUSH1 0x20 DUP3 ADD SWAP1 POP SWAP3 SWAP2 POP POP JUMP JUMPDEST PUSH0 DUP2 SWAP1 POP PUSH1 0x20 DUP3 ADD SWAP1 POP SWAP2 SWAP1 POP JUMP JUMPDEST PUSH2 0x262B DUP2 PUSH2 0x1E9B JUMP JUMPDEST DUP3 MSTORE POP POP JUMP JUMPDEST PUSH0 PUSH2 0x263C DUP4 DUP4 PUSH2 0x2622 JUMP JUMPDEST PUSH1 0x20 DUP4 ADD SWAP1 POP SWAP3 SWAP2 POP POP JUMP JUMPDEST PUSH0 PUSH1 0x20 DUP3 ADD SWAP1 POP SWAP2 SWAP1 POP JUMP JUMPDEST PUSH0 PUSH2 0x265E DUP3 PUSH2 0x25F9 JUMP JUMPDEST PUSH2 0x2668 DUP2 DUP6 PUSH2 0x2603 JUMP JUMPDEST SWAP4 POP PUSH2 0x2673 DUP4 PUSH2 0x2613 JUMP JUMPDEST DUP1 PUSH0 JUMPDEST DUP4 DUP2 LT ISZERO PUSH2 0x26A3 JUMPI DUP2 MLOAD PUSH2 0x268A DUP9 DUP3 PUSH2 0x2631 JUMP JUMPDEST SWAP8 POP PUSH2 0x2695 DUP4 PUSH2 0x2648 JUMP JUMPDEST SWAP3 POP POP PUSH1 0x1 DUP2 ADD SWAP1 POP PUSH2 0x2676 JUMP JUMPDEST POP DUP6 SWAP4 POP POP POP POP SWAP3 SWAP2 POP POP JUMP JUMPDEST PUSH0 PUSH1 0x40 DUP3 ADD SWAP1 POP PUSH2 0x26C3 PUSH0 DUP4 ADD DUP6 PUSH2 0x1F98 JUMP JUMPDEST DUP2 DUP2 SUB PUSH1 0x20 DUP4 ADD MSTORE PUSH2 0x26D5 DUP2 DUP5 PUSH2 0x2654 JUMP JUMPDEST SWAP1 POP SWAP4 SWAP3 POP POP POP JUMP JUMPDEST PUSH0 DUP2 MLOAD SWAP1 POP PUSH2 0x26EC DUP2 PUSH2 0x1F43 JUMP JUMPDEST SWAP3 SWAP2 POP POP JUMP JUMPDEST PUSH0 PUSH2 0x2704 PUSH2 0x26FF DUP5 PUSH2 0x214E JUMP JUMPDEST PUSH2 0x2070 JUMP JUMPDEST SWAP1 POP DUP1 DUP4 DUP3 MSTORE PUSH1 0x20 DUP3 ADD SWAP1 POP PUSH1 0x20 DUP5 MUL DUP4 ADD DUP6 DUP2 GT ISZERO PUSH2 0x2727 JUMPI PUSH2 0x2726 PUSH2 0x20B5 JUMP JUMPDEST JUMPDEST DUP4 JUMPDEST DUP2 DUP2 LT ISZERO PUSH2 0x2750 JUMPI DUP1 PUSH2 0x273C DUP9 DUP3 PUSH2 0x26DE JUMP JUMPDEST DUP5 MSTORE PUSH1 0x20 DUP5 ADD SWAP4 POP POP PUSH1 0x20 DUP2 ADD SWAP1 POP PUSH2 0x2729 JUMP JUMPDEST POP POP POP SWAP4 SWAP3 POP POP POP JUMP JUMPDEST PUSH0 DUP3 PUSH1 0x1F DUP4 ADD SLT PUSH2 0x276E JUMPI PUSH2 0x276D PUSH2 0x1FFE JUMP JUMPDEST JUMPDEST DUP2 MLOAD PUSH2 0x277E DUP5 DUP3 PUSH1 0x20 DUP7 ADD PUSH2 0x26F2 JUMP JUMPDEST SWAP2 POP POP SWAP3 SWAP2 POP POP JUMP JUMPDEST PUSH0 PUSH1 0x20 DUP3 DUP5 SUB SLT ISZERO PUSH2 0x279C JUMPI PUSH2 0x279B PUSH2 0x1EDD JUMP JUMPDEST JUMPDEST PUSH0 DUP3 ADD MLOAD PUSH8 0xFFFFFFFFFFFFFFFF DUP2 GT ISZERO PUSH2 0x27B9 JUMPI PUSH2 0x27B8 PUSH2 0x1EE1 JUMP JUMPDEST JUMPDEST PUSH2 0x27C5 DUP5 DUP3 DUP6 ADD PUSH2 0x275A JUMP JUMPDEST SWAP2 POP POP SWAP3 SWAP2 POP POP JUMP JUMPDEST PUSH32 0x4F776E61626C653A206E6577206F776E657220697320746865207A65726F2061 PUSH0 DUP3 ADD MSTORE PUSH32 0x6464726573730000000000000000000000000000000000000000000000000000 PUSH1 0x20 DUP3 ADD MSTORE POP JUMP JUMPDEST PUSH0 PUSH2 0x2828 PUSH1 0x26 DUP4 PUSH2 0x2466 JUMP JUMPDEST SWAP2 POP PUSH2 0x2833 DUP3 PUSH2 0x27CE JUMP JUMPDEST PUSH1 0x40 DUP3 ADD SWAP1 POP SWAP2 SWAP1 POP JUMP JUMPDEST PUSH0 PUSH1 0x20 DUP3 ADD SWAP1 POP DUP2 DUP2 SUB PUSH0 DUP4 ADD MSTORE PUSH2 0x2855 DUP2 PUSH2 0x281C JUMP JUMPDEST SWAP1 POP SWAP2 SWAP1 POP JUMP JUMPDEST PUSH0 PUSH1 0x40 DUP3 ADD SWAP1 POP PUSH2 0x286F PUSH0 DUP4 ADD DUP6 PUSH2 0x1EAC JUMP JUMPDEST PUSH2 0x287C PUSH1 0x20 DUP4 ADD DUP5 PUSH2 0x1F98 JUMP JUMPDEST SWAP4 SWAP3 POP POP POP JUMP JUMPDEST PUSH2 0x288C DUP2 PUSH2 0x23A5 JUMP JUMPDEST DUP2 EQ PUSH2 0x2896 JUMPI PUSH0 DUP1 REVERT JUMPDEST POP JUMP JUMPDEST PUSH0 DUP2 MLOAD SWAP1 POP PUSH2 0x28A7 DUP2 PUSH2 0x2883 JUMP JUMPDEST SWAP3 SWAP2 POP POP JUMP JUMPDEST PUSH0 PUSH1 0x20 DUP3 DUP5 SUB SLT ISZERO PUSH2 0x28C2 JUMPI PUSH2 0x28C1 PUSH2 0x1EDD JUMP JUMPDEST JUMPDEST PUSH0 PUSH2 0x28CF DUP5 DUP3 DUP6 ADD PUSH2 0x2899 JUMP JUMPDEST SWAP2 POP POP SWAP3 SWAP2 POP POP JUMP JUMPDEST PUSH32 0x536F6C657269756D535741503A20616D6F756E74496E206D7573742062652067 PUSH0 DUP3 ADD MSTORE PUSH32 0x726561746572207468616E203000000000000000000000000000000000000000 PUSH1 0x20 DUP3 ADD MSTORE POP JUMP JUMPDEST PUSH0 PUSH2 0x2932 PUSH1 0x2D DUP4 PUSH2 0x2466 JUMP JUMPDEST SWAP2 POP PUSH2 0x293D DUP3 PUSH2 0x28D8 JUMP JUMPDEST PUSH1 0x40 DUP3 ADD SWAP1 POP SWAP2 SWAP1 POP JUMP JUMPDEST PUSH0 PUSH1 0x20 DUP3 ADD SWAP1 POP DUP2 DUP2 SUB PUSH0 DUP4 ADD MSTORE PUSH2 0x295F DUP2 PUSH2 0x2926 JUMP JUMPDEST SWAP1 POP SWAP2 SWAP1 POP JUMP JUMPDEST PUSH32 0x536F6C657269756D535741503A20546F6B656E41206973206E6F742077686974 PUSH0 DUP3 ADD MSTORE PUSH32 0x656C697374656400000000000000000000000000000000000000000000000000 PUSH1 0x20 DUP3 ADD MSTORE POP JUMP JUMPDEST PUSH0 PUSH2 0x29C0 PUSH1 0x27 DUP4 PUSH2 0x2466 JUMP JUMPDEST SWAP2 POP PUSH2 0x29CB DUP3 PUSH2 0x2966 JUMP JUMPDEST PUSH1 0x40 DUP3 ADD SWAP1 POP SWAP2 SWAP1 POP JUMP JUMPDEST PUSH0 PUSH1 0x20 DUP3 ADD SWAP1 POP DUP2 DUP2 SUB PUSH0 DUP4 ADD MSTORE PUSH2 0x29ED DUP2 PUSH2 0x29B4 JUMP JUMPDEST SWAP1 POP SWAP2 SWAP1 POP JUMP JUMPDEST PUSH32 0x536F6C657269756D535741503A20496E73756666696369656E74204554480000 PUSH0 DUP3 ADD MSTORE POP JUMP JUMPDEST PUSH0 PUSH2 0x2A28 PUSH1 0x1E DUP4 PUSH2 0x2466 JUMP JUMPDEST SWAP2 POP PUSH2 0x2A33 DUP3 PUSH2 0x29F4 JUMP JUMPDEST PUSH1 0x20 DUP3 ADD SWAP1 POP SWAP2 SWAP1 POP JUMP JUMPDEST PUSH0 PUSH1 0x20 DUP3 ADD SWAP1 POP DUP2 DUP2 SUB PUSH0 DUP4 ADD MSTORE PUSH2 0x2A55 DUP2 PUSH2 0x2A1C JUMP JUMPDEST SWAP1 POP SWAP2 SWAP1 POP JUMP JUMPDEST PUSH0 PUSH2 0x2A66 DUP3 PUSH2 0x1F3A JUMP JUMPDEST SWAP2 POP PUSH2 0x2A71 DUP4 PUSH2 0x1F3A JUMP JUMPDEST SWAP3 POP DUP3 DUP3 MUL PUSH2 0x2A7F DUP2 PUSH2 0x1F3A JUMP JUMPDEST SWAP2 POP DUP3 DUP3 DIV DUP5 EQ DUP4 ISZERO OR PUSH2 0x2A96 JUMPI PUSH2 0x2A95 PUSH2 0x250B JUMP JUMPDEST JUMPDEST POP SWAP3 SWAP2 POP POP JUMP JUMPDEST PUSH32 0x4E487B7100000000000000000000000000000000000000000000000000000000 PUSH0 MSTORE PUSH1 0x12 PUSH1 0x4 MSTORE PUSH1 0x24 PUSH0 REVERT JUMPDEST PUSH0 PUSH2 0x2AD4 DUP3 PUSH2 0x1F3A JUMP JUMPDEST SWAP2 POP PUSH2 0x2ADF DUP4 PUSH2 0x1F3A JUMP JUMPDEST SWAP3 POP DUP3 PUSH2 0x2AEF JUMPI PUSH2 0x2AEE PUSH2 0x2A9D JUMP JUMPDEST JUMPDEST DUP3 DUP3 DIV SWAP1 POP SWAP3 SWAP2 POP POP JUMP JUMPDEST PUSH32 0x5361666545524332303A204552433230206F7065726174696F6E20646964206E PUSH0 DUP3 ADD MSTORE PUSH32 0x6F74207375636365656400000000000000000000000000000000000000000000 PUSH1 0x20 DUP3 ADD MSTORE POP JUMP JUMPDEST PUSH0 PUSH2 0x2B54 PUSH1 0x2A DUP4 PUSH2 0x2466 JUMP JUMPDEST SWAP2 POP PUSH2 0x2B5F DUP3 PUSH2 0x2AFA JUMP JUMPDEST PUSH1 0x40 DUP3 ADD SWAP1 POP SWAP2 SWAP1 POP JUMP JUMPDEST PUSH0 PUSH1 0x20 DUP3 ADD SWAP1 POP DUP2 DUP2 SUB PUSH0 DUP4 ADD MSTORE PUSH2 0x2B81 DUP2 PUSH2 0x2B48 JUMP JUMPDEST SWAP1 POP SWAP2 SWAP1 POP JUMP JUMPDEST PUSH0 DUP2 SWAP1 POP SWAP2 SWAP1 POP JUMP JUMPDEST PUSH0 DUP2 SWAP1 POP SWAP2 SWAP1 POP JUMP JUMPDEST PUSH0 PUSH2 0x2BB4 PUSH2 0x2BAF PUSH2 0x2BAA DUP5 PUSH2 0x2B88 JUMP JUMPDEST PUSH2 0x2B91 JUMP JUMPDEST PUSH2 0x1F3A JUMP JUMPDEST SWAP1 POP SWAP2 SWAP1 POP JUMP JUMPDEST PUSH2 0x2BC4 DUP2 PUSH2 0x2B9A JUMP JUMPDEST DUP3 MSTORE POP POP JUMP JUMPDEST PUSH0 PUSH1 0x80 DUP3 ADD SWAP1 POP PUSH2 0x2BDD PUSH0 DUP4 ADD DUP8 PUSH2 0x2BBB JUMP JUMPDEST DUP2 DUP2 SUB PUSH1 0x20 DUP4 ADD MSTORE PUSH2 0x2BEF DUP2 DUP7 PUSH2 0x2654 JUMP JUMPDEST SWAP1 POP PUSH2 0x2BFE PUSH1 0x40 DUP4 ADD DUP6 PUSH2 0x1EAC JUMP JUMPDEST PUSH2 0x2C0B PUSH1 0x60 DUP4 ADD DUP5 PUSH2 0x1F98 JUMP JUMPDEST SWAP6 SWAP5 POP POP POP POP POP JUMP JUMPDEST PUSH0 PUSH1 0x60 DUP3 ADD SWAP1 POP PUSH2 0x2C27 PUSH0 DUP4 ADD DUP7 PUSH2 0x1EAC JUMP JUMPDEST PUSH2 0x2C34 PUSH1 0x20 DUP4 ADD DUP6 PUSH2 0x1EAC JUMP JUMPDEST PUSH2 0x2C41 PUSH1 0x40 DUP4 ADD DUP5 PUSH2 0x1F98 JUMP JUMPDEST SWAP5 SWAP4 POP POP POP POP JUMP JUMPDEST PUSH0 PUSH1 0xA0 DUP3 ADD SWAP1 POP PUSH2 0x2C5C PUSH0 DUP4 ADD DUP9 PUSH2 0x1F98 JUMP JUMPDEST PUSH2 0x2C69 PUSH1 0x20 DUP4 ADD DUP8 PUSH2 0x2BBB JUMP JUMPDEST DUP2 DUP2 SUB PUSH1 0x40 DUP4 ADD MSTORE PUSH2 0x2C7B DUP2 DUP7 PUSH2 0x2654 JUMP JUMPDEST SWAP1 POP PUSH2 0x2C8A PUSH1 0x60 DUP4 ADD DUP6 PUSH2 0x1EAC JUMP JUMPDEST PUSH2 0x2C97 PUSH1 0x80 DUP4 ADD DUP5 PUSH2 0x1F98 JUMP JUMPDEST SWAP7 SWAP6 POP POP POP POP POP POP JUMP JUMPDEST PUSH32 0x416464726573733A20696E73756666696369656E742062616C616E636520666F PUSH0 DUP3 ADD MSTORE PUSH32 0x722063616C6C0000000000000000000000000000000000000000000000000000 PUSH1 0x20 DUP3 ADD MSTORE POP JUMP JUMPDEST PUSH0 PUSH2 0x2CFB PUSH1 0x26 DUP4 PUSH2 0x2466 JUMP JUMPDEST SWAP2 POP PUSH2 0x2D06 DUP3 PUSH2 0x2CA1 JUMP JUMPDEST PUSH1 0x40 DUP3 ADD SWAP1 POP SWAP2 SWAP1 POP JUMP JUMPDEST PUSH0 PUSH1 0x20 DUP3 ADD SWAP1 POP DUP2 DUP2 SUB PUSH0 DUP4 ADD MSTORE PUSH2 0x2D28 DUP2 PUSH2 0x2CEF JUMP JUMPDEST SWAP1 POP SWAP2 SWAP1 POP JUMP JUMPDEST PUSH32 0x416464726573733A2063616C6C20746F206E6F6E2D636F6E7472616374000000 PUSH0 DUP3 ADD MSTORE POP JUMP JUMPDEST PUSH0 PUSH2 0x2D63 PUSH1 0x1D DUP4 PUSH2 0x2466 JUMP JUMPDEST SWAP2 POP PUSH2 0x2D6E DUP3 PUSH2 0x2D2F JUMP JUMPDEST PUSH1 0x20 DUP3 ADD SWAP1 POP SWAP2 SWAP1 POP JUMP JUMPDEST PUSH0 PUSH1 0x20 DUP3 ADD SWAP1 POP DUP2 DUP2 SUB PUSH0 DUP4 ADD MSTORE PUSH2 0x2D90 DUP2 PUSH2 0x2D57 JUMP JUMPDEST SWAP1 POP SWAP2 SWAP1 POP JUMP JUMPDEST PUSH0 DUP2 MLOAD SWAP1 POP SWAP2 SWAP1 POP JUMP JUMPDEST PUSH0 DUP2 SWAP1 POP SWAP3 SWAP2 POP POP JUMP JUMPDEST DUP3 DUP2 DUP4 MCOPY PUSH0 DUP4 DUP4 ADD MSTORE POP POP POP JUMP JUMPDEST PUSH0 PUSH2 0x2DC3 DUP3 PUSH2 0x2D97 JUMP JUMPDEST PUSH2 0x2DCD DUP2 DUP6 PUSH2 0x2DA1 JUMP JUMPDEST SWAP4 POP PUSH2 0x2DDD DUP2 DUP6 PUSH1 0x20 DUP7 ADD PUSH2 0x2DAB JUMP JUMPDEST DUP1 DUP5 ADD SWAP2 POP POP SWAP3 SWAP2 POP POP JUMP JUMPDEST PUSH0 PUSH2 0x2DF4 DUP3 DUP5 PUSH2 0x2DB9 JUMP JUMPDEST SWAP2 POP DUP2 SWAP1 POP SWAP3 SWAP2 POP POP JUMP JUMPDEST PUSH0 DUP2 MLOAD SWAP1 POP SWAP2 SWAP1 POP JUMP JUMPDEST PUSH0 PUSH2 0x2E13 DUP3 PUSH2 0x2DFF JUMP JUMPDEST PUSH2 0x2E1D DUP2 DUP6 PUSH2 0x2466 JUMP JUMPDEST SWAP4 POP PUSH2 0x2E2D DUP2 DUP6 PUSH1 0x20 DUP7 ADD PUSH2 0x2DAB JUMP JUMPDEST PUSH2 0x2E36 DUP2 PUSH2 0x2002 JUMP JUMPDEST DUP5 ADD SWAP2 POP POP SWAP3 SWAP2 POP POP JUMP JUMPDEST PUSH0 PUSH1 0x20 DUP3 ADD SWAP1 POP DUP2 DUP2 SUB PUSH0 DUP4 ADD MSTORE PUSH2 0x2E59 DUP2 DUP5 PUSH2 0x2E09 JUMP JUMPDEST SWAP1 POP SWAP3 SWAP2 POP POP JUMP INVALID LOG2 PUSH5 0x6970667358 0x22 SLT KECCAK256 SELFBALANCE SWAP13 BYTE 0xA5 SUB DUP5 0xE7 CREATE2 0xB9 0xC8 0xF7 BASEFEE MOD 0xAD 0xA9 BLOCKHASH DUP14 CALLDATALOAD 0xAC GAS DUP15 0xED 0xC2 SHR MSTORE8 0xEC ADD 0xB6 MSTORE8 PUSH5 0xC8F64736F PUSH13 0x634300081A0033000000000000 "
				},
				"gasEstimates": {
					"creation": {
						"codeDepositCost": "2385400",
						"executionCost": "infinite",
						"totalCost": "infinite"
					},
					"external": {
						"addWhitelistedTokens(address[])": "infinite",
						"approveTokens(address[],uint256[])": "infinite",
						"customSwapTokens(address,address,uint256,address[])": "infinite",
						"emergencyWithdraw(address,uint256)": "infinite",
						"emergencyWithdrawETH(uint256)": "infinite",
						"feeAccount()": "2576",
						"feePercent()": "2492",
						"getOutputTokenAmount(uint256,address[])": "infinite",
						"owner()": "2604",
						"removeWhitelistedTokens(address[])": "infinite",
						"renounceOwnership()": "30389",
						"router()": "2618",
						"setFeeAccount(address)": "26998",
						"setFeePercent(uint256)": "24797",
						"setRouterweth(address,address)": "infinite",
						"swapTokens(address,address,uint256)": "infinite",
						"transferOwnership(address)": "30795",
						"weth()": "2532",
						"whitelistedTokens(address)": "2855"
					},
					"internal": {
						"_approve(address,uint256)": "infinite",
						"_proceedToUniswap(address,address,uint256,address[] memory)": "infinite",
						"_swapBNBForTokens(uint256,address[] memory)": "infinite",
						"_swapTokensForBNB(uint256,address[] memory)": "infinite",
						"_swapTokensForTokens(uint256,address[] memory)": "infinite"
					}
				},
				"methodIdentifiers": {
					"addWhitelistedTokens(address[])": "cd698e69",
					"approveTokens(address[],uint256[])": "9c833fa7",
					"customSwapTokens(address,address,uint256,address[])": "9de2827b",
					"emergencyWithdraw(address,uint256)": "95ccea67",
					"emergencyWithdrawETH(uint256)": "6b792c4b",
					"feeAccount()": "65e17c9d",
					"feePercent()": "7fd6f15c",
					"getOutputTokenAmount(uint256,address[])": "d654e9a4",
					"owner()": "8da5cb5b",
					"removeWhitelistedTokens(address[])": "bcec454f",
					"renounceOwnership()": "715018a6",
					"router()": "f887ea40",
					"setFeeAccount(address)": "4b023cf8",
					"setFeePercent(uint256)": "7ce3489b",
					"setRouterweth(address,address)": "ebcf9053",
					"swapTokens(address,address,uint256)": "ec6cc0cc",
					"transferOwnership(address)": "f2fde38b",
					"weth()": "3fc8cef3",
					"whitelistedTokens(address)": "daf9c210"
				}
			},
			"storageLayout": {
				"storage": [
					{
						"astId": 1660,
						"contract": "DEX2.sol:Dex",
						"label": "_owner",
						"offset": 0,
						"slot": "0",
						"type": "t_address"
					},
					{
						"astId": 469,
						"contract": "DEX2.sol:Dex",
						"label": "feePercent",
						"offset": 0,
						"slot": "1",
						"type": "t_uint256"
					},
					{
						"astId": 471,
						"contract": "DEX2.sol:Dex",
						"label": "feeAccount",
						"offset": 0,
						"slot": "2",
						"type": "t_address"
					},
					{
						"astId": 473,
						"contract": "DEX2.sol:Dex",
						"label": "router",
						"offset": 0,
						"slot": "3",
						"type": "t_address"
					},
					{
						"astId": 475,
						"contract": "DEX2.sol:Dex",
						"label": "weth",
						"offset": 0,
						"slot": "4",
						"type": "t_address"
					},
					{
						"astId": 479,
						"contract": "DEX2.sol:Dex",
						"label": "whitelistedTokens",
						"offset": 0,
						"slot": "5",
						"type": "t_mapping(t_address,t_bool)"
					}
				],
				"types": {
					"t_address": {
						"encoding": "inplace",
						"label": "address",
						"numberOfBytes": "20"
					},
					"t_bool": {
						"encoding": "inplace",
						"label": "bool",
						"numberOfBytes": "1"
					},
					"t_mapping(t_address,t_bool)": {
						"encoding": "mapping",
						"key": "t_address",
						"label": "mapping(address => bool)",
						"numberOfBytes": "32",
						"value": "t_bool"
					},
					"t_uint256": {
						"encoding": "inplace",
						"label": "uint256",
						"numberOfBytes": "32"
					}
				}
			},
			"userdoc": {
				"kind": "user",
				"methods": {},
				"version": 1
			}
		}
	}
}